:020000041000EA
:1000000000B5324B212058609868022188439860DF
:10001000D860186158612E4B002199600221596106
:100020000121F02299502B49196001219960352056
:1000300000F044F80222904214D00621196600F024
:1000400034F8196E01211966002018661A6600F04E
:100050002CF8196E196E196E052000F02FF8012189
:100060000842F9D1002199601B49196000215960AB
:100070001A491B48016001219960EB211966A021F2
:10008000196600F012F800219960164914480160C1
:100090000121996001BC002800D000471248134993
:1000A000086003C880F30888084703B5996A0420EC
:1000B0000142FBD001200142F8D103BD02B5186610
:1000C0001866FFF7F2FF186E186E02BD00000240BE
:1000D000000000180000070000035F00212200005C
:1000E000F4000018222000A00001001008ED00E03C
:1000F00000000000000000000000000074B24E7A12
:1001000000200420F7010010C3010010C5010010F9
:10011000C1010010C1010010C1010010C101001097
:10012000C1010010C1010010C1010010C701001081
:10013000C1010010C1010010C9010010CB01001065
:10014000CD010010CD010010CD010010CD01001037
:10015000CD010010CD010010CD010010CD01001027
:10016000CD010010CD010010CD010010CD01001017
:10017000CD010010CD010010CD010010CD01001007
:10018000CD010010CD010010CD010010CD010010F7
:10019000CD010010CD010010CD010010CD010010E7
:1001A000CD010010CD010010CD010010CD010010D7
:1001B000CD010010CD010010CD010010CD010010C7
:1001C00000BE00BE00BE00BE00BE00BE00F04BF888
:1001D000103800BEF2EB887180830010A4830010F9
:1001E0003402001090A31AE700202149086006C8D5
:1001F00081F3088810471F48006800282FD10DA4FC
:100200000ECC002902D000F012F8F9E71A491B4A77
:10021000002000E001C19142FCD1194988471949E9
:1002200088471949884700BEFDE701C901C29A42C3
:10023000FBD37047A4830010C0000020F0370020DB
:10024000D4BA00100000042000000420D4BA00102A
:1002500000100420001004200000000070470B482C
:1002600003F02EFC0047EFF30580C0B2704700009A
:1002700008ED00E0000000D0F0370020204700200B
:10028000DD34001011150010013600105756000023
:1002900006005250ABB36053348100100600525038
:1002A000861C030244810010060052505422A29D75
:1002B0005081001005005250DE65F468D4BA001079
:1002C000F8B5C04606480749091A8B10C90FC91866
:1002D00010B5491003D0044B002B00D0984710BD37
:1002E000F0370020F037002000000000054B10B56B
:1002F000002B03D00449054800E000BFFFF7E2FFF0
:1003000010BDC04600000000A4460020D87E0010AA
:10031000F0B5C64600B52649264B0A789E5C802378
:10032000F5015B001D40FF3B33409B021D43D02382
:100330001B061C699846531E5F427B41574257413A
:100340009B01FF013B43971E3800474247417F0115
:100350003B43D71E38004742474180203F013B4383
:100360004001B702074080203B43C001F70207402D
:1003700080203B433711FF073F0C3B438000370190
:10038000074080203B430001770107404046F611BB
:100390003B43760333432B436340074C01322340F6
:1003A000C3610323134001200B7080BCB846F0BD2D
:1003B00016470020203B0020F0FF000070B504002D
:1003C0000D000D20002101F0D5FC02F06BFD00298D
:1003D0002AD0FA220023920003F0E6FB022C29D057
:1003E000012C11D0002C0AD10C232B4207D0D02392
:1003F0001B065B68DB0700D40400154B1C60012161
:100400000D2001F0B7FC70BD0C232B42F7D0D02398
:100410001B065B685B082340DBB25A4253415B42D8
:1004200018400C4B1860EAE7FA21890003F07AFBC8
:10043000022CD5D10C232B42E1D0D0231B065B68C4
:100440005B07DB0F013B1840034B1860D7E7C04642
:1004500000420020084200200442002070B5141E13
:1004600001D0002808D12B4B1B788B424CD02A4B53
:100470001B788B4242D070BD284D2B78002B1ED0AC
:10048000274E244B002219703068002301F0C0F978
:10049000200003F019FE0022224B03F098FD0022F9
:1004A000214B03F0B2FD0B000200306801F052F95D
:1004B0000121306801F096F900232B70DBE71B4E19
:1004C000154B002219703068002301F0A1F92000BB
:1004D00003F0FAFD0022134B03F079FD0022124BCA
:1004E00003F093FD0B000200306801F033F90121A5
:1004F000306801F077F901232B70BCE70B4B00212A
:10050000186801F06FF9B6E7054B0021186801F093
:1005100069F9B0E7144700201547002008040020BF
:100520000C42002000C05F400000E03F104200206D
:10053000F0B557464E464546DE46E0B5437902796A
:100540001B0213438279C47912041A43457B2406A3
:100550001443027B437A2D021543027A85B01B02B5
:10056000060000AF134304D124BA03191A7A4D2AA6
:1005700007D0BD4605B0F0BCBB46B246A946A04672
:10058000F0BD5A7A542AF4D19A7A722AF1D1DA7AE1
:100590006B2AEED11A7B597B120609041143DA7BD0
:1005A0009B7B0A431B02103413431B19FB609C42C4
:1005B000DFD26DBAABB2BB60834B9846834B994692
:1005C000834B7B6000237F201A000100335DD20142
:1005D00019405BB225000A430134002BF5DB92463B
:1005E000002A25D1325D0F231000A91C98438028D2
:1005F0002ED0C02837D008D82C1DA02801D0B02874
:100600003AD1FB68A342DDD8B3E7D0282BD02C1D0C
:10061000E028F6D0F02A38D0FF2A3BD1725C002ABD
:1006200041D0EC1C592A40D86A4B92009B589F46F7
:10063000B968404603F076FA53460021584302F069
:100640002DFB325D0F231000A91C98438028D0D1C8
:100650004A46735C12789A421ED07A6812789A429F
:1006600003D02C1DCDE7EC1CCBE75B4B00211868B9
:1006700001F0B8F82C1DC4E790280BD175190120A2
:10068000EA78715CFFF7EAFEBBE7721E0131535C4A
:10069000F72BFBD10C00B4E7504B0021186801F098
:1006A000A1F82C1DADE7AC1DABE75346EB46DB01D3
:1006B0007F2AA6D1325D013451B20029FADB1A43F8
:1006C000130092466A460833DB08DB00D31A9D46C6
:1006D0001D005346002B05D031195246684604F0E0
:1006E0000BF95444002351466B54DD4689E72C0036
:1006F000083486E72C00093483E7EC1D75192B7943
:100700006979AA791B0409020B431343984678E7D9
:1007100053466D46DA01335D013459B20029FADBE4
:1007200013439A466A460833DB08DB00D31A9D461A
:100730005346EB46002B05D031195246684604F06B
:10074000DBF8544400235A4651465354AD4658E70B
:1007500053466D46DA01335D013459B20029FADBA4
:10076000DEE753466D46DA01335D013459B20029A4
:10077000FADBD5E753466D46DA01335D013459B2F1
:100780000029FADBCCE76C1D3BE753466D46DB01E5
:10079000325D013451B20029FADB1A43924613004C
:1007A000C0E753466D46DA01335D013459B2002982
:1007B000FADBB5E753466D46DA01335D013459B2D1
:1007C0000029FADBACE7C04620A10700144700204F
:1007D00015470020D87E0010104200200C42002057
:1007E00070B5224C200007F057FB214B20001D78EC
:1007F00007F02AFB002D0DD11E4803784D2B29D080
:10080000200007F049FB01221B4B20001A7007F063
:100810001BFB70BD194E00223068194B00F03AFFE7
:10082000184D0022184B286800F034FF3068012171
:1008300000F0D8FF0121286800F0D4FF134802F02F
:1008400045FA3068002100F0CDFF0021286800F053
:10085000C9FFD5E74378542BD2D18378682BCFD109
:10086000C378642BCCD1FFF763FEC9E7243B00209B
:10087000134700200C040020124700200C420020E7
:1008800000408F401042002000488F40B80B00000D
:10089000F0B5DE4657464E464546E0B599B001F004
:1008A000B5FF12AB02930023FA220193C54B9200CD
:1008B0000093002302F07CF801210D2001F05AFA88
:1008C000002399460B930A930593BF4B002506938B
:1008D000BE4BBF4F9B46BF4BBF4E0993BF4B9A4683
:1008E000BF4B0E93BF4B0D93BF4B0493BF4B0F9366
:1008F000BF4B0793BF4B10935346DA46CB469946FE
:1009000002F0D0FA002900D1F6E2FA220023920088
:1009100003F04AF90400062D00D9E5E2069BAD007C
:100920005B599F46A046059D5D444346FA215C1BEA
:100930002000490003F0F6F8F92900D95AE3200015
:10094000AD4903F0EFF80A2103F0ECF84B46C9B2C9
:100950005B5C20003370A94903F0E4F80A2103F03E
:10096000E1F84B46C9B25A5C8023FA215B4213433B
:1009700073702000890003F0D5F83C2103F0D2F811
:100980000C000A21200003F0CDF84B46C0B21B5CDE
:100990000A21B370200003F0C5F84B46C9B25B5C76
:1009A0000498F37007F078FA079B04981C7807F016
:1009B0004BFA3B68002B00D101E3012002F086F9DD
:1009C00002F070FA002900D180E3FA22002392009D
:1009D00003F0EAF80400FA21631B18004900984666
:1009E00003F0A0F8F92900D96BE34046824903F0EF
:1009F00099F80A2103F096F84B46C9B25B5C404671
:100A000033707E4903F08EF80A2103F08BF84B46D1
:100A1000C9B25A5C8023FA215B421343737040468B
:100A2000890003F07FF83C2103F07CF888460A2116
:100A3000404603F077F84B46C0B21B5C0A21B37006
:100A4000404603F06FF84B46C9B25B5CF3703B68FD
:100A5000002BB2D153461B68002BAED1099B1B68FB
:100A6000002BAAD106F0EEFC0E9B1D68002D06D0CF
:100A7000280000F0F7FD2821280003F047FF0D9B18
:100A80001D68002D00D188E2280000F0EBFD282130
:100A9000280003F03BFF012002F018F902F002FAEF
:100AA000002901D100F00EFDFA220023920003F08C
:100AB0007BF85D468046B3460B9464E1059D5D443A
:100AC000059BE31A5B4500D34BE1FA212C1B200068
:100AD000890003F027F808001191A72103F022F8FC
:100AE0004549C3B280462000089303F01BF80A2151
:100AF00003F018F8089BC9B25A425A414B465B5C56
:100B0000D201134333703D49200003F00BF80A2152
:100B100003F008F84346012B00D1BBE3053B5A42E2
:100B200053414A46C9B2525CFA21DB011343737048
:100B30008900200002F0F6FF3C2102F0F3FF0800DC
:100B40000C910A2102F0EEFF42468023022A04D0D3
:100B50004346043B5A425341DB014A46C0B2125C51
:100B60000A211343B3700C9802F0DCFF089BC9B252
:100B7000033B5A4253414A46525CDB011343F37034
:100B80003B68002B00D0D9E053461B68002B00D0F7
:100B9000D4E0099B1B68002B00D0CFE0119B012003
:100BA000E31A9B4602F092F802F07CF9002900D08B
:100BB000FCE1FA21890002F0B5FF5D468046B346AC
:100BC000E1E0C04611030010408000100842002000
:100BD0000442002000420020203B00205C800010E6
:100BE0000C42002010420020243B0020134700202C
:100BF00012470020E1070010C027090060EA00004A
:100C0000200054463B68002B0FD0012002F05EF814
:100C100002F048F9002900D17AE3FA220023920079
:100C200002F0C2FF3B68002BEFD12368002BECD110
:100C3000099B1B68002BE8D1A246040001200A93FF
:100C400002F044F802F02EF9002900D1DCE3FA2288
:100C50000023920002F0A8FF05940400059D2000E7
:100C60005D44A846059BC31A5B4500D327E2434673
:100C7000FA211C1A2000890002F054FF0800A72165
:100C800002F050FF0500C3B2DD492000089302F0D6
:100C900049FF0A2102F046FFEBB25A425A414B4645
:100CA000C9B25B5CD2011343D6492000337002F015
:100CB00039FF0A2102F036FF012D00D1D5E26B1F6A
:100CC0005A4253414A46C9B2525CFA21DB011343EE
:100CD00073702000890002F025FF3C2102F022FF02
:100CE0000C000A21200002F01DFF8023022D03D0FA
:100CF0002B1F5A425341DB014A46C0B2125C0A2103
:100D00001343B370200002F00DFF089BC9B2033BF0
:100D10005A4253414A46525CDB011343F3703B682D
:100D2000002B00D02BE253461B68002B00D026E29C
:100D3000099B1B68002B00D121E24546012001F0F0
:100D4000C5FF02F0AFF8002900D1E6E2FA22002345
:100D5000920002F029FF0400059BE31A5B4500D2D4
:100D6000B3E6012001F0B2FF02F09CF8002900D1A7
:100D70009FE1FA220023920002F016FF0400C3E074
:100D80005D46A046B3463B68002B03D053461B6824
:100D9000002B72D13B68002B00D039E153461B6811
:100DA000002B00D134E15346186843464B21181AF2
:100DB00002F0B8FE431C0C93002800D186E2052BFC
:100DC00000D983E2FA212800890002F0ABFE3C2121
:100DD00002F0A8FE0C000A21200002F0A3FECAB215
:100DE00008920A21200002F09DFE8649C4B2280024
:100DF00002F098FE0A2102F095FE2800CEB280494A
:100E000002F090FE0A2102F08DFE3B68C9B2002B71
:100E100000D040E150460368002B00D03BE1099828
:100E20000368002B00D123E348468023825D1A43E8
:100E3000435C1202015D1343089A0904125C0B43E0
:100E4000120613435A460120136001F03FFF02F0DF
:100E500029F8002900D132E2FA220023920002F0A0
:100E6000A3FE0C9B0A9343460B933B688046002BE2
:100E700090D053461B68002B8CD05E46624B444694
:100E80005546336002E00A2001F020FF3B68002B4A
:100E9000F9D12B68002BF6D1AA469B460021984633
:100EA0000025119308933B68002B08D153461B681B
:100EB000002B04D1099B1B68002B00D1FFE20B948F
:100EC0004B4642469A5C80231A434B465B5C49463C
:100ED000120213434A461198095C08980904125CEF
:100EE0000B43120613433360012001F0EFFE01F0C3
:100EF000D9FF002900D008E5FA21890002F012FE8E
:100F0000040008E5059D5D44282003F0FBFC8046B5
:100F1000132100F069FB42460E9B28201A6003F063
:100F2000F1FC8046142100F05FFB42460D9B01213D
:100F30001A60049B01221800984601F0EDF9FA238B
:100F4000DB009B459B410F9A5B4213700023079A7D
:100F50004046137006F078FF109806F0C7FAA046D6
:100F6000E3E4059D5D4436E506F06CFA0E9B4446CD
:100F70001D68002D06D0280000F074FB28212800F1
:100F800003F0C4FC0D9B1D68002D06D0280000F066
:100F900069FB2821280003F0B9FC01200B9401F023
:100FA00095FE01F07FFF002900D102E6FA2200231E
:100FB000920002F0F9FD5D468046B346E3E65346F3
:100FC0001B68002B00D0F8E4099B1B68002B00D0A5
:100FD000F3E4002CC8D1012001F078FE01F062FF9B
:100FE000002900D109E2FA220023920002F0DCFD80
:100FF00080469AE4054B33800023B370D0E4C046AA
:10100000C027090060EA0000404040400080FFFF28
:101010003B68002B60D053461B68002B5CD14346D5
:1010200038684B21181A02F07DFD431C0C930028F0
:1010300002D0052B00D8C5E60C9B0A9AE849981AFD
:10104000E84A5043401902F06DFD0D00FA212800D6
:10105000890002F067FD3C2102F064FD0C000A21CA
:10106000200002F05FFD2000CAB20A21089202F0BF
:1010700059FDDC49C4B2280002F054FD0A2102F0F7
:1010800051FD2800CEB2D84902F04CFD3B68C1B2F8
:10109000002B00D1BEE64B469A5D80231A434B4697
:1010A0005B5C4946095D1202134308984A460904ED
:1010B000C4E6FA21890002F035FD040024E7454624
:1010C0004FE6CA4B33800023B370BFE4FA21890096
:1010D00002F028FD04007EE43B68002B5CD0FA217E
:1010E0002800890002F01EFD3C2102F01BFD0C00CF
:1010F0000A21200002F016FD2000CBB20A2108933D
:1011000002F010FDB749C4B2280002F00BFD0A211D
:1011100002F008FD2800CEB2B34902F003FD0A2117
:1011200002F000FD3B68C9B20A93002B7AD1504609
:101130000368002B63D1099800680C90002800D147
:10114000B6E14846825D80331A43435C1202015D7A
:101150001343089A0904125C0B43120613435A46C0
:101160000120136001F0B2FD01F09CFE002900D1C6
:101170003EE1FA220023920002F016FD73E6012000
:1011800001F0A4FD01F08EFE002946D0FA220023D2
:10119000920002F009FD65E553461B680A93002B97
:1011A00000D1C1E0FA212800890002F0BBFC3C21FB
:1011B00002F0B8FC0C000A21200002F0B3FC200071
:1011C000CBB20A21089302F0ADFC8649C4B22800D4
:1011D00002F0A8FC0A2102F0A5FC2800CEB2824948
:1011E00002F0A0FC0A2102F09DFC3B68C9B20A9300
:1011F000002B17D150460368002B00D14BE14B4622
:101200009A5D80231A434B465B5C4946095D120296
:10121000134308984A4609049DE7FA21890002F021
:1012200081FC1FE54B469A5D80231A434B465B5C6D
:101230001202494613434A460898095D125C0904A4
:1012400012060B4313435A460120136001F03EFD82
:1012500001F028FE002900D1BBE0FA220023920011
:1012600002F0A2FC00230A93FDE54B46C9B25A5C8A
:101270008023FA215B42134373702000890002F03F
:1012800051FC3C2102F04EFC0C000A21200002F02F
:1012900049FC2DE54B46C9B25A5C8023FA215B42DA
:1012A000134373702000890002F03CFC3C2102F0E3
:1012B00039FC0C9108000A2102F034FC48E4FA21C0
:1012C000890002F02FFC0C9B0A93CCE528004549CD
:1012D00002F028FC0A9A0C9B6C1A9B1A5801C01A3F
:1012E0008000C018C00040193E4902F01BFC651880
:1012F000FA212800890002F015FC3C2102F012FCC2
:101300000C000A21200002F00DFCCBB2089368E526
:10131000FA21890002F006FC74E4FA21890002F047
:1013200001FC0400FFF7CCFB099B1B68002B72D16A
:10133000FA212800890002F0F5FB3C2102F0F2FBC3
:101340000C000A21200002F0EDFB2000CAB20A21A5
:10135000089202F0E7FB2349C4B2280002F0E2FB46
:101360000A2102F0DFFB2800CEB21F4902F0DAFBAF
:101370000A2102F0D7FB3B68C9B2002B00D03EE740
:10138000504600680A90002800D1A1E04B469A5DC3
:1013900080231A434B465B5C1202494613434A467C
:1013A0000898095D125C09040B43120613435A4660
:1013B0000120136001F08AFC01F074FD0C1E00D1C5
:1013C00099E0FA220023920002F0EEFB00230A9338
:1013D00049E5FA21890002F0A5FB00230A9342E5C2
:1013E000808D5B0060EA0000C02709000080FFFFDD
:1013F000FA21890002F096FB35E5FA21890002F016
:1014000091FB8046FFF791FAFA21890002F08AFBEE
:101410000594040022E45E46FA21AB468900584652
:1014200002F080FB3C2102F07DFB444688460A2105
:10143000404602F077FB6B1E9D414046CBB20A212D
:10144000089302F06FFB2F49C3B25846119302F084
:1014500069FB0A2102F066FB5846CBB22A4998463E
:1014600002F060FB0A2102F05DFBEDB2C9B21AE5A1
:1014700011944446B0465E46AB461D000B9BE41AF1
:10148000224B9C4204D9D02380221B06D2029A61AF
:101490000C9B0A9314E5099800680C90002800D072
:1014A0004FE611944446B0465E46AB460C9DE5E7D8
:1014B00011944446B0465E46AB460025DEE70A9BE3
:1014C0000C93DBE7FA21890002F02CFBFFF7F1FA1D
:1014D000099B1B680C93002BE3D04B469A5D80233D
:1014E0001A434B465B5C4946095D1202134348466A
:1014F000089A09042FE6FA21890002F013FB0A94E6
:10150000B1E4C04660EA0000C0270900204E000098
:10151000F0B5C64600B503F039FB192000F050FBCA
:10152000D026802336069B04736220239846012729
:101530002B4CA04420CC280000F042FB3B00AB40E9
:1015400073624445F6D1072000F03AFB8023062061
:10155000736200F035FB40230520736200F030FB1E
:1015600020230420736200F02BFB102302207362FF
:1015700000F026FB00220121022000F0C5FA04231E
:101580000122B3620C21022000F0D0FA012000F009
:1015900017FB00220121012000F0B6FA02230122EC
:1015A000B3620C21012000F0C1FA002000F008FB1A
:1015B00000220121002000F0A7FA01220C210020C6
:1015C000B76200F0B3FA074800F0DAFA122000F030
:1015D000F7FA8023DB0273627361FFF759F9C046A3
:1015E0006C800010BD03001070B5002204000023C1
:1015F000226163610022184B0726A261E361002289
:1016000020230125E2544B08334063602B000B403C
:1016100008002160A360042100F05EFA290022681E
:10162000D02391401B065962616852088B005B18F9
:101630000A499B008C460A49164063445960B3002E
:101640009B199B0063441A682000154080225201B8
:1016500013431D6070BDC0460000E03F0000054020
:10166000FE0F000010B50400006801210207520FB0
:1016700093009B18064A9B00944663441A681140E5
:10168000802252011343196000F0B8FA200010BD07
:101690000000054070B514001D0006000022200067
:1016A0002900234B02F004FD00283ED00022200038
:1016B0002900204B02F0F4FC002836D03069716913
:1016C00022002B0002F0E4FC00282ED122002B0087
:1016D000346175611848194902F079FC0022184BF1
:1016E00002F063FC02F008FD736880B29C00E4180D
:1016F000144BA400E31870841861134B9C46644497
:1017000002F0E2FCB269F36902F07FFC02F0F4FC43
:10171000B36880B2002B09D00C4A00042368434010
:101720001A4080235B0123431A6070BD084AF5E725
:10173000000059400088D3402D211FF441CF1D41A6
:101740000000F03F000005400C0005400000FFFFD6
:10175000FFFF0000F8B514001D0006000022002362
:101760002000290002F0A4FC002807D0002220005D
:101770002900184B02F094FC002800D1F8BD22008B
:10178000B069F1692B0002F083FC0028F6D1736880
:10179000B461F5619F00FF180F4B708C9C46BF0031
:1017A000674402F091FC2B00220002F02EFC02F0B4
:1017B000A3FCB36880B2002B09D0084A00043B6840
:1017C00043401A4080235B013B431A60D6E7044A3A
:1017D000F5E7C0460000F03F0C0005400000FFFFA9
:1017E000FFFF000020230268C1541207520F93002C
:1017F0009B18064A9B00944663441A685140012294
:1018000011408022520113431960704700000540C7
:10181000F8B5264B8900CC5805002549201C02F05C
:10182000BDFF00283FD02349201C02F0AFFF002855
:1018300039D0201C02F0BAFF2A696B6906000F003C
:1018400002F026FC00282ED132003B002E616F6191
:1018500019481A4902F0BBFB0022194B02F0A5FB04
:1018600002F04AFC6B6880B29C00E418154BA4009F
:10187000E31868841861144B9C46644402F024FC0D
:10188000AA69EB6902F0C1FB02F036FCAB6880B2DA
:10189000002B09D00D4A0004236843401A408023DE
:1018A0005B0123431A60F8BD094AF5E7BC2F00200D
:1018B0000000C84200409C462D211FF441CF1D412D
:1018C0000000F03F000005400C0005400000FFFF55
:1018D000FFFF0000D0231B061B687B4A990052586B
:1018E000F0B5574692465A1E93413022DE464E4688
:1018F00045465B421A401300744AE0B5944683B0F3
:1019000063440193724B884608260F279B46350097
:10191000083DEA081300019908339B005C58002C2D
:1019200022D0012399465346002B27D0390021406D
:10193000274213D05B4642469A584B46AB401A4268
:101940000CD1072208002A40920090400200EB08C8
:1019500060483C339B001A502800D04724090135C9
:10196000002C01D0AE42E1D80836282ECFD103B0EA
:10197000F0BCBB46B246A946A046F0BD39002140A6
:10198000274206D00133AB404546514840591842E2
:1019900076D02309E8D00F22110019401A420DD049
:1019A0004546F31F0E3A9A4049484059104205D126
:1019B000DB08484A3C3309019B009950230AD3D0E5
:1019C0000F22110019401A420DD04546B31F0E3A9E
:1019D0009A403F484059104205D1DB083D4A3C330C
:1019E00009029B009950230BBED00F221100194011
:1019F0001A4236D1230CB7D00F22110019401A42D7
:101A000043D1230DB0D00F22110019401A424BD1FF
:101A1000230EA9D00F22110019401A420DD04546BD
:101A2000B31E0E3A9A402A484059104205D1DB08AD
:101A3000284A3C3309069B009950240F721E002C43
:101A400000D191E7012340469340214909581942AA
:101A500000D089E7D3083C331E4A24079B009C50E2
:101A600082E74546731F0E3A9A4019484059104282
:101A7000C0D1DB08174A3C3309039B009950B9E7F2
:101A8000144B3C329200D15083E74546331F0E3A47
:101A90009A400F4840591042B3D1DB080D4A3C33FD
:101AA00009049B009950ACE74546F31E0E3A9A4054
:101AB000074840591042ABD1DB08064A3C330905C0
:101AC0009B009950A4E7C046144200200041014009
:101AD000CC46002000400140094A10B594464024FD
:101AE000830063441A68C00062408034144080223E
:101AF000520113431C60034B9C466044416010BD7F
:101B000004C0014000400140074B80009C466044F7
:101B10000368C90092000A435A400C231A408023EC
:101B20005B0103431A60704704C00140D0231B06C9
:101B30001B6830B50500584243412F205B42834368
:101B40000D48EC0884460720284080008140200092
:101B50000A4D3C3063448000A40041511B19002A07
:101B600004D0802292011343196030BDC02292013B
:101B700013431960F9E7C04630410140004001407D
:101B8000D0231B0670B51C680B4EA400335905000A
:101B9000002B03D000280AD0355170BD0028FCD09E
:101BA000305100220D20054900F052F9F5E70D20D3
:101BB000024900F047FAEFE714420020D518001060
:101BC0000123D0228340120693629361094A402187
:101BD0009446830063441A68C0004A408031114033
:101BE0008022520113431960034B9C460523604435
:101BF0004360704704C0014000400140094A402151
:101C00009446830063441A68C0004A408031114002
:101C10008022520113431960034B9C461F236044EA
:101C20004360704704C001400040014070B5EFF3CD
:101C3000108C72B60D4D2B68002BFCD0BFF35F8F5C
:101C40000724CB08C618C05C01230C40A3401C002D
:101C50000440034207D118433070BFF35F8F2C60FC
:101C60008CF3108870BD100001F0CCFC2C0100D06A
:101C7000F8B54746CE46884680B5EFF3108C72B66D
:101C8000214D2C68002CFCD0BFF35F8F9A422CD8DA
:101C9000D4080727055D061901241740BC402C42D3
:101CA0001FD007210127894609E0D408055D0619E0
:101CB0004C4639001440A1400C00294211D0013299
:101CC0009342F2D201204042BFF35F8F00220E4BBD
:101CD0001A608CF3108800280FDBC0BCB946B046F0
:101CE000F8BD254310003570EEE7BFF35F8F00238A
:101CF0002B608CF31088012040424346002BECD02F
:101D0000089801F07FFCC0462C0100D0024B1868F7
:101D10008007C00F7047C04600C006400021044B3A
:101D2000044ABFF35F8F02C39342FAD17047C046A3
:101D3000000100D0800100D0044A1078431CDBB2BF
:101D4000172B00D9102313707047C046BC310020F8
:101D500010B5064B064C82B00100009318221F23D9
:101D60002000FFF785FF02B010BDC0468C80001038
:101D70001C42002001238340002904D0034A136041
:101D8000034A13607047034A1360FBE780E200E0F8
:101D900000E100E080E100E001228240034B1B688B
:101DA00013405A1E9341D8B27047C04600E100E08C
:101DB00001238340014A13607047C04600E200E0FF
:101DC000084B10309B688000C358002B07D0064A90
:101DD00000209B1A2F229A424041C0B27047002037
:101DE000FCE7C04600ED00E0C0310020024B10309F
:101DF0009B688000C058704700ED00E070B50D0092
:101E0000EFF3108672B60F4A1368002BFCD0BFF3B5
:101E10005F8F0D4B10309B6884001B590B4A934217
:101E200003D09D4201D001F005FC074B9B681D517A
:101E3000BFF35F8FBFF35F8F0022024B1A6086F300
:101E4000108870BD240100D000ED00E0CD0100102D
:101E5000F0B557464E46DE464546E0B585B006002D
:101E600000911700EFF3108B72B66B4A1368002BCA
:101E7000FCD0BFF35F8F0025684B5D579A46002D5D
:101E800000DA8CE06B00664C01935B199B0098466E
:101E9000A146C1444B4652469B7910361370614BA4
:101EA000B6009B6899590B1B2F2B33D95E4B994277
:101EB00000D0ADE0019B42469C465C4B6544AD00C2
:101EC00063535B4B0232A218043B9B1A1B05594A11
:101ED0005B0D651913436B80574B0121AB80FF23CA
:101EE000AB71009BEF71AB604B460B4319004D4B40
:101EF0009B689951BFF35F8FBFF35F8F0022464B02
:101F00001A608BF3108805B0F0BCBB46B246A946F8
:101F1000A046F0BD01200A008243D3798C46BB4223
:101F200031D84546130045491B1B5B415943090DF8
:101F30003E4B63533E4B02356519043B5B1B1B054F
:101F40003C4D5B0D2B43AA464D466B800425AC46A9
:101F50005546E044131F44441B1B1B055B0D1D43EA
:101F60004B46997100999D8099604946DF71344BC9
:101F700001431360BBE75800C01880002018C179E6
:101F8000B94212D902000623D356002BF3DA02938A
:101F9000131D9A46BD231B026146039319E001F00D
:101FA00049FB002553465D576CE790880293400536
:101FB000131D9A46031561469C464046D444634629
:101FC00004302018181AE0230005400D1B021843A6
:101FD000039004235B429C46E14450464B461B1A47
:101FE0001B055B0D9C46134B957198466346404616
:101FF00003439380019B5A199200039BA418A3806A
:10200000029B0F4AA371009B2260E771A3606EE7F9
:1020100001F010FB4EE7C046240100D01B47002012
:10202000C031002000ED00E0CD01001000A1FFFF55
:10203000F031002000E0FFFF00BDFFFFAAAA000072
:1020400001488047F0B5DE4657464E464546E0B566
:102050000C0083B0EFF3108A72B6604A1368002B4D
:10206000FCD0BFF35F8F1022914681444A465C4BFF
:1020700096009B689D595B4B98469D4205D0A542B2
:1020800016D0594FEB1B2F2B14D9554B9B689D51E4
:10209000BFF35F8FBFF35F8F0022504B1A608AF34C
:1020A000108803B0F0BCBB46B246A946A046F0BDBE
:1020B0001D00EAE7012383409B465A464B4B1B68B1
:1020C0001A4000925A464A4B1A60BFF35F8FFEF7E0
:1020D000CAF8031E01901DD12A0001339A4390686B
:1020E000844208D171E04B005B189B00FB18986894
:1020F000A04245D01A00062151560029F3DA844245
:102100006AD0009B002B34D05A463A4B1A60374BAA
:102110001A60BAE7814530D12A0001239A439068BA
:102120008442E8D1062151561300002940DB4A00C1
:10213000501880003C188046A0689860E079D871FB
:1021400006202056987100282FDBA488F81A640511
:10215000241544440019E0240005400D24022043C6
:1021600098805318244A9B001078FB1898711170BE
:10217000C7E75A461E4B1A6087E701F05BFACBE7C8
:10218000062159560029D2DA0199002910D1FF31D0
:1021900091711A49918018490A789A71184ADB1B83
:1021A0005B415A43120D0A70ABE7BD200002D7E72E
:1021B000144A1549D21A083A5002400D0143998039
:1021C000124952080A43DA809BE706215156130050
:1021D0000029ACDA4546DEE71300D5E7240100D03C
:1021E00000ED00E0CD010010C031002000E100E072
:1021F00080E100E080E200E01B47002000BDFFFF1F
:10220000AAAA0000FA31002000F0FFFF00F8FFFF4B
:10221000F8B5012504000543FEF725F8EFF3108C0F
:1022200072B6214A1368002BFCD0BFF35F8F1F4E9C
:102230002100B7681E4A1F4B891A49414B431B0DA9
:1022400059B28300F858A8421CD00623D3568B42BB
:102250001CD01223D3568B4222D01E23D3568B423E
:1022600020D02A23D35603208B4210D0124B1A7849
:102270001970A271BFF35F8F00220B4B1A608CF3B1
:102280001088F8BDB2680D48D050EFE70020430039
:102290001B189B00D218FF239371094B9380E5E72D
:1022A0000120F4E70220F2E7240100D000ED00E075
:1022B000C0310020AAAA00001B470020CD01001059
:1022C00000BDFFFF054B064A1360064A13605360CA
:1022D0009360D36013615361936170478080808005
:1022E00000E400E004E400E0D02300B51B061B6816
:1022F0000100074883B01818064B002200930523FD
:10230000FFF7B6FC002801DB1F23181A03B000BD3D
:1023100010470020A880001070B504000E001500C2
:10232000FFF70AFD0100200000F006F8A680E58016
:10233000BFF35F8F70BDC046024B9C46614489006D
:10234000016070474000003483680B4810B5844634
:10235000614462441201090159189B185C684A687B
:102360000120944201D802D00020C0B210BD1A68EA
:102370000B689A42F9D8F7E7FFFFFF0F10B5080086
:102380000B690C009847002802D02068616810BDD6
:10239000E06000210020FAE70A4B1968EFF3108093
:1023A00072B60A68002AFCD0BFF35F8F1B68BFF3C8
:1023B0005F8F00221A6080F3108840BF0020002148
:1023C0007047C046E0460020F8B5574645464E46A1
:1023D000DE46E0B598460CAB1C780DAB1B780700C9
:1023E00091469A460568002C5ED1AC7B002C3BD010
:1023F000660029683619033E89194B78AB73002BA8
:1024000000D1EB7300238B704B700B702D4BE218D7
:10241000BB6812019B184A461A6042465A600A9AE3
:102420009A600B9ADA6000238B704B700B706B7B99
:102430009B46002B2BD022005946A8686B68984712
:102440002A68002816D05B4658465B005B44961904
:10245000033BB070D118D35C002B00D073705B4687
:102460000C706B735C4513D0F0BCBB46B246A946FA
:10247000A046F8BD5B465B005B44033BD3189C70F1
:102480009119925D002A00D05A705B460B706C73F4
:102490004A464346387D00F065FD051E0AD10E9B75
:1024A000002BE1D01D70DFE7660029683619033E76
:1024B0008919ABE75346002BF1D12100386800F0B1
:1024C000A7FFECE7FFFFFF0FF0B5DE4657464E468D
:1024D00045460023E0B58DB00A936A4B8200D75879
:1024E00000239B460B9000F0DDFC02000B00786897
:1024F000EFF3108972B64D4601680029FCD0A94659
:10250000BFF35F8F39684E7B8C46002E2ED0BC689F
:102510005D49A246711809018A4451460868496814
:1025200004000D00A41A9D41002D5EDD02000B0089
:102530000B9800F017FD002300229A460023089212
:102540000993002398467B68BFF35F8F5A461A6051
:1025500089F310884346002B12D10028C3D10DB057
:10256000F0BCBB46B246A946A046F0BD00230022FF
:102570009A46002308920993002300209846E2E738
:102580000A9B514618023043C047069007917A686B
:10259000EFF3108572B654461368002BFCD0A246A8
:1025A000BFF35F8F0699079A002A3BDB114302D0E5
:1025B0003B69002B52D13B68D97B002905D01A68B2
:1025C000480041185218033A5670DE73FA68013E0B
:1025D000935D013393555B463B617B68BFF35F8F2F
:1025E0005A461A6085F310887DE7002D01D1002C32
:1025F0009CD10021604600F073FE53465C681B6866
:102600000893099453469B6898465346DB689A465C
:10261000FB689B19013B1B780A931B0203433B6138
:10262000002090E73B69002BC5D0089B099C5B1AF2
:102630009441089809991A002300A14219D8994297
:102640001BD0002104910131039151460191414673
:10265000380002960091FFF7B7FEBCE700F022FCBD
:10266000069A079B12184B41994202D8E9D1904231
:10267000E7D901225242D317E3E708999142E0D902
:10268000F7E7C046BC460020FFFFFF0FF8B55746EE
:102690004E464546DE46E0B5404D824689466A686C
:1026A000EFF3108872B61368002BFCD0BFF35F8F76
:1026B0002E68B47B002C48D0670033683F19033F75
:1026C000DB195A78B273002A00D1F273344AA11888
:1026D000AA680901521851461160494651603149B2
:1026E00091600021D160997059701970737B9B467D
:1026F000002B45D022005946B0687368984732686D
:10270000002830D05B4658465B005B44D719033B3A
:10271000B870D118D35C002B00D07B705B460C7076
:1027200073735C452DD00026EB681B19013B1978AB
:102730006B68BFF35F8F00221A6088F31088002057
:10274000002E0AD10802204307E06B68BFF35F8FB9
:102750001C6088F3108801204042F0BCBB46B246A2
:10276000A946A046F8BD5B465B005B44033BD3181B
:102770009C70D119D25D002A00D05A705B460B7054
:10278000747352464B46287D00F0ECFB061ECAD0FF
:102790002100286800F03CFEC6E7C0460832002051
:1027A000FFFFFF0F9923001010B5124C6368002B38
:1027B00004D00A211048FFF7BFFD10BD23000F4AC7
:1027C0001021206800F08CFC032000F05FFB032048
:1027D00000F036FC03200A4900F07EFBFFF7ACFA5C
:1027E000084B9C46032360442375074B80006060C0
:1027F000DC60DEE708320020E046002049230010BC
:10280000C924001040000034BC4600200048704736
:1028100008320020F0B557464E464546DE46E0B544
:1028200085B0019310AB1B780600039300239A46F2
:10283000984600927268EFF3108B72B61368002B03
:10284000FCD0BFF35F8F3568AC7B002C6BD067008A
:102850002B683F19033FDB195A78AA73002A00D16D
:10286000EA73524AA118B2680901521800980199F6
:10287000106051600E9991600F99D16042469A7034
:102880005A701A706B7B9946002B00D175E02200BC
:102890004946A8686B6898472A68002860D04B466C
:1028A00048465B004B44D719033BB870D118D35C42
:1028B000002B00D07B704B460C706B734C455DD089
:1028C000F3681B19013B18787368BFF35F8F4246AA
:1028D0001A608BF310885346002B08D10002204366
:1028E00005B0F0BCBB46B246A946A046F0BD039B6E
:1028F000002B59D00E9B00200F999847030004002D
:102900000D000B4350D0002916DA009801990200FF
:102910000B00121BAB4199421CD83CD00092019392
:10292000039B9A4686E77368BFF35F8F1C608BF347
:10293000108801204042D3E700F0B4FA02000B00F7
:10294000A4185D4100940195A94203D8E8D10099EB
:102950008A42E5D901235B42DC1700930194DFE74B
:102960004B465B004B44033BD3189C70D119D25D9E
:10297000002A00D05A704B460B706C73307D009A61
:10298000019B00F0EFFA8246002899D021003068C0
:1029900000F03EFD94E700999142BFD901235B42CC
:1029A000DC1700930194BBE7002099E7FFFFFF0FBE
:1029B000F0B557464E46DE4645461100E0B585B0B7
:1029C00006009C46109F194300D1F9E06146DB17D1
:1029D0000193009353401C00019B4B401D00009845
:1029E0000199241A8D4163460E997B600F9B3A60D2
:1029F0007B61BE60396100F055FA02000B00A4183B
:102A00005D4100940195A94200D9E3E000D1DDE0E9
:102A100000239846744B1097039300239946109B0C
:102A20003700464698467A68EFF3108B72B6136803
:102A3000002BFCD0BFF35F8F3D68AC7B002C00D136
:102A400074E063001B19033B1A00944602932B6841
:102A500063445A78AA73002A00D1EA73634AA11822
:102A6000BA680901521800980199106051600399E1
:102A700091604146D1604A469A705A701A706B7BD9
:102A80009A46002B00D184E022005146A8686B686A
:102A900098472A68002800D16DE053465B005344F4
:102AA000033B9C46D1185346029810188370634626
:102AB000D35C002B00D0437053460C706B73350011
:102AC000544567D0FB687A681B19013B1B78BFF33C
:102AD0005F8F494611608BF31088002D0CD147465B
:102AE0001B02234301352800FB6005B0F0BCBB4648
:102AF000B246A946A046F0BD434640461B699847EA
:102B0000061E1FD042461468556822002A4367D02B
:102B1000002D1ADA0098019902000B00121BAB413C
:102B2000994222D843D0009201937CE73E00474669
:102B30007368BFF35F8F1C608BF31088012300253F
:102B40005B42D0E747460023CDE700F0ABF9020037
:102B50000B00A4185D4100940195A94205D800D04E
:102B600061E700998A4200D85DE701235B42DC17E8
:102B70000093019457E753465B005344033B02988C
:102B8000D3189C701118125C002A00D05A7053465A
:102B90000B706C73387D009A019B00F0E3F9051E01
:102BA00000D18FE72100386800F032FC8AE70099F5
:102BB0009142B8D901235B42DC170093019432E7BC
:102BC00000230124002501229C460CE700998A423B
:102BD00000D81DE701235B42DC170093019417E73F
:102BE0004746050000237EE77D230010FFFFFF0F0F
:102BF000F0B504000D0006267642F717C6463619D2
:102C00006F4100B58F4213D810D000F04BF932005D
:102C10003B00121A8B41002B14DC002B37D029000B
:102C2000200000F049F980BCB846F0BD8642ECD9DE
:102C30000026002700F036F932003B00121A8B41C3
:102C4000002BEADD30003900FFF720FD0028E6DB2D
:102C500000239846BC460F4A0F4F7B6A9C4504D818
:102C6000B96AB142DBD29C45D9D11168EFF310802B
:102C700072B60B68002BFCD0BFF35F8F1368BFF3F5
:102C80005F8F4146196080F3108820BFE5E7002A76
:102C9000C5D0D7E7E04600200040054070B50400ED
:102CA0000D0000F0FFF802000B0020002900801842
:102CB00059418B4205D802D0FFF79AFF70BD82427E
:102CC000FAD901204042C117F6E7C04670B50600A8
:102CD00000F0E8F8FA2204000D0000233000002183
:102CE000920001F011FD001969418D4205D802D012
:102CF000FFF77EFF70BD8442FAD901204042C11720
:102D0000F6E7C046F8B5CE46474680B505000C004C
:102D1000FFF7BCFC031E0CDC2C4A0020536A9C42CB
:102D200003D8926A0130AA423ED3C0BCB946B0462D
:102D3000F8BD20BF264E7168EFF3108772B60A689F
:102D4000002AFCD0BFF35F8FDAB294463068427B32
:102D5000624533D0FF2201681A40894651008846F7
:102D600049469044414403398978002921D0F168CB
:102D70001B0A8A18013A1278DBB29A4221D0736892
:102D8000BFF35F8F00221A6087F310880F4B00207B
:102D90005A6A9442C9D89B6A0130AB42C5D2A01A84
:102DA000431E9841C0B2C0E7E31A5A1E9341D8B2FD
:102DB000BBE732699342E2D13161E0E7FF221A407A
:102DC000D5E7614600F024FBD9E7C0460040054046
:102DD00008320020F0B5D6464F464646C0B5EFF360
:102DE00005823F23134018001038EFF3108C72B6A1
:102DF00020490A68002AFCD0BFF35F8F0122170028
:102E000087401D4C1600A24667631C4C2578A046DF
:102E10002C00C4402640224215D05246566A184A19
:102E20008400A258964218D34246164BBD43E3583D
:102E30001570BFF35F8F00220A608CF31088002B9F
:102E400006D0984704E0BFF35F8F0E608CF31088C4
:102E5000E0BCBA46B146A846F0BD0B4A9B0090467E
:102E600043441A681A60BFF35F8F00230B608CF332
:102E70001088EDE7280100D0004005401E470020E3
:102E8000EC460020F0400020D03F054010B5034B39
:102E900001001800024AFEF7C9FE10BD1A470020C3
:102EA000C4800010034B596A0A00986A596A8A4222
:102EB000FAD1704700400540064A536A9942FCD84F
:102EC00007D1044B02E05A6A914202D19A6A8242C7
:102ED000F9D370470040054070B504000D00EFF3D2
:102EE000108672B61A4A1368002BFCD0BFF35F8FAE
:102EF000002D1BD02000FEF779FF164981420AD031
:102F00002000FEF77BFF01212000FEF733FF0123A5
:102F1000A340114A1360114BA400E550BFF35F8F2B
:102F200000220B4B1A6086F3108870BD0121A1406E
:102F30000A4BA200D5500A4B20001A788A43054953
:102F40001A70FFF77FF800212000FEF713FFE5E776
:102F5000280100D0D52D001038600540F040002039
:102F60001E470020F0B54F46D6464646C0B507007E
:102F70002E4C616A0D00A66A616AA942FAD18B42A1
:102F800008D805D00120E0BCBA46B146A846F0BD3D
:102F9000B242F7D9EFF3108A72B6254801680029CA
:102FA000FCD0BFF35F8F0125BD4022491F4C8846EE
:102FB000097889462943C9B28C4641466046087063
:102FC000391D890065630A511B49B8004350216AC5
:102FD0000020294219D0616A0800A66A616A81420C
:102FE000FAD18B4219D801D1B24216D8CC450BD0B8
:102FF0000E4B1F221D625D6301233A4093400F4A2E
:10300000136043464A461A700120BFF35F8F0022C7
:10301000074B1A608AF31088B5E70020BFF35F8F73
:103020000022034B1A608AF31088ACE70040054089
:10303000280100D01E470020EC46002080E200E07E
:10304000EFF3108C72B60A490B68002BFCD0BFF36B
:103050005F8F01238340074A0748136202789A432F
:103060000270BFF35F8F00230B608CF310887047F2
:10307000280100D0004005401E47002070B5050023
:103080000E001400002923D0002A12D080686B683B
:103090009847296800280ED063001B197200033B73
:1030A0009219CB18033A9E7088188A5C002A11D1B5
:1030B0000470300070BD73009B196200033B12194D
:1030C000CB18033A9C7088188A5C002A05D10670D8
:1030D0002000EFE75A700470EBE75A700670F7E7CC
:1030E00030B583600023CCB2437301330473426074
:1030F0008373C4730D000068012C06D9421C013390
:10310000DBB2137003329C42F9D1FF2129404B00FE
:103110005B18C01800230338437030BD70B505003C
:103120000C1E07D0630001681B19033BCB185A78AB
:10313000002A01D1200070BD500080180338091802
:1031400000204E784870210058702800FFF796FF45
:10315000310004002800FFF7E1FF0600002C26D014
:103160000028E7D021003200A8686B6898472968DA
:1031700000280ED073009B196200033B1219CB1874
:10318000033A9C7088188A5C002A00D05A70067036
:10319000D0E763001B197200033B9219CB18033A66
:1031A0009E7088188A5C002A00D05A70047034001F
:1031B000C0E7C046F8B557464E464546DE464C0089
:1031C000E0B5641817000268033C0500105D131990
:1031D0000E009C46002852D0430098461B18033B23
:1031E000D31859788A46002919D1002F0CD0EC7BCE
:1031F000002C50D063001B19D318033B5E70EE7394
:10320000434619180339531800229A700023624666
:103210005370F0BCBB46B246A946A046F8BD490073
:10322000514403395218517888460021517089461B
:103230005970524601002800FFF720FF434682469E
:10324000002B07D05B0029684344033BCB185A7816
:10325000002A2CD1514642462800FFF70FFF0100FB
:10326000002F1AD0A4462A68EF7B9444002F04D084
:103270007B00DB19D318033B5E70EE7310E0002F68
:10328000C4D0E97B002910D04B005B18D318033B56
:103290005E70EE73BAE7EE73B6E7A4462A6894440C
:1032A0000029B3D04B009846AAE7EE73AEE7500072
:1032B0008018033809184878834648464870587083
:1032C00041462800FFF7DAFE594680462800FFF7FE
:1032D00025FF414602002800FFF7D0FE8046B9E7EF
:1032E000F8B557464E464546DE46E0B5467B026891
:1032F0007500AD19033D0F00515D531904009C4644
:10330000002953D04B0098465B18033BD3185878DC
:10331000824600281BD1002F0CD0E57B002D51D018
:103320006B005B19D318033B5E70E6734346581875
:103330000338131800229A7000236246300053703D
:103340006173F0BCBB46B246A946A046F8BD40003A
:10335000504403381218507880460020507081463F
:10336000587052462000FFF789FE43468246002BE4
:1033700007D05B0021684344033BCB185A78002AEE
:103380002CD1514642462000FFF778FE0100002F65
:103390001AD0AC462268E77B9444002F04D07B000F
:1033A000DB19D318033B5E70E67310E0002FC3D027
:1033B000C07B002810D043001B18D318033B5E705D
:1033C000E673B9E7E673B5E7AC4622689444002893
:1033D000B2D043009846A9E7E673ADE750008018E5
:1033E0000338091848788346484648705870414663
:1033F0002000FFF743FE594680462000FFF78EFE6F
:10340000414602002000FFF739FE8046B9E7C0467A
:1034100070B5050000292CD0437B8B422ED04C0088
:1034200000686418033C0419A278002A21D05300D4
:103430009B18033BC25CC6188A4202D11BE0002ADB
:1034400008D053009B18033BC3185A788A42F6D120
:1034500062785A70002301222800A3706370FFF77E
:10346000A9FE697B02002800FFF708FE68730120AF
:1034700000E0002070BD63783370EBE70122190093
:10348000FFF798FEF2E7C04610B50400FEF754FCC3
:1034900001002000FEF750FFFF232371BFF35F8F71
:1034A00010BDC04610B50400FEF746FC0100200028
:1034B000FEF742FFFF23A380BFF35F8F10BDC0461E
:1034C00010B504000120FEF743FC034BC3189B001A
:1034D0002360BFF35F8F10BD400000342C4B2D4A9A
:1034E00070B51A602C4A2D4B2D491A6014008B6858
:1034F0009C43FBD12B4D2C4EB54208D2013E761B8E
:10350000B60808CD984723000134B342F9D100F042
:1035100097F8264A214B1A60214A9368DB43DB0166
:10352000DD09002BF9D14022214B224C224E9A6713
:103530005A671A67DA66B44208D223682000002B63
:1035400020D00834FFF7AEFFB442F6D31B4C1C4E1C
:10355000C022B168200001F0CFF9B460FEF7DEFBB5
:10356000FEF7B0FEFFF720F9164C174EB44208D212
:10357000013E361BB60808CC98472B0001359E4209
:10358000F9D170BD0834FFF77FFFB442D5D3DDE732
:1035900000E00040BFCDFBFEFE7F3C0000F000409D
:1035A00000C00040D8370020E8370020FFFFFF01AF
:1035B00000F00140C8370020D8370020000000206C
:1035C00000ED00E0E8370020F0370020094A030052
:1035D0001068002805D00849C3188B4207D813602B
:1035E000704706480449C31810608B42F7D9012080
:1035F0004042F5E7944200200000042020470020CC
:1036000000BEFDE70FB400B5084883B001F032FA00
:10361000049B002B07D005A91800019100F030FA97
:10362000034801F027FA00BEFDE7C046E88000101D
:10363000F880001010B50148FFF7E4FFFC8000108F
:1036400010B50C2082B000F0A9F9FEF75FFB00284E
:1036500010D0864B86488649864A18605960986023
:10366000D960186159619861D961186259625A62CA
:1036700002B010BD804CA06700F0E6F901227F4B3C
:103680001A60636C012BFCD103227D4B1A607A4ACD
:10369000936B012BFCD1013301217A4A7A480093C4
:1036A000043300F027F90523784A00930121784874
:1036B00000F020F9774B5A68FF2A02D88022520086
:1036C0005A6080226E4B694C12011A6021690029F0
:1036D00005D0606900F026FA01300138FDD1E02202
:1036E0006C4B6D4819680A4002600222196851400B
:1036F00001320A40042102609A681142FCD0802104
:10370000664A09011160802252005A60644B2361AD
:10371000644B5968FF2900D85A6003220121574B96
:103720001A60604A93681942FCD0E0231068034095
:103730005D480360126803234A4002211340594A3E
:10374000036093681942FCD08021584B090119602D
:103750008021574B490051606361564B5A68FF2ADC
:1037600000D859608022544B12011A60E169002987
:1037700005D0606900F0D6F901300138FDD1E023B1
:103780004C4A11680B404D490B6080214C4B09019C
:1037900019608021364B49005160E361494B5A68FA
:1037A000FF2A00D859608022474B12011A60216A13
:1037B000002905D0606900F0B5F901300138FDD16C
:1037C000E023404A11680B4040490B608021404B88
:1037D0000901196080235B0053608022244BD202D0
:1037E00023623C4B5968914200D25A6080223A4B86
:1037F00012011A60616A002905D0606900F092F92F
:1038000001300138FDD1E023324A11680B403349C1
:103810000B608021324B090119608023DB02536069
:10382000144B63622F4B5A68FF2A02D88022520041
:103830005A6080222C4B12011A60A169002905D020
:10384000606900F06FF901300138FDD1E023254AAD
:1038500011680B4025490B608021254B0901196037
:1038600080235B005360124BA36101E7F037002017
:10387000006CDC021BB70000008000403CB0004040
:1038800030B00040002F685900800240008C86470D
:1038900000C00240308000403090004030A0004026
:1038A000001BB7003C8000403C9000403CA0004022
:1038B000405973075480004054B000405490004079
:1038C00054A000406080004060B000406090004024
:1038D00060A000406C8000406CB000406C900040E4
:1038E0006CA000404880004048B000404890004034
:1038F00048A00040F8B504000C2017001D000E0081
:1039000000F010F943011B1A9901C91AC9000918DE
:103910008901380000F006F9069B29041B031943AE
:103920002368002B20DB194B194DE3185A425341F1
:103930008022520194461B03164A63441360164AC0
:1039400013601F00AA689743FBD1C023221D9B016F
:10395000134321222660A0601A602268002AFCDA44
:103960000822E1601A60F8BD3F2322681340B34289
:10397000D9D1A3681B051B0D8342D4D1EE22E36885
:10398000D20213408B42CED1EDE7C0460040FDBFCE
:1039900000C0004000E0004000F000408023024AE8
:1039A0009B000343D36270470080054010B580241C
:1039B0001C4BE4051C6000281AD001231A4C184344
:1039C0001A4BDC611A4C44401C6259629862802197
:1039D000144BC9051960174817490860E021C9044C
:1039E0001960002A07D18022144B12061A6010BDFC
:1039F0000E4BD861EBE753019B1A9B009A1880236A
:103A000012015B049A4209D213000D490B60074B67
:103A10005A608022094BD2051A60E8E7094B1A0068
:103A2000F3E7C04600B00540D3C007B000800540B2
:103A30002D3FF84FFCFF01000820014000A0054089
:103A40009C460020FFFFFF00AA23064A1B011360CB
:103A50002F230549D360054B19605368002BFCDA0E
:103A60007047C0460040024000B0FA0000600240CB
:103A700010B5002800D110BD00F0AAFFFBE7C0463A
:103A800010B5094A0300146884B0002C08D0012244
:103A900000910648524203A9A047012004B010BD7E
:103AA00000F0E8FF0020F9E798460020713A001086
:103AB00001480421014B184730320020E13A001040
:103AC000142310B50100188804331B88984710BDD3
:103AD000162310B50100188802331B88984710BDC3
:103AE000F8B54746CE4680B50F1E19D01423994627
:103AF000043304000025012698464B4618884346A7
:103B000021681B88984701C4431E984101354042F3
:103B10000640AF42F1D13000C0BCB946B046F8BD56
:103B20000126F8E7114A936F9B0813D2106651667D
:103B3000002905D0FFE7FFE7FFE7516F106F7047DF
:103B400004B5002801D00020C04304F09DF90021F5
:103B500004BDC046F0B5146E556E576F166FFFF773
:103B6000E5FF1466556657671667F0BD000000D084
:103B700094464E4A926F9208624601D230E0C046A7
:103B8000F0B54A4EB56F6D08FCD3346E756E776F25
:103B9000366F00F025F89446444A14665566576718
:103BA00016676246F0BDC0469446404A926F92083E
:103BB000624601D258E0C046F0B53C4EB56F6D0884
:103BC000FCD3346E756E776F366F00F04DF8944607
:103BD000364A14665566576716676246F0BDC0469A
:103BE000002B24DB11D000293EDA00B5C943404246
:103BF00000D1013100F038F8C943404200D1013111
:103C0000DB43524200D1013300BD002AEBD1002832
:103C100001D1002905D00020C90FC90701D1C04337
:103C2000410800B504F028F90022002300BD00B5CA
:103C300000290ADBDB43524200D1013300F014F8C3
:103C4000C943404200D1013100BDC943404200D1C7
:103C50000131DB43524200D1013300F005F8DB4370
:103C6000524200D1013300BD002923D1002B18D1CD
:103C7000002A0CD0BC460D4F38667A66002100231E
:103C8000FFE7FFE7FFE77A6F386F67467047002866
:103C900001D00748010000B504F0EEF8002200232F
:103CA00000BD02000B00002000217047000000D082
:103CB000FFFFFFFF002B00D0BFE0130C28D1002A2C
:103CC000E7D080B4114F39667A66FFE7FFE730B47A
:103CD000040C7B6F396F1B0423433B667A66FFE756
:103CE000FFE7FFE7C04684B27B6F3D6F1B042343B1
:103CF0003B667A66FFE7FFE7C04600232C042D0CE5
:103D00007A6F386F00196941B0BC7047000000D06D
:103D1000F0B594460025140E01D112020835140F97
:103D200001D112010435940F01D192000235D40F54
:103D300001D152000135D40B0134254F7C66254C4E
:103D40003C660E0C93B2FFE7FFE7FFE73C6F66436C
:103D5000360C7703BE467343DF0B5B04C01AB941D0
:103D6000130C7343DB18C91ACE086643360CB644ED
:103D700093B273431F0F1B01C01AB941130C734355
:103D80001F0B1B05C01AB941860D8F023E436643C7
:103D9000360C092D24DB520A7243801A7703460A37
:103DA0006643360C16235B1BDE40DF40BF196446BA
:103DB0006643821B7046043506330100D940A84093
:103DC000C01900D30131A24206D20023F0BD000089
:103DD000000000D0FFFFFFFF121B0130F3D3F1E71B
:103DE00009277F1BFE406446A2B27243801A00D2AC
:103DF0000139220C7243130C1204821A99410B00F0
:103E00007046043513370100F940A840801900D3EB
:103E10000131002B02D1A2420AD2F0BD013000D301
:103E20000131121BFAD2013BF8D1A24200D2F0BDFF
:103E3000013000D30131121BF7E7F0B51C0C00D0A4
:103E400080E00CB400251C0A04D11B02160E33437B
:103E5000120208351C0B04D11B01160F334312014B
:103E600004359C0B04D19B00960F3343920002351E
:103E7000DC0B02D192185B4101351C00971864419C
:103E80000134464F7C66464C3C660E0CFFE7FFE76C
:103E9000FFE7C0463C6F6643360C7703BE4697B2D9
:103EA0007743C01B00D20139C01B00D201399FB239
:103EB0007743C91BC91B170C77437E04FF0B801B7C
:103EC000B941CE086643360C0C2D33DBB644120BD9
:103ED0001F053A431B0B97B27743C01B00D2013931
:103EE0009FB27743C91B170C77433E043F0C801BDE
:103EF000B941860D8F023E43664329277F1BFE4052
:103F00000C3D7746AF40BF1930BCA2B2ABB2724392
:103F10007343801A9941220C7243130C1204801AC5
:103F2000994102000B000137001BA941F9D2781E0C
:103F30000021F0BD0C277F1BFE4077467F0BAF4072
:103F4000FF19E0E700245D1C07D0144F7D66396639
:103F5000FFE7FFE7FFE7FFE73C6F95B29EB26543DF
:103F60006643401BB141150C1E0C65436643360485
:103F70002F0C3E432D04401BB141994204D2020054
:103F80000B0020000021F0BD01D19042F7D3801A30
:103F9000994101349942F2D3F6E70000000000D0C5
:103FA000FFFFFFFF48404140484018B41B4B5B688F
:103FB000FC46019308BD04DFDB41001018B4174B29
:103FC0001B68FC46019308BD00DFE54100109446E4
:103FD000134A926F920809D2624618B40F4BDB68FD
:103FE000FC46019308BD0CDF9D4400100C4AF0B55F
:103FF000146E556E576F166F6246FFF7EEFF084A54
:104000001466556657671667F0BD18B4034B9B6876
:10401000FC46019308BD08DF414300102039002011
:10402000000000D0FFB550404240504059404B4046
:10403000594000E0FFB5154F4C00640D03D0BC4261
:1040400004D10C0314D80020090D09055C00640D8F
:1040500003D0BC4204D11C030AD800221B0D1B054F
:1040600001264B4009D44B4003D58B4200D18242FC
:10407000FFBD9942FCD19042FFBD0B43DB180343C7
:104080001343F5D0C9434918FFBD0000FF070000E6
:1040900000B5FFF7CFFF01D0002000BD012000BD1B
:1040A00000B5FFF7C7FF01D9002000BD012000BD0A
:1040B00000B5FFF7B7FF01D9002000BD012000BD0A
:1040C0000021002805D17047C1174840401AFAD096
:1040D000C90713B5064B1B6898470CBC441CA2408B
:1040E0001005120B0349091B09051943114310BDA3
:1040F000DC4600201F04000018B4044B5B6AFC4639
:10410000019308BD24DF4D46001000002039002037
:10411000132370B51D78012D15D010DD1D48FFF754
:10412000D7FC1D4C01008022200000F0E5FB022D91
:104130002DD01A48FFF7C4FC194B186070BD194BFD
:10414000154CA364F5E7174B134C23606360A36021
:10415000E36023616361A361E36123626362A3623D
:10416000E36223636363A363E36323646364A3641D
:10417000E36423656365A365E36523666366A366FD
:10418000E36623676367A367E367A364D1E7054B2F
:10419000A364CEE753440000203900204C330000D4
:1041A000DC460020A941001007B5604601880A0AD4
:1041B0000230DF2AFAD1C9B2820804D302884088CB
:1041C0000004104300E00068014A5050039007BD0E
:1041D000203900200FB403BC0CBCF0B50124E40767
:1041E000634000E0F0B50C0DCF0F661E3605891B4D
:1041F000640503D3C943404200D30131640D03D0A9
:10420000661CF60A07D0E41B00207F00791C890792
:104210008912803C24031D0DDF0F6E1E36059B1B8B
:104220006D0503D3DB43524200D301336D0D03D040
:104230006E1CF60A07D0ED1B00227F007B1C9B073B
:104240009B12803D2D032F1B661B58D4A446202EA5
:1042500046DA20371400BC401D00BD40F240334117
:104260002A4380185941CB0F05D0C943C0430022CF
:1042700064425041514162464D0D28D10D0D07D188
:1042800000281FD0241940414941013A0D0DF9D0B1
:10429000640006D3013000D30131002C01D1400865
:1042A0004000013A0BD4941CE40A04D112051144D5
:1042B000DB071944F0BDD907204B194300E0D907AB
:1042C0000020F0BD0029DDD1002CDBD1F0BD013292
:1042D000C6074008CD0728434908002EE1D0D9E79A
:1042E0003C2E29DA203E40371400BC4000D0012487
:1042F000F24014431A00BB401C43D317ACE7AC4652
:10430000202F08DA20360400B4400D00B540F840F4
:1043100039412843A5E73C2F0CDA203F4036040002
:10432000B44000D00124F84004430800B1400C43DD
:10433000C117EAE710001900002494E70000F07F9D
:10434000F0B50C0D661E3605891BE60A6405640D82
:1043500002D0651CED0A04D0002001210905803C33
:104360002403A4461C0D671E3F05DB1BE70A6405FA
:10437000640D02D0651CED0A04D0002201231B0548
:10438000803C24037740644497B484B296B274436B
:10439000070C7E43150C6F4380B26843361802D376
:1043A000012000043F183004350C00197D4184467B
:1043B00088B29AB250430C0C62431F0C7C438EB2FD
:1043C0007E43921902D301263604A4191604170C51
:1043D0003618674101BC81B29AB25143040C624362
:1043E0001B0C5C4380B25843121802D30120000416
:1043F00024181004130C401863412D185E4100204E
:10440000474106BC88B293B258430C0C6343120C6C
:10441000544389B251435B1802D301210904641843
:1044200019041A0C091862416D18564100204741C1
:1044300018BCF902720D1143F0026A0D1043ED022F
:104440000A0D03D16D1940414941013B124E9B1B9E
:104450007600B3420ED26D0007D3013000267141C1
:104460006646354301D1400840001B05C918E407E2
:104470002144F0BD0BDA013306D1013004D1013102
:104480004F0D01D04908F2E7E1070020F0BD0136E9
:1044900031050020EBE70000FF030000F0B51C0D24
:1044A000671E3F05DB1BE70A6405640D02D0661C2E
:1044B000F60A04D0002201231B05803C2403D025EA
:1044C0002D060026F6432E661E096E66CE0FF619DF
:1044D000B44649004F0D02D07E1CF60A03D00020DE
:1044E0000021403F3F033E1BB600B444013F7F051F
:1044F000C91B49082E6F013676089C02950D25438D
:104500007543ED137543AD1301356D10F603761B3E
:104510000CB4CC02450D2C43A2B2B3B25A43270CC3
:104520007B43350C6F43A4B26C431B1902D30124A7
:1045300024043F191C041D0CA4187D4124196D414D
:10454000009A91B2ACB26143170C7C432B0C5F43D1
:1045500092B25A43A41802D301221204BF182204B3
:10456000230C52187B41019C6C431B19520ED9013C
:104570000A434401A01A81B2B2B2514303145A4310
:10458000360C734387B27743D617D21900277E4182
:1045900036049B191704160C7F185E417316ED182C
:1045A000F301002680337541A90F06D16400690A22
:1045B000E8055B0A184309D22FE0042294448033B3
:1045C0007541A90AA8059B0A184326D340414941D1
:1045D0002404009A019B0D005543641B4343E41AD5
:1045E00095B286B27543170C7E43030C5F4392B2BB
:1045F0005A43B61802D301221204BF183204330CF6
:1046000052197B4152429C41002C02D400220130BD
:1046100051414008CA071043490802B06246D70713
:104620009210084BD218084B9A4203D212058918EF
:10463000C919F0BD0020002A01DC3900F0BD0133AA
:104640001905F5E7FD030000FE070000002200B594
:10465000203200F004F8080000BD000000220B1515
:104660000AD410B5944600F031F81414013400DA7D
:104670000021CB17144C20470020002170476244D2
:10468000343A0CD40C2A07DA04009140904052428C
:104690002032D440214310BDD843D94310BD20322D
:1046A00007D40C469440524220321141D04020435E
:1046B00010BD0800C917203203D4524220321041E5
:1046C00010BD1800190010BD7F4600100A0DCC0F58
:1046D000531E1B05C91A520503D3C943404200D3D8
:1046E0000131520D03D0531CDB0A07D0121B0020EE
:1046F0006400611C89078912803A1203014BD21AA7
:1047000070470000FF03000051434343C9188C4623
:10471000110C83B24B4310B4040C614392B280B2CB
:10472000504362431C041B0C001910BC5941130474
:10473000120CC018514161447047000007B5484051
:104740004140484001E0C04607B54200120E03D088
:10475000FF2A03D1420218D8C00DC0054A00120E2C
:1047600003D0FF2A03D14A020FD8C90DC90501227F
:10477000414005D4414001D5814207BD884207BD73
:104780000143491801D0C043001807BD00B5FFF729
:10479000DBFF01D9002000BD012000BD00B5FFF7FF
:1047A000CDFF01D9002000BD012000BD034BDB6F10
:1047B000FC4618477CDF514800100000203A0020DA
:1047C000132310B512481C78FFF782F90100012C61
:1047D0000AD003DD80220F4800F08EF80E48FFF764
:1047E0006FF90E4B186010BD0A4C5422200000F0E7
:1047F00083F80B4B6365A365E36523666366A36675
:10480000E36623676367A367E3672362E361E5E722
:1048100053460000203A00204C330000DC460020C4
:104820002548001007B5604601880A0A0230DF2AD1
:10483000FAD1C9B2820804D3028840880004104328
:1048400000E00068014A5050039007BD203A002064
:10485000C30FDB0741000A0E07D0FF2A08D0090961
:10486000054A89181943400770471900002070470E
:104870000249C918FAE70000000000380000F07F84
:1048800070B504000A4E300003F01EFB200002F059
:1048900059FE0500300003F0E7FA002D05D0054B66
:1048A0002C199C4201D8280070BD0348FEF7AAFECF
:1048B000C8370020000004200881001070B50400F3
:1048C000054D280003F000FB200002F045FE280003
:1048D00003F0CAFA70BDC046C83700200148042161
:1048E000014B184740320020E13A0010014B1B6891
:1048F0001847000040320020014B5B681847000059
:104900004032002010B5FFF7BBFF10BD10B5FFF718
:10491000D5FF10BDF0B546464F46D646C0B5437CE0
:1049200080460E001700002B4BD0002A32DD274BAB
:1049300001259A464B1E00240020994607E0335D6E
:104940000A2B2CD02B0001340135BB4213DA002C8A
:10495000F5D133780A2BF5D143461B7C002BF1D1DE
:104960004346504602211B68984728002B0001341B
:104970000135BB42EBDB874204DD4346391A1B6835
:1049800030189847F619013E33780D3B5A4253418F
:1049900042461374E0BCBA46B146A846F0BD4B4649
:1049A0001B5D0D2BCED0A042DADA4346211A1B68DC
:1049B000301898474346504602211B689847280004
:1049C000D4E70368110030009847E3E78C810010BA
:1049D000F0B5CE46474680B583B06B46DE1CD0238B
:1049E00030701B061C68204B804601A918009946B0
:1049F00003F05AFA071E20D01C4B1C68002C29D04B
:104A00001B4D02E0E468002C0FD02368002BF9D086
:104A10002B68002B01D0A342F4D1200001223100E9
:104A2000FFF778FFE468002CEFD1002F12D1404649
:104A300003B0C0BCB946B046F0BD019B64B29C4215
:104A40000CD0484603F040FA084B1C68002C01D0FB
:104A50000127D5E7484603F007FAE8E7034B1C684F
:104A6000002CCDD1E3E7C046D0370020884200209B
:104A700090420020F0B5DE4645464E465746E0B52A
:104A800083B0060003F074F8D0231B061C68304B7B
:104A9000050001A918009B4603F006FA804600288D
:104AA0003DD02C4B1C689A46002C47D00A232A4F35
:104AB000994602E0E468002C17D02368002BF9D057
:104AC0003B68002B01D0A342F4D120002A00310022
:104AD000FFF720FF6B464A4620001A7101A9012208
:104AE000FFF718FFE468002CE7D14346002B25D1DF
:104AF00053461C68002C06D06368002B0BD09847E7
:104B0000E468002CF8D1280003B0F0BCBB46B246E4
:104B1000A946A046F0BDE468002CEDD1F3E7019B67
:104B200064B29C420ED0584603F0CEF9094B1C6883
:104B30009A46002C02D001239846B7E7584603F066
:104B400093F9D5E7034B1C689A46002CAED1DAE7FF
:104B5000D037002088420020904200200A4A136883
:104B6000002B05D10CE01A00DB680C32002B07D0BB
:104B70009842F8D1002902D1C3681360C160704720
:104B80000029FCD01060FAE78842002010B500F040
:104B90003DF910BD7047C0460022014B1A707047A6
:104BA0001C4700204B790020FF2B0BD18B79002B69
:104BB00008D1CB79012B05D1082A03D9024B8A7879
:104BC00009301A707047C0461C470020012070470A
:104BD00070B5002913D114495379107909781B0253
:104BE00003430020994200D070BD5378012B08D0B8
:104BF000022BF9D1642200210020FEF7D7FE01200C
:104C0000F2E79478D278050012021443D20502D557
:104C1000620A93401D000548FEF752FF7F21030002
:104C2000214028009847C0461C47002055420000FC
:104C30000123037000487047908100104B780A7878
:104C40001B0213438A7810B512041A43CB781B0653
:104C500013439622D200934200D010BD0348FEF7C2
:104C60002FFF0021030008009847C046554200006E
:104C700070B5184C82B006000D00200001A903F0A9
:104C800013F9002808D1D0231B06019A1B689A4209
:104C90001CD0200003F018F9002001F0A9FD002825
:104CA00007D103256D42200003F0DEF8280002B092
:104CB00070BD002001F0B4FD0028F2D02A003100C0
:104CC000002001F0B9FD051EEBD0ECE703256D4295
:104CD000ECE7C046E4460020F0B5DE464E465746B7
:104CE000C0B5344B82B081460D00180001A99B4627
:104CF00003F0DAF8002808D1D0231B06019A1B68BC
:104D00009A4250D0584603F0DFF8002001F070FDC1
:104D1000002840D00024002D42DD274B9A4612E0A7
:104D20004B460020191901F0FBFD060000F0EEFDD6
:104D3000002001F0B9FDFEF7B5F853461860596040
:104D4000A419AC422CDA002001F004FE2E1B020054
:104D5000B04200DD3200002AE2D100F0D7FD002091
:104D600001F0A2FD002001F043FD002818D0002032
:104D700001F0F0FD0028E4D1FEF794F80027534637
:104D80000E4E1A685B6892197B41994208D8D8D1B7
:104D90009042D6D904E000200021074B18605960EA
:104DA000584603F061F802B0E0BCBB46B246A946E3
:104DB000F0BDC046E44600201839002020A10700BD
:104DC00010B5044B1878FCF7F3FFFA20002180009F
:104DD00010BDC0461D47002010B5024B1878FCF7E7
:104DE000E7FF10BD1D47002010B5074C0021200033
:104DF00003F05AF8002800D110BD00F087FD200014
:104E000003F032F8F8E7C046E4460020F0B5244B42
:104E100085B01B7801F080FF2248FEF735FB0120AA
:104E2000FDF762FAFF23204C204920701840FCF760
:104E3000E5FF20780121FCF79DFF0520FCF7C0FF6E
:104E4000041E0CD0002205201949FDF701F80121AC
:104E50001848FFF783FE0124200005B0F0BDFDF7E0
:104E6000D5FC0500FEF71EF8FA2206000F0000230D
:104E7000920092197B4199420ED80BD001210291E8
:104E8000002101910C4928000091FDF7C3FC002886
:104E9000E2D0DCE79042F1D901225242D317EDE78C
:104EA000A0830010E44600201D470020E94D0010BB
:104EB000D94D001050320020C14D001000487047FD
:104EC00060820010004870470C82001010B504008A
:104ED00017480378002B20D0002C06D1154B16481C
:104EE0004380063BFF3B038010BD052C19D8134BB4
:104EF000A400E0581249002304E001330A80023183
:104F0000132B10D0C25C002AF7D1C0220133DBB2D0
:104F10005B00920008481343E5E7112102F096F97F
:104F2000DAE70020E0E7CA2303489B00DBE7C0463E
:104F3000FC4600200904000060420020F4810010BB
:104F400062420020F0B5982357464546DE464E465D
:104F5000674AE0B5D75880253C006D0285B02C40EB
:104F6000883B2F420ED001222321624B00205A544D
:104F70006149DA7001F000FA80222C005F4B920246
:104F80001A655F4BFA0617D480235B011F424BD191
:104F90008023DB011F4200D080E080231B021F42E0
:104FA00000D089E0BC4200D09DE005B0F0BCBB461B
:104FB000B246A946A046F0BD4D4A926D9046002AE1
:104FC0002DD04E4A0024934601229146494A01269B
:104FD000924642465146B8469A461700039104E06D
:104FE00001347600E4B2202C17D03742F8D05B466B
:104FF0009E654B466508A3436D00ED18039B6D014C
:105000009C466544280000F00DFB00285FD1013468
:10501000B743E4B27600002FE5D1474653461C0063
:1050200080235B011F42B3D01C430023304A002180
:105030001360314A33489360D360136153619361C5
:10504000D361136253629362D362136353639363B6
:10505000D363136453649364D36413655365936596
:10506000D365136653669366D36613675367936776
:10507000D367F0229200FFF739FC234B234A00212B
:105080001A600020012201F04BF980221B4B120311
:105090001A658023DB011F4200D17EE70122042133
:1050A00000201C4301F0AAF81022144B1A6580233B
:1050B0001B021F4200D175E70122052100201C437D
:1050C00001F09CF880220D4B12011A656AE74B46ED
:1050D000AA8AA97800200093002301F075F928001E
:1050E00000F0DCF993E7210009487940FEF78AFADD
:1050F0000000115098420020000010500030115064
:1051000010000100D8420020A0460020800110506D
:105110007482001010B501210520FCF72BFE10BD94
:1051200010B500220021024800F0E0F910BDC04691
:10513000B84200208022024B5202DA647047C04617
:1051400000201150F0B5C64600B5060000F080F909
:105150000C232E4D0520AB672D49FCF74FFE402355
:1051600098462C4C402200212000FFF7BFFB43460D
:105170000127A38321210023274A6770A2601360BF
:1051800063545F3161844146A18702396354234AE5
:1051900023496360E260A1620B60E262214A6362BC
:1051A00020009360D360136153619361D3611362F4
:1051B00053629362D362136353639363D363136441
:1051C00053649364D364136553659365D365136621
:1051D00053669366D366136753679367D367F0226A
:1051E000002192004030FFF781FB0F4B0F4A300047
:1051F0001A6080239B052F64EB6490230C4AEA50CD
:10520000FFF798FF80BCB846F0BDC04600001150C3
:10521000454F0010984200208400105000011050AB
:105220008000105000001050A04600208001105057
:1052300010D001000B785B0602D14B78052B00D013
:1052400070478A78014B1A60FAE7C0460000115097
:10525000F0B5CE464746072380B548798E780A795F
:105260000340C8787F21800731401B02F4091343B3
:105270004F00820F944691462A4D3A195201AA18BE
:105280009670012666405670604600269383D6705D
:105290009077CA00012C29D02348844688016244B3
:1052A0008446AC44604682601660002929D01F4ABB
:1052B000C9009046414441603F223F3393434A46F0
:1052C000022A00D15B001A493F190A687F01D318EE
:1052D0000B60184BED195340EA604A46900618439C
:1052E00080236A681B060343136010E0124884465B
:1052F000880162448446AC4460468262166000299C
:105300000AD1002364012C1963600C4BE360012077
:10531000C0BCB946B046F0BD064AC90090464144FB
:105320004162C9E7984200208400105004001050E8
:10533000A0460020000010508000105000011050C6
:105340000022154B10B59A60DA601A615A619A61B1
:10535000DA611A625A629A62DA621A635A639A636B
:10536000DA631A645A649A64DA641A655A659A654B
:10537000DA651A665A669A66DA661A675A679A672B
:10538000DA67F032920000210448FFF7AFFA044BCD
:10539000044A1A6010BDC04600001050D8420020D8
:1053A000A04600208001105010B57F200C00204046
:1053B0004000E409110000191A00034B4001C01815
:1053C00000F094F8012010BD984200207F231800BF
:1053D00010B508400B420BD0C90980224000074B92
:1053E000401840010021C018120100F05DF810BD06
:1053F0000223034AC9095B1A9366EEE7984200202C
:10540000002011507F22130010B50B400A4200D13A
:1054100010BDC9095B005B1804485B01C01800237C
:1054200000220349C37000F03FF8F1E798420020E2
:10543000FFF7FFFF7F21C209034B9200014010B527
:10544000D2580248FEF7DEF864320020888200104D
:1054500080220D4B520410B51A600C4B0C491A6097
:1054600010008B689843FBD10A4C9C22002120003D
:10547000FFF73CFA8022002152010748FFF736FA75
:105480000923636710BDC04600E0004000F0004003
:1054900000C00040000011500000105000230374B1
:1054A000438283828361704710B58368002901D0ED
:1054B0001C682140002A11D08024E40011432242BC
:1054C0000CD01A6822420BD1074A0A401A60FFE743
:1054D000FFE7FFE7FFE7FFE7FFE78368196010BD1D
:1054E0008078FFF7A7FFC046FFFBFFFFF0B5C64679
:1054F000002300B5838201330374436804001F68EE
:10550000838B81611E1C934200D9161C8020B6B289
:10551000921B93B2E278C000304315008446681EA7
:10552000854160466D03054301204240E270627888
:105530006382002A52D0002B2ED0802252011543C4
:10554000344A126C920745D5A28B101C9A4200D99E
:10555000181C82B28020C00010439B1A9046E2784B
:1055600084461600701E864160467603064301207D
:105570004240E27062789BB26382002A3AD0002BEC
:1055800002D18023DB011E43A023234A36043A4084
:10559000DB053543134309E0A023DB011D431D4B0D
:1055A0001B6C80231D4A9B053A40134362681360BD
:1055B000A26813685B052AD4194B2B401360FFE7E0
:1055C000FFE7FFE7FFE7FFE7FFE7A3681D6080BC99
:1055D000B846F0BDA278D209B6D1E2E73200E06861
:1055E000FFF78AF98023A1691B0289191D43A16174
:1055F000638AA0E7E06842464030FFF77DF9A3697F
:105600004344A36180231B021E43638AB7E7A0784B
:10561000FFF710FF00001150FFFFFFDFFFFFFFAF9C
:10562000FFFBFFFFF0B5C64600B5067C0400002E68
:1056300000D1CEE083681A681D684378AD05AD0DD2
:10564000002B00D070E0838AEB189BB28382A18B81
:105650008D4207D20023638263681B68300080BCE0
:10566000B846F0BD62681268520010D58D420ED166
:10567000A26815686278AD01AD0D002A00D08CE0FB
:10568000EB18A3828D4202D200236382E6E7638A8D
:10569000002BE3D062681E1C17688B4200D90E1CD9
:1056A000E17880220D00681E8541B6B2D2003243F7
:1056B0006D03154301229B1B514062789BB26382AC
:1056C000E170002A5AD0002B3BD0802252011543B2
:1056D000454A126C920702D4A278D20936D0A28B26
:1056E000111C9A4257D88AB28021C90011439B1AD3
:1056F0009046E2789BB21600701E864176030E43F8
:1057000001214A40E27062786382002A53D0002B64
:1057100002D18023DB011E43A023344A36043A40E1
:10572000DB053543134316E02A008069E168FFF783
:10573000E3F8A38AA269EB189BB25219A382A26173
:1057400085E7A023DB011D43274B1B6C8023284AE0
:105750009B053A40134362681360A26813685B05B7
:105760003ED4244B2B401360FFE7FFE7FFE7FFE742
:10577000FFE7FFE7A36800261D606FE73200E068DF
:10578000A169FFF7B9F8A3699B19A36180231B02E4
:105790001D43638A97E7191CA5E7E1682A00403199
:1057A000A069FFF7A9F8A38AA18BEB18A382A369CC
:1057B0005B19A36166E7E0684246A1694030FFF7E4
:1057C0009BF8A3694344A36180231B021E43638AA1
:1057D0009DE77F238178084A08481940FDF712FFAA
:1057E000A078FFF727FEC04600001150FFFFFFDF43
:1057F000FFFFFFAFFFFBFFFF64320020A882001015
:10580000024B5878431E9841C0B27047D43F0020E5
:10581000024B18784007C00F7047C046D43F0020A5
:10582000014B18787047C04618470020F0B5C646AF
:105830002D4F05003B7800B5002B03D0012080BC24
:10584000B846F0BD532200212848FFF74FF8284CF6
:105850002000FDF719FE274B1C60274C20001C3C44
:10586000FDF72EFE200001F0A5FC244B244E1C6009
:10587000244B9846002B2AD03000FFF7D9F9424636
:10588000214B002418603378002A25D01E4A904608
:105890009C420FD301F06AF801343378E4B2A3429A
:1058A000F6D22800FFF74EFC2800FFF733FC012357
:1058B0003B70C3E743461A6863001B19DB009B5823
:1058C000984701343378E4B29C42E1D9E9E7424693
:1058D00000243378002AD9D101F048F83378002B1E
:1058E000DFD043461B68FFDE18470020D43F00206E
:1058F0008C3F002028400020883200202C400020CF
:1059000017470020314C00109C3C0020F0B5DE46CB
:1059100057464E464546E0B591B001F003FA0028DF
:1059200000D144E1C24BC34E0193C34B0DAC029373
:10593000C24B00969B46009B1D68EA69EFF31081FD
:1059400072B61368002BFCD0BFF35F8F296228006A
:10595000210001F0A1FAEA692B6ABFF35F8F0021F1
:10596000116083F31088002800D120E16378082BB0
:10597000E1D8019A9B00D3589F466368002BDAD088
:10598000A0689847D7E77F222179AB4B0A405500A2
:10599000C8095B191B18180001273030C578BD43B2
:1059A000C570C5780337BD43C570002A00D105E135
:1059B000A34ADB7C002A06D0A24A1278934200D286
:1059C00087E19B1ADBB2002B00D0F0E09E4DA3686C
:1059D00062792078A847AEE70122974F01213B78F2
:1059E000042013433B703323FA5C8A43FA54FA5C75
:1059F0008243FA540133FA5C8A43FA54FA5C8243D4
:105A0000FA54237800209A4600F064FE602223793D
:105A10001A40602A0DD0402A00D1EBE0DB06DB0EF5
:105A2000012B00D160E1022B00D11BE1002B00D142
:105A3000EFE020780021FFF7C9FC80212078FFF7F4
:105A4000C5FC78E7029B1B78DB0700D473E77F4B2C
:105A5000002B00D16FE700E000BF6CE7764A1378B7
:105A6000DB0700D467E77A4B002B00D163E710789F
:105A70000007C00F00E000BF5DE7724D704A0027CD
:105A80002B78002A00D1B0E06C4A16009F4205D363
:105A90000137FFB29F4200D94DE7F9D27A00316851
:105AA000D219D2008A185269002AF1D02078904782
:105AB00001372B78FFB2BB42E8D23CE72378614D37
:105AC00098465F4A0027914646462B78002A00D127
:105AD00083E0BB425CD8300000F086FF01372B78B2
