:020000041000EA
:1000000000B5324B212058609868022188439860DF
:10001000D860186158612E4B002199600221596106
:100020000121F02299502B49196001219960352056
:1000300000F044F80222904214D00621196600F024
:1000400034F8196E01211966002018661A6600F04E
:100050002CF8196E196E196E052000F02FF8012189
:100060000842F9D1002199601B49196000215960AB
:100070001A491B48016001219960EB211966A021F2
:10008000196600F012F800219960164914480160C1
:100090000121996001BC002800D000471248134993
:1000A000086003C880F30888084703B5996A0420EC
:1000B0000142FBD001200142F8D103BD02B5186610
:1000C0001866FFF7F2FF186E186E02BD00000240BE
:1000D000000000180000070000035F00212200005C
:1000E000F4000018222000A00001001008ED00E03C
:1000F00000000000000000000000000074B24E7A12
:1001000000200420F7010010C3010010C5010010F9
:10011000C1010010C1010010C1010010C101001097
:10012000C1010010C1010010C1010010C701001081
:10013000C1010010C1010010C9010010CB01001065
:10014000CD010010CD010010CD010010CD01001037
:10015000CD010010CD010010CD010010CD01001027
:10016000CD010010CD010010CD010010CD01001017
:10017000CD010010CD010010CD010010CD01001007
:10018000CD010010CD010010CD010010CD010010F7
:10019000CD010010CD010010CD010010CD010010E7
:1001A000CD010010CD010010CD010010CD010010D7
:1001B000CD010010CD010010CD010010CD010010C7
:1001C00000BE00BE00BE00BE00BE00BE00F04BF888
:1001D000103800BEF2EB8871A8A40010CCA4001067
:1001E0003402001090A31AE700202149086006C8D5
:1001F00081F3088810471F48006800282FD10DA4FC
:100200000ECC002902D000F012F8F9E71A491B4A77
:10021000002000E001C19142FCD1194988471949E9
:1002200088471949884700BEFDE701C901C29A42C3
:10023000FBD37047CCA40010C0000020108C01201C
:100240001C30021000000420000004201C300210AA
:1002500000100420001004200000000070470B482C
:1002600005F034F90047EFF30580C0B27047000095
:1002700008ED00E0000000D0108C0120C09B0120A0
:10028000F538001029190010193A001057560000CF
:1002900006005250ABB360535CA2001006005250EF
:1002A000861C03026CA20010060052505422A29D2C
:1002B00078A2001005005250DE65F4681C30021070
:1002C000F8B5C04606480749091A8B10C90FC91866
:1002D00010B5491003D0044B002B00D0984710BD37
:1002E000108C0120108C012000000000054B10B57F
:1002F000002B03D00449054800E000BFFFF7E2FFF0
:1003000010BDC04600000000449B0120009B00106F
:10031000F0B5C64600B52649264B0A789E5C802378
:10032000F5015B001D40FF3B33409B021D43D02382
:100330001B061C699846531E5F427B41574257413A
:100340009B01FF013B43971E3800474247417F0115
:100350003B43D71E38004742474180203F013B4383
:100360004001B702074080203B43C001F70207402D
:1003700080203B433711FF073F0C3B438000370190
:10038000074080203B430001770107404046F611BB
:100390003B43760333432B436340074C01322340F6
:1003A000C3610323134001200B7080BCB846F0BD2D
:1003B000B49B0120408F0120F0FF000070B50400C5
:1003C0000D000D20002101F0E1FE02F077FF002971
:1003D0002AD0FA220023920005F014F9022C29D029
:1003E000012C11D0002C0AD10C232B4207D0D02392
:1003F0001B065B68DB0700D40400154B1C60012161
:100400000D2001F0C3FE70BD0C232B42F7D0D0238A
:100410001B065B685B082340DBB25A4253415B42D8
:1004200018400C4B1860EAE7FA21890005F0A8F89B
:10043000022CD5D10C232B42E1D0D0231B065B68C4
:100440005B07DB0F013B1840034B1860D7E7C04642
:10045000A0960120A8960120A4960120F0B54F4651
:100460004646D6461C00574BC0B51D7880460F0047
:10047000914600269A46002D0ED1002C00D170E046
:1004800080220021504805F09DFF53461D70E0BCBE
:10049000BA46B146A846F0BD4B4D80220021280047
:1004A00005F090FF53461E70002CF0D14346002B00
:1004B00052D10023EB557F2301E0013B7FD3EA5C5F
:1004C000002AFAD002210122DEB2002402E0013427
:1004D000802C6CD02B5D002BF9D0E7B2BE4245D00A
:1004E000012943D0394B0022984631001868002377
:1004F00001F09AFBA85D05F02FFB0022344B05F0BC
:1005000094FA0022334B05F0AEFA0B00414602008C
:10051000086801F02BFB43460121186801F06EFBCF
:100520002D4E002200233900306801F07DFB285D4C
:1005300005F012FB0022264B05F077FA0022254B2E
:1005400005F091FA02000B00306801F00FFB012169
:10055000306801F053FB9AE74B46002BA9D0EB55CE
:10056000A9E74346184D002BF6D1A2E7174C00220D
:1005700000233100206801F057FBA85D05F0ECFA7C
:100580000022134B05F051FA0022124B05F06BFAD2
:1005900002000B00206801F0E9FA0121206801F057
:1005A0002DFB0D4B0021186801F028FB6FE7002E92
:1005B000DCD0012ADAD0054B00211868EFE70121D1
:1005C00083E7C046080400204C8F0120AC96012030
:1005D00000C05F400000E03FB0960120F0B5454606
:1005E000DE4657464E46E0B54279037912021A4379
:1005F0008379C4791B04134324061C43437A027A8B
:100600001B0213439846467B037B36021E43C37A84
:10061000827A1B02134342468BB076BAB1B202AF64
:1006200024BA5BBA52BAF9619BB20091050021006D
:10063000C24892B206F0B2F84346002B03D12B1900
:100640001A7A4D2A07D0BD4609B0F0BCBB46B24667
:10065000A946A046F0BD5A7A542AF4D19A7A722A51
:10066000F1D1DA7A6B2AEED11A7B597B1206090492
:100670000A43D97B9B7B0A431B021A4390461034E2
:100680001100AF48A04406F089F8444543D2AD4B71
:10069000A9467B61AC4BAD4ABB61AD4B3A619B4611
:1006A000AC4BAD4A9A46FA60AC4ABA602100B869D0
:1006B00006F074F800267F2148460A00035DF60123
:1006C0001A405BB2250016430134002BF5DB81464E
:1006D0003100584606F062F8002E30D14B461C5DC2
:1006E0005046210006F05AF80F232200AE1C9A4310
:1006F000802A2DD0C02A3CD012D8A02A40D0B02ABF
:100700004ED14B462C1D4D44EA78995D944806F035
:1007100045F8A045CAD82100924806F03FF892E774
:10072000D02A36D0E02A4ED14A462C1D4D44EB78D3
:10073000915D1B02B868194306F030F8E9E7F969E2
:10074000786904F01DFF0021704302F0B3FCC5E797
:100750004B462C1D4D449E5DED7831002A00002350
:100760000020FFF77BFE2A0031007F4806F016F8D4
:10077000CFE74B463869995DEC1C06F00FF8C8E7E7
:100780004B462C1D4D44EA78995D784806F006F8F2
:10079000BFE74B46F868995DEC1C05F0FFFFB8E732
:1007A000902A21D14B462C1D4D449E5DED783100A1
:1007B0002A0000230120FFF751FE2A0031006C4877
:1007C00005F0ECFFA5E7F02C10D0F72C4AD0FF2C59
:1007D0000AD14B469B5D002B51D0EC1C592B17D8EE
:1007E000644A9B00D3589F46340092E700217F2241
:1007F0004C461000A35DC90118405BB201430136AD
:10080000002BF6DB5C48A1468C1905F0C7FF80E79A
:100810006E4600257F2248467F2B00D079E71100E5
:10082000035DED0119405BB20D430134002BF6DB93
:100830002B006A460833DB08DB00D31A9D4681464D
:1008400002A87860002D05D04B462A00191905F042
:10085000BFFD64190023796848484B5505F09EFF99
:10086000B54656E700217F224C461000A35DC90122
:1008700018405BB201430136002BF6DBC2E7AC1D2A
:100880004D442B7969791B0219433D4805F086FFD9
:100890003FE73C48AC1D05F08BFE3AE76B46002570
:1008A0007F2248467B601100035DED0119405BB279
:1008B0000D430134002BF6DB2B006A460833DB08BE
:1008C000DB00D31A9D46814602AE002D05D00119EA
:1008D0002A00300005F07CFD6419002331007355B7
:1008E000294805F05BFF7B689D4612E76B460025B3
:1008F0007F2248467B601100035DED0119405BB229
:100900000D430134002BF6DB2B006A460833DB086D
:10091000DB00D31A9D46814602AE002D05D0011999
:100920002A00300005F054FD64190023310073558E
:10093000164805F033FF7B689D46EAE6009B0010F1
:10094000489B001020A10700589B0010289C001015
:10095000689B0010749B00104C9C00106C9C001055
:10096000F49B0010CC9D0010849B0010C49B0010D1
:10097000A49B0010EC9D0010909C0010B09D0010F6
:10098000A49C0010AC9D0010049D0010EC9C001075
:100990006B4600257F2248467B601100035DED0118
:1009A00019405BB20D430134002BF6DB2B006A4685
:1009B0000833DB08DB00D31A9D46814602AE002DCA
:1009C00005D001192A00300005F002FD641900234A
:1009D00031007355654805F0E1FE7B689D4698E659
:1009E0006B4600257F2248467B601100035DED01C8
:1009F00019405BB20D430134002BF6DB2B006A4635
:100A00000833DB08DB00D31A9D46814602AE002D79
:100A100005D001192A00300005F0DAFC6419002322
:100A200031007355524805F0B9FE7B689D4670E66B
:100A30002C005048083405F0BBFD6AE62C004E48F7
:100A4000093405F0B5FD64E6EC1D4D442B796A7957
:100A50001B0412021343AA794848134319007B610F
:100A600005F09CFE55E6464805F0A2FDEBE56C1D41
:100A70004D442979434805F091FE4AE66B4600252E
:100A80007F2248467B601100035DED0119405BB297
:100A90000D430134002BF6DB2B006A460833DB08DC
:100AA000DB00D31A9D46814602AE002D05D0011908
:100AB0002A00300005F08CFC6419002331007355C6
:100AC000314805F06BFE7B689D4622E66B460025AB
:100AD0007F2248467B601100035DED0119405BB247
:100AE0000D430134002BF6DB2B006A460833DB088C
:100AF000DB00D31A9D46814602AE002D05D00119B8
:100B00002A00300005F064FC64190023310073559D
:100B10001E4805F043FE7B689D46FAE56B460025BE
:100B20007F2248467B601100035DED0119405BB2F6
:100B30000D430134002BF6DB2B006A460833DB083B
:100B4000DB00D31A9D46814602AE002D05D0011967
:100B50002A00300005F03CFC641900233100735575
:100B60000B4805F01BFE7B689D46D2E5D89C001023
:100B7000C49C0010A49D0010949D0010809D001046
:100B8000709D0010549D0010409D0010309D00107D
:100B9000209D001070B5364C200008F091FF354BB9
:100BA00020001D7808F064FF80220021324805F003
:100BB00009FC0022314B1A70022D51D018D8002D9B
:100BC00026D02F4805F0F4FC2E4803784D2B05D194
:100BD0004378542B02D18378682B13D0200008F07F
:100BE0006FFF0122284B20001A7008F041FF70BDF2
:100BF000032D15D1224805F0DBFC244803784D2B4A
:100C0000ECD1E5E7C378642BE8D1FFF7E7FCE5E733
:100C10001B4805F0CDFC1E4803784D2BDED1D7E7ED
:100C20001C4E002230681C4B00F040FF1B4D002280
:100C30001B4B286800F03AFF3068012100F0DEFF0E
:100C40000121286800F0DAFF164802F04BFA3068FC
:100C5000002100F0D3FF0021286800F0CFFFBDE79E
:100C6000074805F0A5FC104803784D2BB6D1AFE737
:100C7000448F0120B39B01204C8F012008040020E9
:100C8000549F0010AC480120B29B01200C040020AE
:100C9000ECF70020AC96012000408F40B096012078
:100CA00000488F40B80B0000F4600020F0B5DE462D
:100CB00057464E464546E0B599B001F0B3FF12AB3A
:100CC00002930023FA220193C54B92000093002364
:100CD00002F07AF801210D2001F058FA002399461C
:100CE0000B930A930593BF4B00250693BE4BBF4F52
:100CF0009B46BF4BBF4E0993BF4B9A46BF4B0D93CC
:100D0000BF4B0E93BF4B0493BF4B0F93BF4B079347
:100D1000BF4B10935346DA46CB46994602F0CEFAC3
:100D2000002900D1F6E2FA220023920004F06AFCC6
:100D30000400062D00D9E5E2069BAD005B599F46F5
:100D4000A046059D5D444346FA215C1B20004900F6
:100D500004F016FCF92900D959E32000AD4904F04C
:100D60000FFC0A2104F00CFC4B46C9B25B5C20006E
:100D70003370A94904F004FC0A2104F001FC4B463D
:100D8000C9B25A5C8023FA215B421343737020007E
:100D9000890004F0F5FB3C2104F0F2FB0C000A2171
:100DA000200004F0EDFB4B46C0B21B5C0A21B3707F
:100DB000200004F0E5FB4B46C9B25B5C0498F3707D
:100DC00008F07EFE079B04981C7808F051FE3B68F3
:100DD000002B00D100E3012002F084F902F06EFA4A
:100DE000002900D17EE3FA220023920004F00AFCDD
:100DF0000400FA21631B18004900984604F0C0FB68
:100E0000F92900D969E34046824904F0B9FB0A2177
:100E100004F0B6FB4B46C9B25B5C404633707E497A
:100E200004F0AEFB0A2104F0ABFB4B46C9B25A5C9E
:100E30008023FA215B42134373704046890004F01B
:100E40009FFB3C2104F09CFB88460A21404604F0AD
:100E500097FB4B46C0B21B5C0A21B370404604F0BE
:100E60008FFB4B46C9B25B5CF3703B68002BB2D181
:100E700053461B68002BAED1099B1B68002BAAD1DF
:100E800008F0F4F80D9B1D68002D06D0280000F036
:100E9000F5FD2821280005F0A5FA0E9B1D68002D00
:100EA00000D187E2280000F0E9FD2821280005F0A4
:100EB00099FA012002F016F902F000FA002901D196
:100EC00000F00CFDFA220023920004F09BFB5D462B
:100ED0008046B3460B9464E1059D5D44059BE31A8F
:100EE0005B4500D34BE1FA212C1B2000890004F064
:100EF00047FB08001191A72104F042FB4549C3B20A
:100F000080462000089304F03BFB0A2104F038FBE4
:100F1000089BC9B25A425A414B465B5CD20113430B
:100F200033703D49200004F02BFB0A2104F028FB1C
:100F30004346012B00D1B9E3053B5A4253414A468F
:100F4000C9B2525CFA21DB0113437370890020009F
:100F500004F016FB3C2104F013FB08000C910A215D
:100F600004F00EFB42468023022A04D04346043B91
:100F70005A425341DB014A46C0B2125C0A21134374
:100F8000B3700C9804F0FCFA089BC9B2033B5A42B8
:100F900053414A46525CDB011343F3703B68002B1C
:100FA00000D0D9E053461B68002B00D0D4E0099B49
:100FB0001B68002B00D0CFE0119B0120E31A9B4659
:100FC00002F090F802F07AF9002900D0FBE1FA2152
:100FD000890004F0D5FA5D468046B346E1E0C0469C
:100FE00011030010689F0010A8960120A49601200C
:100FF000A0960120408F0120849F0010AC96012014
:10100000B0960120448F0120B39B0120B29B0120A8
:10101000950B0010C027090060EA0000200054462C
:101020003B68002B0FD0012002F05CF802F046F97B
:10103000002900D178E3FA220023920004F0E2FABA
:101040003B68002BEFD12368002BECD1099B1B6878
:10105000002BE8D1A246040001200A9302F042F8D6
:1010600002F02CF9002900D1DAE3FA2200239200E1
:1010700004F0C8FA05940400059D20005D44A846CC
:10108000059BC31A5B4500D325E24346FA211C1A8F
:101090002000890004F074FA0800A72104F070FA17
:1010A0000500C3B2DC492000089304F069FA0A2164
:1010B00004F066FAEBB25A425A414B46C9B25B5C45
:1010C000D2011343D5492000337004F059FA0A21A4
:1010D00004F056FA012D00D1D3E26B1F5A4253415E
:1010E0004A46C9B2525CFA21DB01134373702000F7
:1010F000890004F045FA3C2104F042FA0C000A2170
:10110000200004F03DFA8023022D03D02B1F5A4209
:101110005341DB014A46C0B2125C0A211343B3704B
:10112000200004F02DFA089BC9B2033B5A425341F8
:101130004A46525CDB011343F3703B68002B00D03E
:1011400029E253461B68002B00D024E2099B1B6850
:10115000002B00D11FE24546012001F0C3FF02F041
:10116000ADF8002900D1E4E2FA220023920004F055
:1011700049FA0400059BE31A5B4500D2B3E601205F
:1011800001F0B0FF02F09AF8002900D19DE1FA22A7
:101190000023920004F036FA0400C3E05D46A04646
:1011A000B3463B68002B03D053461B68002B72D11B
:1011B0003B68002B00D037E153461B68002B00D161
:1011C00032E15346186843464B21181A04F0D8F907
:1011D000431C0C93002800D184E2052B00D981E246
:1011E000FA212800890004F0CBF93C2104F0C8F969
:1011F0000C000A21200004F0C3F9CAB208920A21A7
:10120000200004F0BDF98549C4B2280004F0B8F903
:101210000A2104F0B5F92800CEB27F4904F0B0F9F4
:101220000A2104F0ADF93B68C9B2002B00D03EE1C1
:1012300050460368002B00D039E109980368002B61
:1012400000D121E348468023825D1A43435C1202A9
:10125000015D1343089A0904125C0B431206134301
:101260005A460120136001F03DFF02F027F80029E3
:1012700000D130E2FA220023920004F0C3F90C9B63
:101280000A9343460B933B688046002B90D053460D
:101290001B68002B8CD05E46614B4446554633603C
:1012A00002E00A2001F01EFF3B68002BF9D12B68F9
:1012B000002BF6D1AA469B460021984600251193A3
:1012C00008933B68002B08D153461B68002B04D1C0
:1012D000099B1B68002B00D1FDE20B944B46424654
:1012E0009A5C80231A434B465B5C494612021343C7
:1012F0004A461198095C08980904125C0B431206CF
:1013000013433360012001F0EDFE01F0D7FF002907
:1013100000D008E5FA21890004F032F9040008E55C
:10132000059D5D44282005F059F88046132100F002
:1013300067FB42460D9B28201A6005F04FF8804657
:10134000142100F05DFB42460E9B01211A60049BB4
:1013500001221800984601F0EBF901F0AFFF0323DA
:101360000F9A034013700023079A4046137008F049
:101370007FFB109807F0CEFEA046E4E4059D5D4497
:1013800037E507F073FE0D9B44461D68002D06D01F
:10139000280000F073FB2821280005F023F80E9B9D
:1013A0001D68002D06D0280000F068FB28212800C9
:1013B00005F018F801200B9401F094FE01F07EFF77
:1013C000002900D103E6FA220023920004F01AF962
:1013D0005D468046B346E4E653461B68002B00D0CA
:1013E000F9E4099B1B68002B00D0F4E4002CC8D161
:1013F000012001F077FE01F061FF002900D108E231
:10140000FA220023920004F0FDF880469BE4054B8D
:1014100033800023B370D1E4C027090060EA0000E4
:10142000404040400080FFFF3B68002B60D05346A7
:101430001B68002B5CD1434638684B21181A04F016
:101440009FF8431C0C93002802D0052B00D8C7E658
:101450000C9B0A9AE849981AE84A5043401904F04C
:101460008FF80D00FA212800890004F089F83C214A
:1014700004F086F80C000A21200004F081F8200016
:10148000CAB20A21089204F07BF8DC49C4B22800F1
:1014900004F076F80A2104F073F82800CEB2D84997
:1014A00004F06EF83B68C1B2002B00D1C0E64B4699
:1014B0009A5D80231A434B465B5C4946095D1202E4
:1014C000134308984A460904C6E6FA21890004F045
:1014D00057F8040026E7454651E6CA4B33800023FF
:1014E000B370C1E4FA21890004F04AF8040080E4F2
:1014F0003B68002B5CD0FA212800890004F040F8FA
:101500003C2104F03DF80C000A21200004F038F8DA
:101510002000CBB20A21089304F032F8B749C4B2D4
:10152000280004F02DF80A2104F02AF82800CEB291
:10153000B34904F025F80A2104F022F83B68C9B247
:101540000A93002B7AD150460368002B63D1099887
:1015500000680C90002800D1B6E14846825D8033D7
:101560001A43435C1202015D1343089A0904125C9A
:101570000B43120613435A460120136001F0B2FDDB
:1015800001F09CFE002900D13EE1FA2200239200E6
:1015900004F038F875E6012001F0A4FD01F08EFE9C
:1015A000002946D0FA220023920004F02BF867E5C8
:1015B00053461B680A93002B00D1C1E0FA21280092
:1015C000890003F0DDFF3C2103F0DAFF0C000A2163
:1015D000200003F0D5FF2000CBB20A21089303F0CE
:1015E000CFFF8649C4B2280003F0CAFF0A2103F0E6
:1015F000C7FF2800CEB2824903F0C2FF0A2103F0E0
:10160000BFFF3B68C9B20A93002B17D1504603684D
:10161000002B00D14BE14B469A5D80231A434B4689
:101620005B5C4946095D1202134308984A46090467
:101630009DE7FA21890003F0A3FF21E54B469A5D5F
:1016400080231A434B465B5C1202494613434A46C9
:101650000898095D125C090412060B4313435A46AD
:101660000120136001F03EFD01F028FE002900D1A9
:10167000BBE0FA220023920003F0C4FF00230A9388
:10168000FFE54B46C9B25A5C8023FA215B42134303
:1016900073702000890003F073FF3C2103F070FF9A
:1016A0000C000A21200003F06BFF2FE54B46C9B266
:1016B0005A5C8023FA215B42134373702000890037
:1016C00003F05EFF3C2103F05BFF0C9108000A2150
:1016D00003F056FF4AE4FA21890003F051FF0C9B06
:1016E0000A93CEE52800454903F04AFF0A9A0C9B6D
:1016F0006C1A9B1A5801C01A8000C018C00040190B
:101700003E4903F03DFF6518FA212800890003F0E7
:1017100037FF3C2103F034FF0C000A21200003F0C6
:101720002FFFCBB208936AE5FA21890003F028FF66
:1017300076E4FA21890003F023FF0400FFF7CEFBD3
:10174000099B1B68002B72D1FA212800890003F045
:1017500017FF3C2103F014FF0C000A21200003F0C6
:101760000FFF2000CAB20A21089203F009FF2349A3
:10177000C4B2280003F004FF0A2103F001FF28008F
:10178000CEB21F4903F0FCFE0A2103F0F9FE3B68CC
:10179000C9B2002B00D03EE7504600680A900028EE
:1017A00000D1A1E04B469A5D80231A434B465B5C17
:1017B0001202494613434A460898095D125C09041F
:1017C0000B43120613435A460120136001F08AFCB2
:1017D00001F074FD0C1E00D199E0FA220023920062
:1017E00003F010FF00230A934BE5FA21890003F070
:1017F000C7FE00230A9344E5808D5B0060EA000089
:10180000C02709000080FFFFFA21890003F0B8FE1D
:1018100037E5FA21890003F0B3FE8046FFF793FA1B
:10182000FA21890003F0ACFE0594040024E45E462E
:10183000FA21AB468900584603F0A2FE3C2103F092
:101840009FFE444688460A21404603F099FE6B1EDF
:101850009D414046CBB20A21089303F091FE2F49E7
:10186000C3B25846119303F08BFE0A2103F088FEA1
:101870005846CBB22A49984603F082FE0A2103F06B
:101880007FFEEDB2C9B21CE511944446B0465E46F7
:10189000AB461D000B9BE41A224B9C4204D9D0237B
:1018A00080221B06D2029A610C9B0A9316E50998C6
:1018B00000680C90002800D04FE611944446B046D2
:1018C0005E46AB460C9DE5E711944446B0465E4645
:1018D000AB460025DEE70A9B0C93DBE7FA21890083
:1018E00003F04EFEFFF7F3FA099B1B680C93002BE5
:1018F000E3D04B469A5D80231A434B465B5C4946D6
:10190000095D120213434846089A09042FE6FA219A
:10191000890003F035FE0A94B3E4C04660EA000093
:10192000C0270900204E0000F0B5C64600B504F0FF
:1019300041FF192000F050FBD026802336069B047F
:1019400073622023984601272B4CA04420CC28000A
:1019500000F042FB3B00AB4073624445F6D10720E8
:1019600000F03AFB80230620736200F035FB402331
:101970000520736200F030FB20230420736200F026
:101980002BFB10230220736200F026FB00220121B2
:10199000022000F0C5FA04230122B3620C210220C8
:1019A00000F0D0FA012000F017FB002201210120F5
:1019B00000F0B6FA02230122B3620C21012000F0EC
:1019C000C1FA002000F008FB00220121002000F0F5
:1019D000A7FA01220C210020B76200F0B3FA0748F1
:1019E00000F0DAFA122000F0F7FA8023DB027362CB
:1019F0007361FFF75BF9C046949F0010BD030010B0
:101A000070B5002204000023226163610022184B9C
:101A10000726A261E361002220230125E2544B083E
:101A2000334063602B000B4008002160A360042159
:101A300000F05EFA29002268D02391401B0659620B
:101A4000616852088B005B180A499B008C460A4962
:101A5000164063445960B3009B199B0063441A68A5
:101A6000200015408022520113431D6070BDC04606
:101A70000000E03F00000540FE0F000010B504002C
:101A8000006801210207520F93009B18064A9B0031
:101A9000944663441A68114080225201134319602E
:101AA00000F0B8FA200010BD0000054070B5140029
:101AB0001D000600002220002900234B04F02CF812
:101AC00000283ED0002220002900204B04F01CF802
:101AD000002836D03069716922002B0004F006F826
:101AE00000282ED122002B00346175611848194955
:101AF00003F09BFF0022184B03F085FF04F068F809
:101B0000736880B29C00E418144BA400E31870843E
:101B10001861134B9C46644404F01EF8B269F369E3
:101B200003F0A1FF04F054F8B36880B2002B09D091
:101B30000C4A0004236843401A4080235B0123437E
:101B40001A6070BD084AF5E7000059400088D3408C
:101B50002D211FF441CF1D410000F03F0000054042
:101B60000C0005400000FFFFFFFF0000F8B5140067
:101B70001D000600002200232000290003F0CCFFF6
:101B8000002807D0002220002900184B03F0BCFFDA
:101B9000002800D1F8BD2200B069F1692B0003F0E4
:101BA000A5FF0028F6D17368B461F5619F00FF18A6
:101BB0000F4B708C9C46BF00674403F0CDFF2B0099
:101BC000220003F050FF04F003F8B36880B2002B4A
:101BD00009D0084A00043B6843401A4080235B0157
:101BE0003B431A60D6E7044AF5E7C0460000F03FE1
:101BF0000C0005400000FFFFFFFF000020230268EB
:101C0000C1541207520F93009B18064A9B0094463A
:101C100063441A685140012211408022520113434B
:101C20001960704700000540F8B5264B8900CC5874
:101C300005002549201C04F01DFB00283FD0234946
:101C4000201C04F00FFB002839D0201C04F01AFBE4
:101C50002A696B6906000F0003F048FF00282ED1A7
:101C600032003B002E616F6119481A4903F0DDFE16
:101C70000022194B03F0C7FE03F0AAFF6B6880B285
:101C80009C00E418154BA400E31868841861144BF9
:101C90009C46644403F060FFAA69EB6903F0E3FE2D
:101CA00003F096FFAB6880B2002B09D00D4A000408
:101CB000236843401A4080235B0123431A60F8BD28
:101CC000094AF5E7D48301200000C84200409C4641
:101CD0002D211FF441CF1D410000F03F00000540C1
:101CE0000C0005400000FFFFFFFF0000D0231B0693
:101CF0001B687B4A99005258F0B5574692465A1EC7
:101D000093413022DE464E4645465B421A40130060
:101D1000744AE0B5944683B063440193724B88469D
:101D200008260F279B463500083DEA081300019955
:101D300008339B005C58002C22D00123994653465F
:101D4000002B27D039002140274213D05B46424662
:101D50009A584B46AB401A420CD1072208002A4041
:101D6000920090400200EB0860483C339B001A5000
:101D70002800D04724090135002C01D0AE42E1D81B
:101D80000836282ECFD103B0F0BCBB46B246A946D8
:101D9000A046F0BD39002140274206D00133AB40B8
:101DA000454651484059184276D02309E8D00F22C1
:101DB000110019401A420DD04546F31F0E3A9A40C1
:101DC00049484059104205D1DB08484A3C330901D3
:101DD0009B009950230AD3D00F22110019401A42B8
:101DE0000DD04546B31F0E3A9A403F484059104225
:101DF00005D1DB083D4A3C3309029B009950230B77
:101E0000BED00F22110019401A4236D1230CB7D090
:101E10000F22110019401A4243D1230DB0D00F22D6
:101E2000110019401A424BD1230EA9D00F221100E4
:101E300019401A420DD04546B31E0E3A9A402A4820
:101E40004059104205D1DB08284A3C3309069B0063
:101E50009950240F721E002C00D191E701234046B7
:101E6000934021490958194200D089E7D3083C33EF
:101E70001E4A24079B009C5082E74546731F0E3A7A
:101E80009A40194840591042C0D1DB08174A3C33E8
:101E900009039B009950B9E7144B3C329200D15092
:101EA00083E74546331F0E3A9A400F484059104287
:101EB000B3D1DB080D4A3C3309049B009950ACE7D1
:101EC0004546F31E0E3A9A40074840591042ABD19E
:101ED000DB08064A3C3309059B009950A4E7C0463D
:101EE000B4960120004101406C9B0120004001405C
:101EF000094A10B594464024830063441A68C00020
:101F00006240803414408022520113431C60034B12
:101F10009C466044416010BD04C001400040014047
:101F2000074B80009C4660440368C90092000A4346
:101F30005A400C231A4080235B0103431A60704708
:101F400004C00140D0231B061B6830B50500584271
:101F500043412F205B4283430D48EC088446072011
:101F600028408000814020000A4D3C3063448000BE
:101F7000A40041511B19002A04D08022920113436E
:101F8000196030BDC022920113431960F9E7C046C1
:101F90003041014000400140D0231B0670B51C6851
:101FA0000B4EA40033590500002B03D000280AD0A3
:101FB000355170BD0028FCD0305100220D2005495C
:101FC00000F052F9F5E70D20024900F047FAEFE77B
:101FD000B4960120ED1C00100123D022834012068C
:101FE00093629361094A40219446830063441A68CE
:101FF000C0004A40803111408022520113431960D1
:10200000034B9C46052360444360704704C0014075
:1020100000400140094A40219446830063441A6805
:10202000C0004A40803111408022520113431960A0
:10203000034B9C461F2360444360704704C001402B
:102040000040014070B5EFF3108C72B60D4D2B6857
:10205000002BFCD0BFF35F8F0724CB08C618C05CF1
:1020600001230C40A3401C000440034207D1184345
:102070003070BFF35F8F2C608CF3108870BD100040
:1020800001F0CCFC2C0100D0F8B54746CE4688467E
:1020900080B5EFF3108C72B6214D2C68002CFCD06B
:1020A000BFF35F8F9A422CD8D4080727055D061925
:1020B00001241740BC402C421FD00721012789462C
:1020C00009E0D408055D06194C4639001440A140CA
:1020D0000C00294211D001329342F2D20120404239
:1020E000BFF35F8F00220E4B1A608CF3108800281C
:1020F0000FDBC0BCB946B046F8BD254310003570B3
:10210000EEE7BFF35F8F00232B608CF31088012074
:1021100040424346002BECD0089801F07FFCC046BB
:102120002C0100D0024B18688007C00F7047C046D2
:1021300000C006400021044B044ABFF35F8F02C376
:102140009342FAD17047C046000100D0800100D010
:10215000044A1078431CDBB2172B00D910231370EC
:102160007047C046D485012010B5064B064C82B09E
:102170000100009318221F232000FFF785FF02B003
:1021800010BDC046B49F0010BC96012001238340BF
:10219000002904D0034A1360034A13607047034ABE
:1021A0001360FBE780E200E000E100E080E100E096
:1021B00001228240034B1B6813405A1E9341D8B240
:1021C0007047C04600E100E001238340014A1360EC
:1021D0007047C04600E200E0084B10309B6880006A
:1021E000C358002B07D0064A00209B1A2F229A4280
:1021F0004041C0B270470020FCE7C04600ED00E05F
:10220000D8850120024B10309B688000C058704771
:1022100000ED00E070B50D00EFF3108672B60F4AC6
:102220001368002BFCD0BFF35F8F0D4B10309B6801
:1022300084001B590B4A934203D09D4201D001F008
:1022400005FC074B9B681D51BFF35F8FBFF35F8F8A
:102250000022024B1A6086F3108870BD240100D062
:1022600000ED00E0CD010010F0B557464E46DE46C9
:102270004546E0B585B0060000911700EFF3108BDE
:1022800072B66B4A1368002BFCD0BFF35F8F00253A
:10229000684B5D579A46002D00DA8CE06B00664C67
:1022A00001935B199B009846A146C1444B46524698
:1022B0009B7910361370614BB6009B6899590B1BC4
:1022C0002F2B33D95E4B994200D0ADE0019B4246A3
:1022D0009C465C4B6544AD0063535B4B0232A218D5
:1022E000043B9B1A1B05594A5B0D651913436B8010
:1022F000574B0121AB80FF23AB71009BEF71AB60AB
:102300004B460B4319004D4B9B689951BFF35F8FB0
:10231000BFF35F8F0022464B1A608BF3108805B025
:10232000F0BCBB46B246A946A046F0BD01200A005B
:102330008243D3798C46BB4231D845461300454988
:102340001B1B5B415943090D3E4B63533E4B02350A
:102350006519043B5B1B1B053C4D5B0D2B43AA46DB
:102360004D466B800425AC465546E044131F44445B
:102370001B1B1B055B0D1D434B46997100999D80EE
:1023800099604946DF71344B01431360BBE7580045
:10239000C01880002018C179B94212D90200062362
:1023A000D356002BF3DA0293131D9A46BD231B026A
:1023B0006146039319E001F049FB002553465D5740
:1023C0006CE7908802934005131D9A4603156146F9
:1023D0009C464046D444634604302018181AE02333
:1023E0000005400D1B021843039004235B429C46EA
:1023F000E14450464B461B1A1B055B0D9C46134B94
:10240000957198466346404603439380019B5A1951
:102410009200039BA418A380029B0F4AA371009B08
:102420002260E771A3606EE701F010FB4EE7C04643
:10243000240100D0B99B0120D885012000ED00E0E7
:10244000CD01001000A1FFFF0886012000E0FFFF82
:1024500000BDFFFFAAAA000001488047F0B5DE4694
:1024600057464E464546E0B50C0083B0EFF3108A60
:1024700072B6604A1368002BFCD0BFF35F8F102246
:10248000914681444A465C4B96009B689D595B4B44
:1024900098469D4205D0A54216D0594FEB1B2F2BD5
:1024A00014D9554B9B689D51BFF35F8FBFF35F8F6E
:1024B0000022504B1A608AF3108803B0F0BCBB4670
:1024C000B246A946A046F0BD1D00EAE701238340BD
:1024D0009B465A464B4B1B681A4000925A464A4B41
:1024E0001A60BFF35F8FFDF7BEFE031E01901DD182
:1024F0002A0001339A439068844208D171E04B006E
:102500005B189B00FB189868A04245D01A00062172
:1025100051560029F3DA84426AD0009B002B34D054
:102520005A463A4B1A60374B1A60BAE7814530D1A8
:102530002A0001239A4390688442E8D1062151562B
:102540001300002940DB4A00501880003C188046E8
:10255000A0689860E079D87106202056987100280C
:102560002FDBA488F81A6405241544440019E024DC
:102570000005400D2402204398805318244A9B00F4
:102580001078FB1898711170C7E75A461E4B1A60F5
:1025900087E701F05BFACBE7062159560029D2DA2A
:1025A0000199002910D1FF3191711A499180184980
:1025B0000A789A71184ADB1B5B415A43120D0A7064
:1025C000ABE7BD200002D7E7144A1549D21A083AF2
:1025D0005002400D01439980124952080A43DA80A3
:1025E0009BE70621515613000029ACDA4546DEE789
:1025F0001300D5E7240100D000ED00E0CD0100106C
:10260000D885012000E100E080E100E080E200E008
:10261000B99B012000BDFFFFAAAA0000128601207D
:1026200000F0FFFF00F8FFFFF8B5012504000543A7
:10263000FDF719FEEFF3108C72B6214A1368002BD8
:10264000FCD0BFF35F8F1F4E2100B7681E4A1F4B9F
:10265000891A49414B431B0D59B28300F858A842CF
:102660001CD00623D3568B421CD01223D3568B4248
:1026700022D01E23D3568B4220D02A23D3560320A8
:102680008B4210D0124B1A781970A271BFF35F8F72
:1026900000220B4B1A608CF31088F8BDB2680D480D
:1026A000D050EFE7002043001B189B00D218FF23F7
:1026B0009371094B9380E5E70120F4E70220F2E7EC
:1026C000240100D000ED00E0D8850120AAAA000076
:1026D000B99B0120CD01001000BDFFFF054B064A4C
:1026E0001360064A136053609360D36013615361B3
:1026F000936170478080808000E400E004E400E0A3
:10270000D02300B51B061B680100074883B01818CA
:10271000064B002200930523FFF7B6FC002801DBDF
:102720001F23181A03B000BDB09B0120D09F0010DA
:1027300070B504000E001500FFF70AFD010020002F
:1027400000F006F8A680E580BFF35F8F70BDC0463D
:10275000024B9C4661448900016070474000003490
:1027600083680B4810B58446614462441201090134
:1027700059189B185C684A680120944201D802D01D
:102780000020C0B210BD1A680B689A42F9D8F7E76A
:10279000FFFFFF0F10B508000B690C0098470028D9
:1027A00002D02068616810BDE06000210020FAE7D7
:1027B0000A4B1968EFF3108072B60A68002AFCD041
:1027C000BFF35F8F1B68BFF35F8F00221A6080F337
:1027D000108840BF002000217047C046809B012028
:1027E000F8B5574645464E46DE46E0B598460CAB32
:1027F0001C780DAB1B78070091469A460568002CA3
:102800005ED1AC7B002C3BD0660029683619033EB4
:1028100089194B78AB73002B00D1EB7300238B70BD
:102820004B700B702D4BE218BB6812019B184A4687
:102830001A6042465A600A9A9A600B9ADA6000233C
:102840008B704B700B706B7B9B46002B2BD0220048
:102850005946A8686B6898472A68002816D05B46D6
:1028600058465B005B449619033BB070D118D35CAB
:10287000002B00D073705B460C706B735C4513D0FB
:10288000F0BCBB46B246A946A046F8BD5B465B001D
:102890005B44033BD3189C709119925D002A00D0D1
:1028A0005A705B460B706C734A464346387D00F0A5
:1028B00065FD051E0AD10E9B002BE1D01D70DFE7E0
:1028C000660029683619033E8919ABE75346002B89
:1028D000F1D12100386800F0A7FFECE7FFFFFF0F00
:1028E000F0B5DE4657464E4645460023E0B58DB06E
:1028F0000A936A4B8200D75800239B460B9000F046
:10290000DDFC02000B007868EFF3108972B64D46CB
:1029100001680029FCD0A946BFF35F8F39684E7B60
:102920008C46002E2ED0BC685D49A2467118090164
:102930008A4451460868496804000D00A41A9D4164
:10294000002D5EDD02000B000B9800F017FD002348
:1029500000229A46002308920993002398467B6838
:10296000BFF35F8F5A461A6089F310884346002BE5
:1029700012D10028C3D10DB0F0BCBB46B246A94667
:10298000A046F0BD002300229A4600230892099336
:10299000002300209846E2E70A9B51461802304384
:1029A000C047069007917A68EFF3108572B65446D7
:1029B0001368002BFCD0A246BFF35F8F0699079ADD
:1029C000002A3BDB114302D03B69002B52D13B680C
:1029D000D97B002905D01A68480041185218033ADB
:1029E0005670DE73FA68013E935D013393555B4682
:1029F0003B617B68BFF35F8F5A461A6085F310888E
:102A00007DE7002D01D1002C9CD10021604600F013
:102A100073FE53465C681B680893099453469B6891
:102A200098465346DB689A46FB689B19013B1B7826
:102A30000A931B0203433B61002090E73B69002B94
:102A4000C5D0089B099C5B1A9441089809991A0003
:102A50002300A14219D899421BD0002104910131D1
:102A60000391514601914146380002960091FFF7CB
:102A7000B7FEBCE700F022FC069A079B12184B41F8
:102A8000994202D8E9D19042E7D901225242D317A4
:102A9000E3E708999142E0D9F7E7C0465C9B012043
:102AA000FFFFFF0FF8B557464E464546DE46E0B5F8
:102AB000404D824689466A68EFF3108872B6136803
:102AC000002BFCD0BFF35F8F2E68B47B002C48D066
:102AD000670033683F19033FDB195A78B273002A45
:102AE00000D1F273344AA118AA680901521851465C
:102AF000116049465160314991600021D16099705F
:102B000059701970737B9B46002B45D022005946A3
:102B1000B068736898473268002830D05B465846E2
:102B20005B005B44D719033BB870D118D35C002B12
:102B300000D07B705B460C7073735C452DD0002613
:102B4000EB681B19013B19786B68BFF35F8F00229C
:102B50001A6088F310880020002E0AD10802204352
:102B600007E06B68BFF35F8F1C6088F3108801205B
:102B70004042F0BCBB46B246A946A046F8BD5B4603
:102B80005B005B44033BD3189C70D119D25D002AD3
:102B900000D05A705B460B70747352464B46287DCA
:102BA00000F0ECFB061ECAD02100286800F03CFEB5
:102BB000C6E7C04620860120FFFFFF0FB1270010A7
:102BC00010B5124C6368002B04D00A211048FFF79F
:102BD000BFFD10BD23000F4A1021206800F08CFCBF
:102BE000032000F05FFB032000F036FC03200A49BD
:102BF00000F07EFBFFF7ACFA084B9C4603236044D1
:102C00002375074B80006060DC60DEE720860120D2
:102C1000809B012061270010E12800104000003453
:102C20005C9B01200048704720860120F0B5574684
:102C30004E464546DE46E0B585B0019310AB1B78A5
:102C40000600039300239A46984600927268EFF3B9
:102C5000108B72B61368002BFCD0BFF35F8F356802
:102C6000AC7B002C6BD067002B683F19033FDB194E
:102C70005A78AA73002A00D1EA73524AA118B2689E
:102C80000901521800980199106051600E999160E5
:102C90000F99D16042469A705A701A706B7B9946B0
:102CA000002B00D175E022004946A8686B68984760
:102CB0002A68002860D04B4648465B004B44D71931
:102CC000033BB870D118D35C002B00D07B704B460F
:102CD0000C706B734C455DD0F3681B19013B187881
:102CE0007368BFF35F8F42461A608BF310885346B8
:102CF000002B08D10002204305B0F0BCBB46B24611
:102D0000A946A046F0BD039B002B59D00E9B002086
:102D10000F999847030004000D000B4350D0002981
:102D200016DA0098019902000B00121BAB41994280
:102D30001CD83CD000920193039B9A4686E77368A7
:102D4000BFF35F8F1C608BF3108801204042D3E7F4
:102D500000F0B4FA02000B00A4185D410094019544
:102D6000A94203D8E8D100998A42E5D901235B4200
:102D7000DC1700930194DFE74B465B004B44033BB9
:102D8000D3189C70D119D25D002A00D05A704B46DE
:102D90000B706C73307D009A019B00F0EFFA824655
:102DA000002899D02100306800F03EFD94E700999A
:102DB0009142BFD901235B42DC1700930194BBE72A
:102DC000002099E7FFFFFF0FF0B557464E46DE465D
:102DD00045461100E0B585B006009C46109F19439A
:102DE00000D1F9E06146DB170193009353401C00CA
:102DF000019B4B401D0000980199241A8D416346A8
:102E00000E997B600F9B3A607B61BE60396100F078
:102E100055FA02000B00A4185D4100940195A942E7
:102E200000D9E3E000D1DDE000239846744B109711
:102E3000039300239946109B3700464698467A68CC
:102E4000EFF3108B72B61368002BFCD0BFF35F8FCB
:102E50003D68AC7B002C00D174E063001B19033B80
:102E60001A00944602932B6863445A78AA73002A86
:102E700000D1EA73634AA118BA6809015218009890
:102E8000019910605160039991604146D1604A46B2
:102E90009A705A701A706B7B9A46002B00D184E0AE
:102EA00022005146A8686B6898472A68002800D11C
:102EB0006DE053465B005344033B9C46D118534698
:102EC0000298101883706346D35C002B00D04370C7
:102ED00053460C706B733500544567D0FB687A68B5
:102EE0001B19013B1B78BFF35F8F494611608BF3C1
:102EF0001088002D0CD147461B02234301352800C2
:102F0000FB6005B0F0BCBB46B246A946A046F0BD8A
:102F1000434640461B699847061E1FD04246146828
:102F2000556822002A4367D0002D1ADA00980199CB
:102F300002000B00121BAB41994222D843D00092F1
:102F400001937CE73E0047467368BFF35F8F1C60C8
:102F50008BF31088012300255B42D0E7474600230E
:102F6000CDE700F0ABF902000B00A4185D4100941E
:102F70000195A94205D800D061E700998A4200D89E
:102F80005DE701235B42DC170093019457E753464A
:102F90005B005344033B0298D3189C701118125CD9
:102FA000002A00D05A7053460B706C73387D009A1B
:102FB000019B00F0E3F9051E00D18FE7210038687E
:102FC00000F032FC8AE700999142B8D901235B42B4
:102FD000DC170093019432E700230124002501222D
:102FE0009C460CE700998A4200D81DE701235B420A
:102FF000DC170093019417E74746050000237EE79E
:1030000095270010FFFFFF0FF0B504000D00062606
:103010007642F717C64636196F4100B58F4213D86E
:1030200010D000F04BF932003B00121A8B41002BFC
:1030300014DC002B37D02900200000F049F980BCB7
:10304000B846F0BD8642ECD90026002700F036F9DC
:1030500032003B00121A8B41002BEADD30003900B0
:10306000FFF720FD0028E6DB00239846BC460F4A08
:103070000F4F7B6A9C4504D8B96AB142DBD29C45AC
:10308000D9D11168EFF3108072B60B68002BFCD019
:10309000BFF35F8F1368BFF35F8F4146196080F302
:1030A000108820BFE5E7002AC5D0D7E7809B012024
:1030B0000040054070B504000D0000F0FFF802006C
:1030C0000B0020002900801859418B4205D802D0FE
:1030D000FFF79AFF70BD8242FAD901204042C11722
:1030E000F6E7C04670B5060000F0E8F8FA220400E2
:1030F0000D00002330000021920003F071F8001948
:1031000069418D4205D802D0FFF77EFF70BD844231
:10311000FAD901204042C117F6E7C046F8B5CE46BD
:10312000474680B505000C00FFF7BCFC031E0CDC15
:103130002C4A0020536A9C4203D8926A0130AA426A
:103140003ED3C0BCB946B046F8BD20BF264E71681C
:10315000EFF3108772B60A68002AFCD0BFF35F8FC6
:10316000DAB294463068427B624533D0FF22016870
:103170001A408946510088464946904441440339E3
:103180008978002921D0F1681B0A8A18013A12783F
:10319000DBB29A4221D07368BFF35F8F00221A60BE
:1031A00087F310880F4B00205A6A9442C9D89B6A53
:1031B0000130AB42C5D2A01A431E9841C0B2C0E74D
:1031C000E31A5A1E9341D8B2BBE732699342E2D167
:1031D0003161E0E7FF221A40D5E7614600F024FBA9
:1031E000D9E7C0460040054020860120F0B5D6460C
:1031F0004F464646C0B5EFF305823F231340180003
:103200001038EFF3108C72B620490A68002AFCD0FF
:10321000BFF35F8F0122170087401D4C1600A246A6
:1032200067631C4C2578A0462C00C44026402242EF
:1032300015D05246566A184A8400A258964218D3AE
:103240004246164BBD43E3581570BFF35F8F002213
:103250000A608CF31088002B06D0984704E0BFF377
:103260005F8F0E608CF31088E0BCBA46B146A8466A
:10327000F0BD0B4A9B00904643441A681A60BFF3A6
:103280005F8F00230B608CF31088EDE7280100D0DE
:1032900000400540BC9B01208C9B012090950120A3
:1032A000D03F054010B5034B01001800024AFEF75D
:1032B000C9FE10BDB89B0120EC9F0010034B596A5A
:1032C0000A00986A596A8A42FAD17047004005405C
:1032D000064A536A9942FCD807D1044B02E05A6A65
:1032E000914202D19A6A8242F9D370470040054068
:1032F00070B504000D00EFF3108672B61A4A136819
:10330000002BFCD0BFF35F8F002D1BD02000FEF7F9
:1033100079FF164981420AD02000FEF77BFF012188
:103320002000FEF733FF0123A340114A1360114B25
:10333000A400E550BFF35F8F00220B4B1A6086F3A9
:10334000108870BD0121A1400A4BA200D5500A4B44
:1033500020001A788A4305491A70FFF77FF8002188
:103360002000FEF713FFE5E7280100D0ED31001043
:103370003860054090950120BC9B0120F0B54F4678
:10338000D6464646C0B507002E4C616A0D00A66AB7
:10339000616AA942FAD18B4208D805D00120E0BC6D
:1033A000BA46B146A846F0BDB242F7D9EFF3108A4B
:1033B00072B6254801680029FCD0BFF35F8F012554
:1033C000BD4022491F4C8846097889462943C9B225
:1033D0008C46414660460870391D890065630A5174
:1033E0001B49B8004350216A0020294219D0616A64
:1033F0000800A66A616A8142FAD18B4219D801D1CC
:10340000B24216D8CC450BD00E4B1F221D625D6315
:1034100001233A4093400F4A136043464A461A70CC
:103420000120BFF35F8F0022074B1A608AF31088D8
:10343000B5E70020BFF35F8F0022034B1A608AF3C9
:103440001088ACE700400540280100D0BC9B01205B
:103450008C9B012080E200E0EFF3108C72B60A49E9
:103460000B68002BFCD0BFF35F8F01238340074A1A
:103470000748136202789A430270BFF35F8F0023FC
:103480000B608CF310887047280100D00040054085
:10349000BC9B012070B505000E001400002923D04C
:1034A000002A12D080686B689847296800280ED0DF
:1034B00063001B197200033B9219CB18033A9E70EC
:1034C00088188A5C002A11D10470300070BD730026
:1034D0009B196200033B1219CB18033A9C708818A1
:1034E0008A5C002A05D106702000EFE75A7004704C
:1034F000EBE75A700670F7E730B583600023CCB273
:1035000043730133047342608373C4730D00006816
:10351000012C06D9421C0133DBB2137003329C42EA
:10352000F9D1FF2129404B005B18C0180023033854
:10353000437030BD70B505000C1E07D063000168F4
:103540001B19033BCB185A78002A01D1200070BD0B
:10355000500080180338091800204E784870210068
:1035600058702800FFF796FF310004002800FFF78D
:10357000E1FF0600002C26D00028E7D02100320011
:10358000A8686B689847296800280ED073009B19BB
:103590006200033B1219CB18033A9C7088188A5CAE
:1035A000002A00D05A700670D0E763001B19720021
:1035B000033B9219CB18033A9E7088188A5C002A44
:1035C00000D05A7004703400C0E7C046F8B55746C2
:1035D0004E464546DE464C00E0B5641817000268CA
:1035E000033C0500105D13190E009C46002852D0C4
:1035F000430098461B18033BD31859788A46002984
:1036000019D1002F0CD0EC7B002C50D063001B197B
:10361000D318033B5E70EE734346191803395318F1
:1036200000229A70002362465370F0BCBB46B2463B
:10363000A946A046F8BD49005144033952185178B3
:103640008846002151708946597052460100280071
:10365000FFF720FF43468246002B07D05B00296816
:103660004344033BCB185A78002A2CD1514642469A
:103670002800FFF70FFF0100002F1AD0A4462A6888
:10368000EF7B9444002F04D07B00DB19D318033B5D
:103690005E70EE7310E0002FC4D0E97B002910D0DB
:1036A0004B005B18D318033B5E70EE73BAE7EE7302
:1036B000B6E7A4462A6894440029B3D04B00984644
:1036C000AAE7EE73AEE7500080180338091848786F
:1036D000834648464870587041462800FFF7DAFE96
:1036E000594680462800FFF725FF41460200280082
:1036F000FFF7D0FE8046B9E7F8B557464E46454637
:10370000DE46E0B5467B02687500AD19033D0F004B
:10371000515D531904009C46002953D04B00984634
:103720005B18033BD3185878824600281BD1002F22
:103730000CD0E57B002D51D06B005B19D318033BF7
:103740005E70E673434658180338131800229A70C7
:1037500000236246300053706173F0BCBB46B24632
:10376000A946A046F8BD40005044033812185078CE
:103770008046002050708146587052462000FFF766
:1037800089FE43468246002B07D05B0021684344F4
:10379000033BCB185A78002A2CD1514642462000D0
:1037A000FFF778FE0100002F1AD0AC462268E77BB5
:1037B0009444002F04D07B00DB19D318033B5E70C8
:1037C000E67310E0002FC3D0C07B002810D0430068
:1037D0001B18D318033B5E70E673B9E7E673B5E7D1
:1037E000AC46226894440028B2D043009846A9E72A
:1037F000E673ADE75000801803380918487883460F
:1038000048464870587041462000FFF743FE59462D
:1038100080462000FFF78EFE414602002000FFF7A1
:1038200039FE8046B9E7C04670B5050000292CD0A6
:10383000437B8B422ED04C0000686418033C041973
:10384000A278002A21D053009B18033BC25CC61803
:103850008A4202D11BE0002A08D053009B18033B88
:10386000C3185A788A42F6D162785A70002301222E
:103870002800A3706370FFF7A9FE697B020028008F
:10388000FFF708FE6873012000E0002070BD637838
:103890003370EBE701221900FFF798FEF2E7C0460C
:1038A00010B50400FEF754FC01002000FEF750FFA5
:1038B000FF232371BFF35F8F10BDC04610B5040016
:1038C000FEF746FC01002000FEF742FFFF23A38025
:1038D000BFF35F8F10BDC04610B504000120FEF796
:1038E00043FC034BC3189B002360BFF35F8F10BDE5
:1038F000400000342C4B2D4A70B51A602C4A2D4BD9
:103900002D491A6014008B689C43FBD12B4D2C4E23
:10391000B54208D2013E761BB60808CD9847230071
:103920000134B342F9D100F097F8264A214B1A60CE
:10393000214A9368DB43DB01DD09002BF9D14022EA
:10394000214B224C224E9A675A671A67DA66B442B4
:1039500008D223682000002B20D00834FFF7AEFFE8
:10396000B442F6D31B4C1C4EC022B168200002F0BA
:103970002FFDB460FEF7DEFBFEF7B0FEFFF720F987
:10398000164C174EB44208D2013E361BB60808CC7E
:1039900098472B0001359E42F9D170BD0834FFF7DE
:1039A0007FFFB442D5D3DDE700E00040BFCDFBFE92
:1039B000FE7F3C0000F0004000C00040F88B01207A
:1039C000088C0120FFFFFF0100F00140E88B01207F
:1039D000F88B01200000002000ED00E0088C0120A1
:1039E000108C0120094A03001068002805D00849FE
:1039F000C3188B4207D81360704706480449C318A0
:103A000010608B42F7D901204042F5E7349701203E
:103A100000000420C09B012000BEFDE70FB400B5EC
:103A2000084883B002F0C4FD049B002B07D005A911
:103A30001800019101F02AFD034802F0B9FD00BE13
:103A4000FDE7C04610A00010249C001010B50148EE
:103A5000FFF7E4FF20A0001010B50C2082B000F0AA
:103A6000A9F9FEF75FFB002810D0864B86488649EF
:103A7000864A186059609860D960186159619861E8
:103A8000D961186259625A6202B010BD804CA067B9
:103A900000F0E6F901227F4B1A60636C012BFCD128
:103AA00003227D4B1A607A4A936B012BFCD10133C0
:103AB00001217A4A7A480093043300F027F905235C
:103AC000784A00930121784800F020F9774B5A6832
:103AD000FF2A02D8802252005A6080226E4B694C25
:103AE00012011A602169002905D0606901F048FDC2
:103AF00001300138FDD1E0226C4B6D4819680A4055
:103B0000026002221968514001320A400421026019
:103B10009A681142FCD08021664A09011160802216
:103B200052005A60644B2361644B5968FF2900D8E6
:103B30005A6003220121574B1A60604A9368194268
:103B4000FCD0E023106803405D4803601268032343
:103B50004A4002211340594A036093681942FCD03D
:103B60008021584B090119608021574B4900516051
:103B70006361564B5A68FF2A00D859608022544B23
:103B800012011A60E169002905D0606901F0F8FCB2
:103B900001300138FDD1E0234C4A11680B404D49FA
:103BA0000B6080214C4B090119608021364B490084
:103BB0005160E361494B5A68FF2A00D8596080225E
:103BC000474B12011A60216A002905D0606901F093
:103BD000D7FC01300138FDD1E023404A11680B4089
:103BE00040490B608021404B0901196080235B0034
:103BF00053608022244BD20223623C4B596891428D
:103C000000D25A6080223A4B12011A60616A002980
:103C100005D0606901F0B4FC01300138FDD1E0232A
:103C2000324A11680B4033490B608021324B090145
:103C300019608023DB025360144B63622F4B5A6878
:103C4000FF2A02D8802252005A6080222C4B120197
:103C50001A60A169002905D0606901F091FC01306A
:103C60000138FDD1E023254A11680B4025490B603E
:103C70008021254B0901196080235B005360124BA2
:103C8000A36101E7108C0120006CDC021BB700006F
:103C9000008000403CB0004030B00040002F685928
:103CA00000800240008C864700C002403080004007
:103CB0003090004030A00040001BB7003C80004026
:103CC0003C9000403CA000404059730754800040A5
:103CD00054B000405490004054A000406080004028
:103CE00060B000406090004060A000406C800040E8
:103CF0006CB000406C9000406CA0004048800040D8
:103D000048B000404890004048A00040F8B504008A
:103D10000C2017001D000E0001F032FC43011B1A9D
:103D20009901C91AC90009188901380001F028FC55
:103D3000069B29041B0319432368002B20DB194B26
:103D4000194DE3185A4253418022520194461B03F5
:103D5000164A63441360164A13601F00AA6897430B
:103D6000FBD1C023221D9B01134321222660A060AA
:103D70001A602268002AFCDA0822E1601A60F8BDA5
:103D80003F2322681340B342D9D1A3681B051B0D02
:103D90008342D4D1EE22E368D20213408B42CED1CB
:103DA000EDE7C0460040FDBF00C0004000E000401D
:103DB00000F000408023024A9B000343D362704717
:103DC0000080054010B580241C4BE4051C600028D1
:103DD0001AD001231A4C18431A4BDC611A4C444088
:103DE0001C62596298628021144BC90519601748FA
:103DF00017490860E021C9041960002A07D1802210
:103E0000144B12061A6010BD0E4BD861EBE753013C
:103E10009B1A9B009A18802312015B049A4209D2D4
:103E200013000D490B60074B5A608022094BD205E5
:103E30001A60E8E7094B1A00F3E7C04600B00540F6
:103E4000D3C007B0008005402D3FF84FFCFF0100B4
:103E50000820014000A005403C9B0120FFFFFF001F
:103E6000AA23064A1B0113602F230549D360054B83
:103E700019605368002BFCDA7047C04600400240CE
:103E800000B0FA00006002407047C046F8B55746DF
:103E90004546DE464E46E0B598460A9B06009A46E1
:103EA0000D9B0F00934615009B0710D10B9B0C9A9E
:103EB00093420CD213005C460B9A9D1A5D4422007B
:103EC0004346013439002020B047A542F7D10B9C6E
:103ED0006319002C09D01D0053462A1B013C185DB4
:103EE00039004346B047002CF6D10D9B9B070ED5F9
:103EF0005B46EC1A0C9BA34209D999462A0043461B
:103F0000390020200134B0470135A145F6D82800FA
:103F1000F0BCBB46B246A946A046F8BDF0B54F4638
:103F20004646D646C0B584B098460EAB1B7894463C
:103F30009946129B0D9C109F119E9A0724D4002E27
:103F40006AD1BC4220D201221A409246202C00D1D4
:103F5000CBE00C9A551E302201E0202C30D00134E9
:103F60002A55A742F9D85246002A0DD0B4420BD2A6
:103F70000C9A551E3022202C02D126E0202C61D034
:103F800001342A55B442F9D1DA0634D55A0562D43F
:103F9000002C5CD10F9A102A00D191E0022A00D1A6
:103FA000A1E030220C9C227001244A46002A5CD1F8
:103FB0005A0700D47DE02B220C9D2A5501341CE0C9
:103FC0005246002A02D0202E3CD92024DA0614D5ED
:103FD0005A0512D4202F00D197E0202E3BD1202665
:103FE0001F2234000F9D102D00D181E0022D4CD0F6
:103FF00030250C9FBD54202CD7D103930C9B6246D7
:104000000093029643460194FFF740FF04B0E0BCE2
:10401000BA46B146A846F0BD012215001D40AA4689
:104020001A4227D04A46002A33D10C321A4230D1E4
:10403000BC429BD2202C00D08BE7202EC5D8DA06BC
:10404000A4D4DAE72024DA06D7D55A0503D4A74248
:1040500021D0B4421FD00F9A102A21D0022A10D0AA
:10406000202CCAD022000134C2E72D220C9D2A55F3
:104070000134C2E7BC4200D386E7202C00D068E7B9
:10408000E1E7202CB9D02200013462250C9FBD54F9
:10409000E6E7013ECCE7621E012C00D17AE7A1E7FA
:1040A0009A0616D4202CA8D078220C9D2A550134CB
:1040B000D6E71A07A1D520220C9D2A5501349CE78A
:1040C0009A060ED478220C9C227030226270022450
:1040D0006BE7202C91D058250C9A121915700134D9
:1040E000BEE75822EFE76222EDE7002AA7D1AAE750
:1040F000023C9D0604D478250C9F3D551400B1E781
:1041000058250C9F3D551400ACE71F226AE7C046B6
:1041100010B5002800D110BD02F0F8F9FBE7C04649
:104120000B0010B5002802D049681B68984710BDE5
:10413000F0B557464E464546DE46E0B599B0824654
:10414000894690460993229A239B1000190001F09A
:10415000F0FC002800D0C8E0229823990122D54B1A
:10416000524201F0E1FC002800D0BEE022982399E1
:104170000122D14B524201F0C1FC002800D0B4E032
:10418000229823990022002301F0B8FC002800D0D7
:10419000E9E1229E239F8023269ADB001A400D929C
:1041A000269A1A4201D1062324933B00334300D0C0
:1041B000B4E0269B1B0500D5BFE1002300240A9331
:1041C0000B94002304250C93259B0024AB4200D9BB
:1041D0005C1B0223269A1A400D92269A134203D0A2
:1041E0006B426B415B421C400C9B002B07D00A9A30
:1041F0000B9B3000390001F018FC06000F002298DC
:1042000023990022002301F079FC002803D08021AB
:1042100009067B181F00269AA84B009601971340A9
:10422000099E0493249B039402934246330049461B
:10423000504600F0A7F90400002D67D02020269AF0
:104240004946024013005A4253415B42621C1840E7
:104250000A92330022004530D0470C9A6F1ED317C4
:10426000D4185C40D30F9B46002501E0202D13D0CD
:1042700008AA94461F23200063440A2101355E19D1
:1042800001F07EF93031317020000A2101F078F917
:1042900026000400092EE9D8052306930023049381
:1042A0000A3303935B46099E029310AB0A9A00936C
:1042B00049463300504605970195FFF72FFE0D9AAA
:1042C0000400002A22D04246851A259AAA421DD906
:1042D000B046574616002200434649462020013585
:1042E000B8470134AE42F6D810E0269B424604930C
:1042F000259B49460393249B50460293229B239C73
:1043000000930194099B00F03DF90400200019B0CE
:10431000F0BCBB46B246A946A046F0BD684B78004B
:104320009C46400D604401F017FC664A664B01F064
:104330009AFB664A664B01F06FFB664A3B031B0B18
:104340001A4304000D00644B11003000002201F0FC
:104350005AFB624A624B01F086FB02000B00200010
:10436000290001F059FB01F00FFC0C9001F0F4FB67
:104370005C4A5D4B04000D0001F075FB00225B4BB5
:1043800001F04AFB01F000FC594A8346594B2000DA
:10439000290001F068FB040058460D0001F0DCFB29
:1043A000554A564B01F05FFB02000B00200029002C
:1043B00001F029FB02000B000A900B9101F053FB66
:1043C00004000D000A980B9902000B0001F024FB79
:1043D00000220E900F914A4B2000290001F025FB8E
:1043E0000022484B01F018FB02000B0020002900BE
:1043F00001F01BFB0022444B01F00EFB02000B00FE
:104400002000290001F011FB0A9A0B9B0D0080216E
:104410000400C905002001F0F6FA02000B0020009C
:10442000290001F0F9FA394C02000B000E980F999F
:1044300001F0FBFA5C440022264B01F0EDFA230563
:10444000002201F010FB04000D0002000B00300000
:1044500039000A940B9501F051FB00285ED123002E
:104460002A00C6250C9963318D42AD4126996D42D3
:104470000435090500D4A7E6134364D030003900A1
:10448000234A244B01F048FB002807D000223000CB
:104490003900214B01F032FB002854D1249B002B22
:1044A00000D191E60D9B5A1E9341249AD31A24936E
:1044B0008AE6C046FFFFEF7FFFFFEFFFFFF7FFFF3A
:1044C00001FCFFFFFB799F501344D33FB3C8608BBF
:1044D000288AC63F0000F03F0000F83F61436F6349
:1044E000A787D23F71A379094F930A400000E03FAC
:1044F0001655B5BBB16B0240EF39FAFE422EE63FCE
:1045000000002C400000244000001840FF03000081
:104510002D431CEBE2361A3F80842E410C9B002277
:10452000013B0C932000164B290001F07EFA0A0093
:10453000010003000A910B9293E7002300240A93E1
:104540000B9400230C93249A0C9B9A4214DDD31AEB
:10455000013B24938023269ADB001A430023002585
:1045600026920C9330E6802212069446229B1E006F
:10457000239B63441F000EE600232493EAE7C04612
:1045800000002440F0B54546DE464E465746E0B5AD
:1045900095B08B46904699461E9A1F9B0A9019002B
:1045A0001000209D01F0C5FA002800D0B0E11E984F
:1045B0001F990122C74B524201F0A0FA002800D0F7
:1045C00037E11E981F990122C34B524201F0ACFA09
:1045D000002800D0A7E01E981F990022BF4B01F0D1
:1045E000A3FA002800D088E01E981F990022BC4B37
:1045F00001F084FA002800D07FE01E981F99002265
:10460000002301F07BFA002800D0FAE000230B938E
:104610008023229C229ADB001C401A4200D102E136
:10462000092D00D87EE106A98C462C001722002314
:104630003021093C62440133D154EF1A202B00D1C0
:1046400032E1A342F7D10022A44B069207931E98B1
:104650001F9901F099FA050001F07EFA02000B00A3
:104660001E981F9901F0CFF9069A079B01F0FBF9FC
:104670000890099101F0ACFA060001F069FA020015
:104680000B000898099901F0BEF90022954B08909B
:10469000099101F049FA002800D1D2E0013630003A
:1046A00001F056FA069A079B01F036FA002801D06D
:1046B00000260135AA46002F00D098E0280001F01E
:1046C0004BFA02000B001E981F9901F09CF9854BD4
:1046D000002206000F0001F011FA0CAB9A460028E8
:1046E00045D10022300039007E4B01F01DFA002830
:1046F0003DD1EB073BD5013539E0229B424604937F
:10470000219B594603930A981E9B1F9C0295009378
:1047100001944B46FFF70CFD15B0F0BCBB46B2460A
:10472000A946A046F0BD229B5B0767D403226E4BCF
:1047300022990192039121990291009342464B469E
:1047400059460A98FFF7A2FBE6E706AA9446172304
:10475000280063440A2101341E1900F0E9FE3031BB
:10476000280031700A2100F0E3FE051E76D0202CCF
:10477000EBD10323229A1340012B1DD1219B002B47
:104780001AD00B9B002B00D0BBE0229A0C331342B3
:1047900000D0B6E0219BA34200D887E006AB9C4640
:1047A00017223023624404E02199013413558C42CE
:1047B00059D0202CF8D12024229B01940393219BD3
:1047C00002935346B9E706AA944617230A21634485
:1047D000300001341D1900F0D3FE30312970300053
:1047E0000A21013F00F0CCFE092E46D90600202CFC
:1047F000E9D155460CAB20249A46B8E704223B4B3E
:1048000096E71E9A1F9B0020002101F0FCF801236F
:104810000B938023229C229ADB001E901F911C4048
:104820001A4200D0FCE60022314B0627069207937D
:104830000DE7229B0393219B0293042301932D4BAD
:104840007BE7002208980999264B01F057F90028C8
:1048500000D02FE7002E4FD101362BE70323229AF9
:104860001340012B68D0202CA6D00B9B002B1FD00F
:104870002D235246135501349EE75546202CB9D0BE
:1048800030223B19002F4BD0172006A901340918FC
:104890000A55202CAED09C42F6D10CAA92462E226C
:1048A00051465C1CCA5462E72024CCE6202C83D0FD
:1048B000229B5B0708D4229B1B0700D47CE72023A4
:1048C00052461355013477E72B23524613550134D2
:1048D00072E7C046FFFFEFFFFFFFEF7F65CDCD41E1
:1048E00065CDCDC10000E03F34A000102CA0001029
:1048F00080842E413CA00010F30700D4DAE6013694
:10490000D8E6219B013B2193A34200D946E7AAE7C1
:10491000229B0393219B029303230193084B0CE7F3
:104920002300BAE7074BEA009B185C681B682F005E
:104930000693079400248AE6219B002B93D020E75E
:1049400038A00010E0A10010F0B5DE4657464E46F4
:104950004546E0B59FB01C00289B93460A93CC4A7D
:10496000CC4B8A4609901A60002900D14DE1002302
:1049700020789946002800D14FE1C74B4D46089357
:10498000C64B0D930AE02A006E1C5B46099D5146FA
:10499000A847350001342078002872D02528F2D1AC
:1049A00010239946083B9846043B00219C46022769
:1049B0000134207826000300203BDBB2102B03D803
:1049C000089A9B00D3589F460300303B092B6ED9B1
:1049D00000272A2800D18AE000230B932E2800D13B
:1049E00076E00300683BDBB2122B1BD8AC4C9B007B
:1049F000E3589F46012301341943DAE73943013470
:104A0000D7E7634601341943D3E74B4601341943D2
:104A1000CFE7434601341943CBE780235B0070782E
:104A20001943013667280AD824281FD90300253BDB
:104A3000DBB2422B1AD80D9A9B00D3589F46030035
:104A4000693BDBB20F2B11D801249C40954AA44648
:104A5000904614400C9462464446224200D025E21F
:104A60000A2B00D101E1072B00D1D8E0099C2A00D4
:104A70005B465146A04770786F1C741C3D000028AF
:104A80008CD1A9462C00CB4503D801235B425B4463
:104A900099465B464A4651460020099DA84720009A
:104AA0001FB0F0BCBB46B246A946A046F0BD0027E9
:104AB000BB00DF1901367F003F183078303F03001C
:104AC000303B092BF4D900230B932E2800D088E724
:104AD00080237078DB0019430300303B741C092BE2
:104AE00000D82CE12A2800D138E1260079E70A9B7A
:104AF00080CB002F03DB60780A93661C6CE70222F0
:104B0000607811437F420A93661C65E7672800D1ED
:104B1000C8E1472800D104E2452800D104E207207B
:104B20000A9B04910733834319000B9A039702925F
:104B30000CC90998009201930A912A005B465146DC
:104B4000FFF7F6FA741C050025E770786C2800D191
:104B50000DE280235B001943013663E780239B004D
:104B60007078194301365DE77078682800D1F9E163
:104B700080230136194355E7462800D18FE10720ED
:104B80000A9B04910733834319000B9A03970292FF
:104B90000CC90998009201930A912A005B4651467C
:104BA000FFF7F0FC741C0500F5E62A00099C5B4643
:104BB000514625206F1CA0473D00741CEBE6890779
:104BC00000D4DEE10A9B2A0098466B1C99464346B6
:104BD00001CB51469846099C5B46C0B2A047ED19EF
:104BE000012F00D893E24C46B1465646099F220059
:104BF0005B46013431002020B847AC42F7D1B246C1
:104C000043464E460A93741CC5E6274B2078099309
:104C100000239946002800D0AFE6002433E70A9B22
:104C20001A0008CA9046002B00D1A7E021200843B3
:104C30000EA98C461F2262440F27AC468146150000
:104C40000C9C02E0202C0CD013003800184001000E
:104C50003731092800D80739013429551A090F2B93
:104C6000F0D8654648460C9494E00A9B1A0008CA9E
:104C700012920B9A002A7BD102241A786442002AED
:104C80001DD0013418199C461C00030010E0C046DA
:104C900049490010389B012044A00010D4A0001006
:104CA00088A0001041900000893E00109C4203D073
:104CB000607801340028F9D16346E01A0C90802016
:104CC000C0008446084080466046014204D00B98EC
:104CD0000C9C844200D90C900220844608400A9023
:104CE0006046084200D189E1101E00D170E14246C1
:104CF000002A00D11BE10B9A5B1B9046A844444656
:104D00002A00B84699465746B246099E09E05B46D6
:104D10003900551CB0474B46585D002800D12CE1A6
:104D20002A009442F3D156462500BA4647460A9BCC
:104D3000002B00D04CE1129B741C0A932BE600223E
:104D400093009B185B0001341A182078303A030056
:104D5000303B092BF4D926000B9242E60A9B02361F
:104D600004CBD043C01702400B9230780A9338E648
:104D70001A78002AA3D00B98441E82E7102308005B
:104D800080279843113318430B00FF003B40394202
:104D900000D14DE7082305930B9B2A0004931023B1
:104DA0000393002302930C9B0690019316AB009390
:104DB00051465B460998FFF7B1F843460500741C5D
:104DC0000A93E8E5622800D1A6E1582800D1B1E1B4
:104DD00080230A00DB001A409046194200D189E185
:104DE000112399438C46802362469B001A40100091
:104DF00062461A4200D023E1802364465B001C40D7
:104E00001A4200D032E263465B0600D56BE163468E
:104E10000A991B0600D4DBE208C91BB2DA179818FE
:104E2000504080B20A91DA0F0C92002B00D118E2A8
:104E300080460EAA91461F234B441395E1464546F2
:104E40001297B0461E0001E0202C0FD028000A2146
:104E500000F096FB013437193031397028000A21EF
:104E600000F08EFB2F000500092FEDD84646CC46FA
:104E7000129F139D634606930B9B059704930A2389
:104E800003930C9B029316AB2A00019400935146A6
:104E90005B460998FFF742F8741C05007BE5202368
:104EA00019436CE680231B01194338E6782800D0AB
:104EB0007CE180230A00DB001A409146194200D1B0
:104EC000A5E20D239943080003330C9380230200CD
:104ED0009B001A409046184200D078E180230400DD
:104EE0005B001C40184200D007E2430600D453E2A6
:104EF000FF210A9B04CB0A4090460A934346002BAD
:104F000000D026E1103398434B46002B00D120E11E
:104F100000240B9B069004930C9B0597039300239E
:104F2000B0E780231B01194320231943F7E55B1BDE
:104F300099460C9B099C98465B46B3465646BA4632
:104F40001F002A003B003100A0474B460135585D49
:104F50000028F6D143460C933B005746B2465E46C6
:104F60009B46E4E6C023B078194302365AE5C023D5
:104F70009B00B0781943023654E55646BA46474678
:104F8000D5E6012F00D832E26B1E9846B8442C00BB
:104F9000A9464546B8465746B246099E22005B469A
:104FA000013439002020B047AC42F7D10A9B564665
:104FB00001CBBA464746984622005B46099C5146BB
:104FC000C0B2A0474D464346ED190A93741CE2E473
:104FD0000C9BA8469F4200D8ADE64446B0465646D4
:104FE0007D19099FED1A22005B4601343100202013
:104FF000B847AC42F7D1B24646469CE60C98874289
:1050000000D8F0E1424698467919B9465746B2466B
:10501000099E0C1A0C922A005B46013539002020AB
:10502000B047A542F7D15646BA464F4643460C9A7A
:1050300090467A1C0C921A78101E00D057E67AE639
:105040000822072191460A9B07338B4399444A461D
:105050000ACB0C000A921C43DA0F002C4ED0D81752
:10506000040010904C4011900E94109811990C006F
:105070005C400F940E9B0F9C1B1A8C410E930F9457
:105080000EA988461F23002443441297B0462700E8
:1050900013951E000E9C0F9DE1460C9201E0202FFF
:1050A00010D0200029000A22002300F0ABFA0137BB
:1050B00030322B00F2550D0022000400002BEED1FF
:1050C000092AECD84646CC460E940F950C9A3C0023
:1050D000139D129F634606930B9B059704930A2327
:1050E00002920393CFE6FF230A9904C913401800E4
:1050F0000A9198E6102399438C4674E643460024AF
:10510000002BE7D1002300240E930F94B8E7434609
:105110004D460A93741C3EE480230A00DB001A40CB
:105120009146194200D140E10D2399430B3B080001
:105130000C93CBE680230A00DB001A40914619420B
:1051400000D162E10D2320209943033308430C93DF
:10515000BCE66123810600D541230EA91F228C469F
:10516000DBB262440A3B13971495814645460C9F77
:10517000B0461293160008E03033DBB201343355E9
:10518000BD420ED3202C0CD005003900280000F0C1
:10519000F7F9CBB20929EFD9129A94466344DBB2EE
:1051A000ECE746464846139F149DB2E66F2800D0B0
:1051B0003CE10C230800984380230A00DB001A40DE
:1051C0009146194200D02AE108230C937EE60A9901
:1051D000FA3BFF3B0731994301339C468C446346BD
:1051E0004A680A930B6890469C461343191E06D1E1
:1051F0004B46103100248843002B00D089E6612102
:10520000830600D541210EAA91461F234B4499469F
:10521000C9B20C9B0A3913971495159645464E460C
:10522000002467469846814612910CE03032D2B293
:10523000002301343255AB4200D1BCE0202C00D118
:10524000BCE007000D00424600233800290000F0B2
:10525000D9F9D2B2092AE9D9129B9C466244D2B24A
:10526000E6E74346002B00D004E6E2E50A9C08CCC2
:10527000DA0F1392002B00D1A5E0D9175B184B4031
:1052800098460EAA91461F234B440C95A1464546CD
:105290001296E04606001C000A9701E0202E0FD06F
:1052A00028000A2100F06CF90136A7193031397055
:1052B00028000A2100F064F92F000500092FEDD81D
:1052C000C4464C4630000A9F0C9D129E63460693CE
:1052D0000B9B2A0004930A230393139B01900293D0
:1052E00016AB009351465B4609980597FEF716FEEC
:1052F0000A940500741CFFF74EFB0A9B10CB149315
:10530000002C04D1102398434B46002B2CD1612351
:10531000810600D541230EA91F228C46DBB26244D0
:105320000A3B12971395814645460C9FB0460A9357
:10533000160008E03033DBB201357355BC420ED3A2
:10534000202D0CD004003900200000F019F9CBB258
:105350000929EFD90A9A94466344DBB2ECE7484640
:105360004646129FA846139D0B9B2A0004930C9B54
:1053700006900393002302934346019316AB0093D8
:1053800051465B4609980597FEF7C8FD149B05003A
:105390000A93741CFFF7FFFA03061FD50A9B02CB82
:1053A00009040A0C90460A93A8E50C2399430A3B8A
:1053B00008000C938AE5B84500D83FE74846139F9C
:1053C000149D159EA5E54346002B00D07EE758E7C7
:1053D00008C9DA17981850400A9124E50A9B04CBB3
:1053E00090460A938AE5010001310C9124E60A9F58
:1053F0006C1C01CF2A005B46099D5146C0B2A847EC
:1054000025000A97741CFFF7C6FA202319430C23C2
:10541000994300239946103308000C9356E508235E
:105420008C460C930D23604698434FE510230A00E9
:105430009A439446692808D180230A00DB001A4069
:105440009046194200D1CEE4CAE41C2308009843D8
:1054500080230A00DB001A409146194202D10A2338
:105460000C9333E50A230C93DCE7C04600B585B006
:105470000391012102900093034813004A4202A9BC
:10548000FFF762FA05B000BD2141001010B5094ACE
:105490000300146884B0002C08D001220091064853
:1054A000524203A9A047012004B010BD01F080F8CA
:1054B0000020F9E7389B0120114100100148042128
:1054C000014B184750860120ED540010142310B5ED
:1054D0000100188804331B88984710BD162310B5A7
:1054E0000100188802331B88984710BDF8B547465D
:1054F000CE4680B50F1E19D01423994604330400FC
:105500000025012698464B461888434621681B888B
:10551000984701C4431E9841013540420640AF42BE
:10552000F1D13000C0BCB946B046F8BD0126F8E75D
:10553000124A936F9B0815D29066D166002905D058
:10554000FFE7FFE7FFE7516F106F704704B5802159
:105550000906C2175140002800D0C84304F0A8FA39
:10556000002104BDF0B5146E556E576F166FFFF72E
:10557000E3FF1466556657671667F0BD000000D05C
:10558000114A936F9B0813D210665166002905D00B
:10559000FFE7FFE7FFE7516F106F704704B5002882
:1055A00001D00020C04304F083FA002104BDC046AE
:1055B000F0B5146E556E576F166FFFF7E5FF146662
:1055C000556657671667F0BD000000D094464E4AF6
:1055D000926F9208624601D230E0C046F0B54A4E62
:1055E000B56F6D08FCD3346E756E776F366F00F053
:1055F00025F89446444A146655665767166762460E
:10560000F0BDC0469446404A926F9208624601D26D
:1056100058E0C046F0B53C4EB56F6D08FCD3346E13
:10562000756E776F366F00F04DF89446364A146603
:105630005566576716676246F0BDC046002B24DBEF
:1056400011D000293EDA00B5C943404200D10131F2
:1056500000F038F8C943404200D10131DB435242E7
:1056600000D1013300BD002AEBD1002801D100296F
:1056700005D00020C90FC90701D1C043410800B5BA
:1056800004F00EFA0022002300BD00B500290ADB59
:10569000DB43524200D1013300F014F8C9434042C9
:1056A00000D1013100BDC943404200D10131DB438B
:1056B000524200D1013300F005F8DB43524200D1E1
:1056C000013300BD002923D1002B18D1002A0CD0B2
:1056D000BC460D4F38667A6600210023FFE7FFE7DE
:1056E000FFE77A6F386F67467047002801D0074898
:1056F000010000B504F0D4F90022002300BD02002F
:105700000B00002000217047000000D0FFFFFFFFCA
:10571000002B00D0BFE0130C28D1002AE7D080B4C2
:10572000114F39667A66FFE7FFE730B4040C7B6FF0
:10573000396F1B0423433B667A66FFE7FFE7FFE709
:10574000C04684B27B6F3D6F1B0423433B667A6681
:10575000FFE7FFE7C04600232C042D0C7A6F386F5B
:1057600000196941B0BC7047000000D0F0B5944604
:105770000025140E01D112020835140F01D11201B7
:105780000435940F01D192000235D40F01D152009B
:105790000135D40B0134254F7C66254C3C660E0C3C
:1057A00093B2FFE7FFE7FFE73C6F6643360C7703F2
:1057B000BE467343DF0B5B04C01AB941130C73433D
:1057C000DB18C91ACE086643360CB64493B273434D
:1057D0001F0F1B01C01AB941130C73431F0B1B058C
:1057E000C01AB941860D8F023E436643360C092D1F
:1057F00024DB520A7243801A7703460A6643360C4A
:1058000016235B1BDE40DF40BF1964466643821BE4
:105810007046043506330100D940A840C01900D3B2
:105820000131A24206D20023F0BD0000000000D0EA
:10583000FFFFFFFF121B0130F3D3F1E709277F1BA6
:10584000FE406446A2B27243801A00D20139220C93
:105850007243130C1204821A99410B0070460435EE
:1058600013370100F940A840801900D30131002B03
:1058700002D1A2420AD2F0BD013000D30131121B85
:10588000FAD2013BF8D1A24200D2F0BD013000D3E0
:105890000131121BF7E7F0B51C0C00D080E00CB40E
:1058A00000251C0A04D11B02160E334312020835D0
:1058B0001C0B04D11B01160F3343120104359C0B42
:1058C00004D19B00960F334392000235DC0B02D1CA
:1058D00092185B4101351C00971864410134464F12
:1058E0007C66464C3C660E0CFFE7FFE7FFE7C046D0
:1058F0003C6F6643360C7703BE4697B27743C01BB6
:1059000000D20139C01B00D201399FB27743C91BB5
:10591000C91B170C77437E04FF0B801BB941CE08CF
:105920006643360C0C2D33DBB644120B1F053A438D
:105930001B0B97B27743C01B00D201399FB277434C
:10594000C91B170C77433E043F0C801BB941860DE1
:105950008F023E43664329277F1BFE400C3D77465E
:10596000AF40BF1930BCA2B2ABB272437343801ACE
:105970009941220C7243130C1204801A99410200BF
:105980000B000137001BA941F9D2781E0021F0BDA0
:105990000C277F1BFE4077467F0BAF40FF19E0E7E7
:1059A00000245D1C07D0144F7D663966FFE7FFE7D2
:1059B000FFE7FFE73C6F95B29EB265436643401B2D
:1059C000B141150C1E0C6543664336042F0C3E4353
:1059D0002D04401BB141994204D202000B0020006B
:1059E0000021F0BD01D19042F7D3801A99410134D2
:1059F0009942F2D3F6E70000000000D0FFFFFFFF5E
:105A000048404140484018B41B4B5B68FC4601933A
:105A100008BD04DFB35C001018B4174B1B68FC46CC
:105A2000019308BD00DFBD5C00109446134A926FDD
:105A3000920809D2624618B40F4BDB68FC4601930A
:105A400008BD0CDF755F00100C4AF0B5146E556E82
:105A5000576F166F6246FFF7EEFF084A14665566E9
:105A600057671667F0BD18B4034B9B68FC4601935B
:105A700008BD08DF195E0010408D0120000000D035
:105A8000FFB550404240504059404B40594000E023
:105A9000FFB5154F4C00640D03D0BC4204D10C037C
:105AA00014D80020090D09055C00640D03D0BC4228
:105AB00004D11C030AD800221B0D1B0501264B40F4
:105AC00009D44B4003D58B4200D18242FFBD99429D
:105AD000FCD19042FFBD0B43DB1803431343F5D0C9
