:020000041000EA
:1000000000B5324B212058609868022188439860DF
:10001000D860186158612E4B002199600221596106
:100020000121F02299502B49196001219960352056
:1000300000F044F80222904214D00621196600F024
:1000400034F8196E01211966002018661A6600F04E
:100050002CF8196E196E196E052000F02FF8012189
:100060000842F9D1002199601B49196000215960AB
:100070001A491B48016001219960EB211966A021F2
:10008000196600F012F800219960164914480160C1
:100090000121996001BC002800D000471248134993
:1000A000086003C880F30888084703B5996A0420EC
:1000B0000142FBD001200142F8D103BD02B5186610
:1000C0001866FFF7F2FF186E186E02BD00000240BE
:1000D000000000180000070000035F00212200005C
:1000E000F4000018222000A00001001008ED00E03C
:1000F00000000000000000000000000074B24E7A12
:1001000000200420F7010010C3010010C5010010F9
:10011000C1010010C1010010C1010010C101001097
:10012000C1010010C1010010C1010010C701001081
:10013000C1010010C1010010C9010010CB01001065
:10014000CD010010CD010010CD010010CD01001037
:10015000CD010010CD010010CD010010CD01001027
:10016000CD010010CD010010CD010010CD01001017
:10017000CD010010CD010010CD010010CD01001007
:10018000CD010010CD010010CD010010CD010010F7
:10019000CD010010CD010010CD010010CD010010E7
:1001A000CD010010CD010010CD010010CD010010D7
:1001B000CD010010CD010010CD010010CD010010C7
:1001C00000BE00BE00BE00BE00BE00BE00F04BF888
:1001D000103800BEF2EB88716CB1001090B10010C5
:1001E0003402001090A31AE700202149086006C8D5
:1001F00081F3088810471F48006800282FD10DA4FC
:100200000ECC002902D000F012F8F9E71A491B4A77
:10021000002000E001C19142FCD1194988471949E9
:1002200088471949884700BEFDE701C901C29A42C3
:10023000FBD3704790B10010C0000020800A00205E
:1002400050BB0010000004200000042050BB001030
:1002500000100420001004200000000070470B482C
:1002600004F050FA0047EFF30580C0B27047000079
:1002700008ED00E0000000D0800A0020AC1900204A
:10028000D12F0010CD110010912F001057560000F3
:1002900006005250ABB3605324A900100600525020
:1002A000861C030234A90010060052505422A29D5D
:1002B00040A9001005005250DE65F46850BB0010E4
:1002C000F8B5C04606480749091A8B10C90FC91866
:1002D00010B5491003D0044B002B00D0984710BD37
:1002E000800A0020800A002000000000054B10B5A5
:1002F000002B03D00449054800E000BFFFF7E2FFF0
:1003000010BDC0460000000030170020089A001001
:1003100010B5002905D0FA229200002304F088FAD3
:1003200003E0FA21890004F041FA10BD70B5002203
:10033000002000240FE0194B9100CD580123190033
:10034000A9400C4316490978164E715C11410B40C7
:10035000AB4018430132072AEDDD0022032A0EDCF0
:10036000114B9100C95801238B401C430C4B1B7847
:100370009B1A5D426B418B4018430132EEE7D0235C
:100380001B061A6950402040D86105490A7801329D
:10039000032313400B70012070BDC046049B001066
:1003A000A0190020880B0020F49A001010B5002B33
:1003B00002DB0260436010BD024B034A03483F2149
:1003C00002F0EAFD089A0010249A00105C9A0010CE
:1003D00010B5040002F0D4FA02000B002000FFF771
:1003E000E5FF200010BD000030B583B004000D0013
:1003F00000210D2001F094FA6846FFF7E9FF00980C
:100400000199FFF785FF022C14D0012C1ED0002C7F
:100410000AD10C232B4207D0D0231B065B68DB07D5
:1004200000D404000F4B1C6001210D2001F078FA6C
:1004300003B030BD0C232B42E7D0D0231B065B68F2
:100440005B0700D50020084B1860EDE70C232B421A
:10045000DDD0D0231B065B689B0700D50020034B33
:100460001860E1E7681200206C1200207012002072
:10047000F0B585B005000C0016001F0002F06AF808
:100480000A9B0293019700962A00230002F06EF95E
:1004900005B0F0BDC3B20F2B03D88000134B1B581F
:1004A0009F4600201EE006201CE05B201AE04F2043
:1004B00018E0662016E06D2014E07D2012E0072091
:1004C00010E07F200EE06F200CE077200AE07C2017
:1004D00008E0392006E05E2004E0792002E0712087
:1004E00000E03F20C9010843C0B27047989A00104D
:1004F000F8B5DB4C206800220023482100F0E4FF1F
:100500002068012100F0C8FF00261EE0300004F042
:1005100039FCD44AD44B04F0BCFB02000B00D34896
:10052000D34904F086FB04000D00CD4B186822006F
:100530000B0000F081FFCF4B186822002B0000F069
:100540007BFF042002F0A5F90136632EDEDDC44BEB
:100550001868002200234A2100F0B6FF00261EE0A2
:10056000300004F00FFCBF4ABF4B04F092FB0200C6
:100570000B00BE48BE4904F05CFB04000D00B84B04
:10058000186822000B0000F057FFBA4B18682200D1
:100590002B0000F051FF042002F07BF90136632E9E
:1005A000DEDDAF4B1868002200234C2100F08CFFE9
:1005B00000261EE0300004F0E5FBAA4AAA4B04F036
:1005C00068FB02000B00A948A94904F032FB0400B3
:1005D0000D00A34B186822000B0000F02DFFA54B67
:1005E000186822002B0000F027FF042002F051F9C8
:1005F0000136632EDEDD9A4B1868002200234D2160
:1006000000F062FF00261EE0300004F0BBFB954ABC
:10061000954B04F03EFB02000B009448944904F013
:1006200008FB04000D008E4B186822000B0000F040
:1006300003FF904B186822002B0000F0FDFE042001
:1006400002F027F90136632EDEDD854B18680022A3
:1006500000234C2100F038FF00261EE0300004F09B
:1006600091FB804A804B04F014FB02000B007F4892
:100670007F4904F0DEFA04000D00794B186822006F
:100680000B0000F0D9FE7B4B186822002B0000F015
:10069000D3FE042002F0FDF80136632EDEDD704B40
:1006A0001868002200234A2100F00EFF00261EE0F9
:1006B000300004F067FB6B4A6B4B04F0EAFA02006F
:1006C0000B006A486A4904F0B4FA04000D00644B58
:1006D000186822000B0000F0AFFE664B186822007D
:1006E0002B0000F0A9FE042002F0D3F80136632E9F
:1006F000DEDD5B4B186800220023482100F0E4FE99
:1007000000261EE0300004F03DFB564A564B04F034
:10071000C0FA02000B005548554904F08AFA04005B
:100720000D004F4B186822000B0000F085FE514B66
:10073000186822002B0000F07FFE042002F0A9F8C8
:100740000136632EDEDD464D2868002100F0A4FE50
:10075000484C2068002100F09FFEC820400002F0B5
:1007600098F800260027286832003B00482100F056
:10077000ABFE206832003B004C2100F0A5FE28684B
:10078000012100F089FE2068012100F085FE00268D
:100790001EE0300004F0F6FA324A334B04F079FAE6
:1007A00002000B003148324904F043FA04000D0006
:1007B0002B4B186822000B0000F03EFE2D4B1868F2
:1007C00022002B0000F038FE042002F062F801360F
:1007D000632EDEDD00240025214B186822002B004B
:1007E0004A2100F071FE234B186822002B004D2196
:1007F00000F06AFE00261EE0300004F0C3FA194A39
:10080000194B04F046FA02000B001848184904F08E
:1008100010FA04000D00124B186822000B0000F0C3
:100820000BFE144B186822002B0000F005FE04207C
:1008300002F02FF80136632EDEDD00240025084B80
:10084000186822002B004C2100F03EFE094B18686E
:1008500022002B004F2100F037FE00262BE0C0467F
:1008600074120020FCA9F1D24D62503F9A999999D7
:100870009999B93F78120020300004F083FA7C4A3D
:100880007C4B04F006FA02000B007B487B4904F025
:10089000D0F904000D007A4B186822000B0000F01C
:1008A000CBFD784B186822002B0000F0C5FD04201A
:1008B00001F0EFFF0136632EDEDD00240025704BD2
:1008C000186822002B004D2100F0FEFD6D4B1868CA
:1008D00022002B00512100F0F7FD00261EE0300021
:1008E00004F050FA624A634B04F0D3F902000B00A3
:1008F0006148624904F09DF904000D00604B1868DE
:1009000022000B0000F098FD5E4B186822002B00BF
:1009100000F092FD042001F0BCFF0136632EDEDD05
:1009200000240025564B186822002B004C2100F0B3
:10093000CBFD544B186822002B004F2100F0C4FD62
:1009400000261EE0300004F01DFA494A494B04F02D
:10095000A0F902000B004848484904F06AF9040075
:100960000D00474B186822000B0000F065FD454B59
:10097000186822002B0000F05FFD042001F089FFC1
:100980000136632EDEDD002400253D4B1868220071
:100990002B004A2100F098FD3A4B186822002B00EA
:1009A0004D2100F091FD00261EE0300004F0EAF930
:1009B0002F4A304B04F06DF902000B002E482F49EE
:1009C00004F037F904000D002D4B186822000B00CD
:1009D00000F032FD2B4B186822002B0000F02CFD9C
:1009E000042001F056FF0136632EDEDD00240025D1
:1009F000234B186822002B00482100F065FD214B95
:100A0000186822002B004C2100F05EFD00261EE03D
:100A1000300004F0B7F9164A164B04F03AF9020018
:100A20000B001548154904F004F904000D00144B9F
:100A3000186822000B0000F0FFFC124B186822001F
:100A40002B0000F0F9FC042001F023FF0136632E97
:100A5000DEDD0B4B1868002100F01EFD094B186805
:100A6000002100F019FDC820400001F012FFF8BD80
:100A7000FCA9F1D24D62503F9A9999999999B93F41
:100A8000741200207812002070B51C4C200008F071
:100A90009BFF1B4B1D78200008F06EFF002D0CD132
:100AA000FFF726FD154C200008F08EFF154B0122A4
:100AB0001A70200008F060FF70BD134D28680022F6
:100AC000124B00F067FC124C20680022114B00F022
:100AD00061FC2868012100F0DFFC2068012100F0A2
:100AE000DBFC0D4801F0D5FE2868002100F0D4FCA5
:100AF0002068002100F0D0FCD4E7C0468C0B002019
:100B00009F1900209E1900207412002000408F4081
:100B10007812002000488F40B80B0000F0B5DE4688
:100B200057464E464546E0B58DB0BB4A06AB0093EE
:100B30000023FA2080000021FFF79AFC01210D20FC
:100B400000F0EEFE00230293994698460026002509
:100B5000CFE0B24B1B68002B03D0B14B1B68002BBE
:100B60001DD1AE4B1B68002B2CD0AC4B1B68002B4F
:100B70004CD1AA4B1B689946002B61D000239946A3
:100B8000A64B1B68002B6FD1A54B1B68002B00D018
:100B9000BDE0A44B1B68002B67D0029465E0A24B1C
:100BA00040221A705A709A70DA7002E00A2001F03E
:100BB00070FE9A4B1B68002BF8D1994B1E68002ED3
:100BC000F4D1DDE7964B1B68002BCED0944B186810
:100BD000201A4B2103F0EAFD471C002801D0052F05
:100BE0003BD99249300003F0E1FD731A9A464B4617
:100BF000FB1A5801C01A8000C018C00080198B4928
:100C000003F0D4FD51440E00B946B9E7844B1B688C
:100C1000002BAED1814B1868201A4B2103F0C6FD82
:100C2000471C002801D0052F19D94B46FB1A7F48D5
:100C3000584380197E4903F0B9FD0E00B9469FE77D
:100C4000774B1B68002B9BD1764A12689146002A8D
:100C500096D0002E05D1B14692E7B94690E7B94645
:100C60008EE7994601258BE70294029BE41A714BAB
:100C70009C4204D9D0231B068022D2029A616E497D
:100C8000300003F093FD0A2103F090FD48B20021EB
:100C9000FFF700FC644C20706449300003F086FDCF
:100CA0000A2103F083FD48B20121FFF7F3FB6070D6
:100CB000FA218900300003F079FD3C2103F076FD34
:100CC0000F000A21380003F071FD0A2103F06EFDC8
:100CD00048B20021FFF7DEFBA0700A21380003F0C4
:100CE00065FD48B20021FFF7D5FBE070012001F05F
:100CF000D0FD04A8FFF76CFB04980599FFF708FBEB
:100D00000400062DF2D8AB004C4AD3589F460294FB
:100D1000ABE7424B1B68002BE8D1414B1B68002B13
:100D2000E4D1404B1B68002BE0D199468046022558
:100D3000DCE74346C31AB34200D31FE243461C1A02
:100D4000A419FA218900200003F030FD0800A72132
:100D500003F02CFDC7B23849200003F027FD0A211B
:100D600003F024FD080079427941C9B240B2FFF78F
:100D700091FB2D4B18702D49200003F017FD0A211F
:100D800003F014FD48B2012F40D0052F3CD00021C4
:100D9000FFF780FB244B5870FA218900200003F0F4
:100DA00005FD3C2103F002FD8A460A21504603F06E
:100DB000FDFC0A2103F0FAFC48B2022F2AD0042FCE
:100DC00026D00021FFF766FB174CA0700A21504681
:100DD00003F0ECFC033F7B425F41FFB248B23900B5
:100DE000FFF758FBE0700D4B1B68002B00D07DE730
:100DF0000B4B1B68002B00D078E70A4B1B68002BBD
:100E000000D173E7032571E70121C1E70121BFE7A5
:100E10000121D7E70121D5E72D0300106C12002036
:100E20007012002068120020880B002060EA000089
:100E3000808D5B00204E0000C0270900D89A00106A
:100E40004346C31AB34200D39AE143461C1AA4197D
:100E5000FA218900200003F0A9FC08000391A721D2
:100E600003F0A4FCC7B2CD49200003F09FFC0A2187
:100E700003F09CFC080079427941C9B240B2FFF707
:100E800009FBC74B1870C749200003F08FFC0A21EB
:100E900003F08CFC48B2012F44D0052F40D0002134
:100EA000FFF7F8FABE4B5870FA218900200003F0D2
:100EB0007DFC3C2103F07AFC8A460A21504603F06F
:100EC00075FC0A2103F072FC48B2022F2ED0042FC9
:100ED0002AD00021FFF7DEFAB14B9B4698700A2119
:100EE000504603F063FC033F7B425F41FFB248B2D0
:100EF0003900FFF7CFFA5B46D870AB4B1B68002B6D
:100F000000D0F3E6A94B1B68002B00D0EEE6A84BFF
:100F10001B68002B00D0E9E6039BE61A0025E5E6F6
:100F20000121BDE70121BBE70121D3E70121D1E781
:100F3000282005F0CFF80500132100F0D3F99D4BD0
:100F40001D60282005F0C6F80500142100F0CAF93C
:100F5000994B1D60994D01220121280000F09EFF50
:100F6000FA23DB009E429B415B42954A1370954BEE
:100F700000221A70280008F0FFFC934808F06AF875
:100F800005254346E71ABF1BFA214900380003F044
:100F90000DFCF92973D88149380003F007FC0A21B8
:100FA00003F004FC48B20021FFF774FA7C4B9A4628
:100FB00018707C49380003F0F9FB0A2103F0F6FBB6
:100FC00048B20121FFF766FA53465870FA218900AA
:100FD000380003F0EBFB3C2103F0E8FB0F000A2193
:100FE000380003F0E3FB0A2103F0E0FB48B20021E4
:100FF000FFF750FA534698700A21380003F0D6FBE9
:1010000048B20021FFF746FA5346D8706B4F3800BC
:1010100008F0DAFC6B4B1B789A46380008F0ACFC01
:10102000614B1B68002B00D0ACE0604B1B68002BB1
:1010300000D0A9E05E4B1B68002B00D0A6E0534611
:10104000002B00D152E607F091FF5A4B1D68002D8E
:1010500006D0280000F084F92821280005F03EF889
:10106000554B1D68002D00D192E0280000F078F962
:101070002821280005F032F80294002536E6484B76
:1010800000221A70802159709A70DA70BEE74346C8
:10109000C71ABF1BFA214900380003F087FBF92962
:1010A00064D83E49380003F081FB0A2103F07EFB3F
:1010B00048B20021FFF7EEF9394B9A4618703949CA
:1010C000380003F073FB0A2103F070FB48B20121E2
:1010D000FFF7E0F953465870FA218900380003F011
:1010E00065FB3C2103F062FB0F000A21380003F08E
:1010F0005DFB0A2103F05AFB48B20021FFF7CAF951
:10110000534698700A21380003F050FB48B2002182
:10111000FFF7C0F95346D870234B1B68002B00D053
:10112000E4E5224B1B68002B00D0DFE5204B1B6859
:10113000002B00D0DAE507F019FF1E4B1D68002DCB
:1011400006D0280000F00CF92821280004F0C6FF82
:10115000194B1D68002D1ED0280000F001F9282130
:10116000280004F0BBFF02940025BFE50C4B0022D1
:101170001A70802159709A70DA70CDE70425B5E5B0
:101180000425B3E50625B1E50625AFE50625ADE561
:1011900002940025AAE502940025A7E5C0270900CE
:1011A000880B002060EA00006C1200207012002002
:1011B0006812002074120020781200208C0B00208E
:1011C0009F1900209E190020890A001070B505F0B3
:1011D000D3F8192000F076FAD0231B06802292045F
:1011E0005A6200240BE02C4BA200D558280000F0D6
:1011F00069FA0123AB40D022120653620134072C56
:10120000F1DD0024032C0CDC244BA200D55828006F
:1012100000F058FA0123AB40D02212065362013489
:10122000F0E7022000F04EFA00220121022000F037
:1012300089F9D02424060423A36201220C21022070
:1012400000F0E4F9012000F03DFA00220121012024
:1012500000F078F90223A36201220C21012000F0A2
:10126000D5F9002000F02EFA00220121002000F024
:1012700069F90123A36201220C21002000F0C6F9C4
:10128000074800F079F9122000F01CFA8023DB02F5
:1012900063626361FFF742FC049B0010F49A001044
:1012A000E903001083001B189B000B48844663442D
:1012B00000290CD01020824000290AD00749186864
:1012C00042400A40802149010B431A6070470800E0
:1012D000F1E70349F3E7C0460C0005400000FFFFBB
:1012E000FFFF000070B50400080000220023226107
:1012F00063610022174BA261E36120230022E254C4
:1013000021604B0807263340636001252B000B400A
:10131000A360042100F0FEF823682A009A40D0233D
:101320001B065A62626893009B189B000A4A944607
:1013300063440A4A5A6023685B081E40B3009B1945
:101340009B0063441A6815408022520113431D60BC
:10135000200070BD0000E03F00000540FE0F0000CF
:1013600010B5040003685B0807221A4093009B181D
:101370009B00074A944663441A6801211140802269
:10138000520113431960006800F0A7F9200010BD56
:101390000000054070B5060014001D000022204B1F
:1013A0002000290003F0CEFC00280FD000221D4BA6
:1013B0002000290003F0BEFC002807D030697169C5
:1013C00022002B0003F0A8FC002800D070BD34617F
:1013D000756122002B001448144903F03CFC0022E4
:1013E000134B03F026FC03F009FD80B27084726891
:1013F00093009B189B000F4A944663441861708CBD
:10140000B469F56903F0BEFC22002B0003F041FC37
:1014100003F0F4FC82B2B1687068FFF743FFD5E7D0
:10142000000059400088D3402D211FF441CF1D41B9
:101430000000F03F0000054070B5060014001D00DC
:10144000002200232000290003F07CFC002807D0A4
:101450000022104B2000290003F06CFC002800D172
:1014600070BDB069F16922002B0003F055FC002823
:10147000F6D1B461F561708C03F084FC22002B007E
:1014800003F007FC03F0BAFC82B2B1687068FFF7A2
:1014900009FFE5E70000F03F2023C15403685B0823
:1014A00007221A4093009B189B00064A9446634407
:1014B0001A685140012211408022520113431960E1
:1014C0007047C0460000054070B5060014001D00BE
:1014D0004539080003F056FC00220C4B03F0BBFB1F
:1014E00002000B0000208021C90503F0D1FF00227B
:1014F000074B03F0CEFB22002B0003F0A3FB0200FE
:101500000B003000FFF746FF70BDC04600002840CA
:1015100000807B4010B58300084A944663441A68F3
:1015200040246240803414408022520113431C60E6
:10153000C000034B9C466044416010BD04C00140A4
:101540000040014080000B4B9C46604400290DD0B8
:101550000823002A0CD004221343026853400C22B3
:101560001A4080235B0103431A6070470023F0E7B1
:101570000022F1E704C0014070B50400D0231B062F
:101580001D680D4BAA00D358002B0AD0002803D0A9
:10159000094BAD00EC5070BD08490D2000F01CFB5C
:1015A000F6E70028F7D0044BAD00E85003490022CD
:1015B0000D2000F009FAEEE77C1200202D16001035
:1015C000072303409B00C00899403C308000014B3A
:1015D000C150704700400140F8B507000C001600EC
:1015E0001D00FFF7EDFFFB089B00ED1807203840BA
:1015F00080008440002E04D080239B012B431C607C
:10160000F8BDC0239B012B431C60F9E710B5D02324
:101610001B061B68002B03D0024BFFF7DDFF10BD3C
:10162000014BFAE73041014000410140F0B5D64698
:101630004F464646C0B5D0231B061F681D4BBA0057
:10164000D3589846002F03D01B4B9946002623E021
:101650001A4B9946FAE724090135002C1BD03300B8
:101660000833AB4217D90F231A0022409246234277
:10167000F1D0134BBA00D2580123AB401342EAD148
:1016800051462800FFF79CFF4346002BE3D051460C
:101690002800C047DFE708361D2E06D8F3080833B8
:1016A0009B004A469C583500D7E7E0BCBA46B14695
:1016B000A846F0BD7C1200203041014000410140AD
:1016C0005817002010B501238340D02212069362E0
:1016D00093610521FFF71EFF10BD10B51F21FFF715
:1016E00019FF10BDEFF3108072B6034B1B68002B7F
:1016F000FBD0BFF35F8F70472C0100D0BFF35F8F2B
:10170000024B00221A6080F3108870472C0100D031
:10171000F8B506000C001500FFF7E4FFE308F71822
:10172000F15C07222240012393400B4205D1DBB23A
:101730000B433B70FFF7E2FFF8BD2100280001F0EA
:10174000C3FCF0B583B00600019114001F00FFF741
:10175000C9FF00E00134BC420CD8E308F518F35C83
:101760000721214001228A401A42F3D1D2B21A4302
:101770002A7001E001246442FFF7C0FF002C02DB65
:10178000200003B0F0BD019B002BF9D0089801F0B8
:101790009BFC0000034B1B6802201840431E98412D
:1017A000C0B2704700C00640002307E0054A9A18FF
:1017B0009200BFF35F8F0021116001331F2BF5D919
:1017C0007047C04640000034054A1078431CDBB225
:1017D0001370172B02D9130010221A707047C046DD
:1017E0004004002010B582B00100054C054B009369
:1017F0001F2318222000FFF7A4FF02B010BDC0462F
:1018000084120020249B0010074B9B68103080003E
:101810001950BFF35F8FBFF35F8F044B0021196036
:1018200082F310887047C04600ED00E0240100D02C
:1018300010B50388DA0A1C2A05D15B055B15023353
:101840005B00C01810BD034B034A0448A72101F0F8
:10185000A3FBC046409B0010A09D0010589B0010A9
:1018600010B5091A0B1F0A4A88180A4A904208D86C
:10187000C90706D45B105B055B0D0748184380B2AF
:1018800010BD064B064A0748992101F085FBC0466A
:10189000FC070000FE0F000000E0FFFF8C9B001023
:1018A000949D0010589B001010B5091A04394A087D
:1018B000090B08D14905490D064B0B430380064B24
:1018C0001343438010BD054B054A0648A12101F092
:1018D00063FBC04600F0FFFF00F8FFFFBC9B001059
:1018E000689D0010589B001001238340034A106834
:1018F0001840431E9841C0B27047C04600E100E066
:10190000002904D0034B1860034B18607047034B49
:101910001860FBE780E200E000E100E080E100E029
:1019200010B5012383401800FFF7EAFF10BD000047
:1019300001238340014A13607047C04600E200E083
:10194000024B9B6810308000C058704700ED00E0EB
:1019500010B5FFF7F5FF002805D0054BC01A2F285A
:1019600003D8012010BD0020FCE70020FAE7C046A4
:101970004404002070B504000D00EFF3108672B629
:101980000C4B1B68002BFBD0BFF35F8F2000FFF7D1
:10199000D7FF094B984201D0A84205D13200290057
:1019A0002000FFF731FF70BD044B054A05487C213C
:1019B00001F0F2FA240100D0CD010010CC9B001000
:1019C000C89D0010589B0010F0B5DE4657464E46A5
:1019D0004546E0B589B0814601911500EFF3108AC4
:1019E00072B66E4B1B68002BFBD0BFF35F8F6C4B46
:1019F00000269E57002E41DB7400A419A4006948FC
:101A000024180622A256664B1A70674B9A684B46FA
:101A100010339B00D35898461F00181A2F2839D925
:101A2000624B984530D105AF614B3B8061497300F3
:101A30009B46981980005B4B984640440230FFF764
:101A40000FFF78805C4BBB80FF23BB71FD71019B56
:101A5000079333005B449B00434407CF07C3012334
:101A60001C43A046524641464846FFF7CDFE09B00A
:101A7000F0BCBB46B246A946A046F0BD4F4B504A0B
:101A80005048CD2101F088FA4F4B4D4A4D48D421A2
:101A900001F082FA01380C2102F088FE002912D1EF
:101AA00001239F43BB463B000027DA79AA4211D9A4
:101AB0000621595600290CDB4A0052189200394978
:101AC0001F008B18F1E7414B3D4A3E48E02101F0F1
:101AD00063FA1F00002F2FD005AB3D4A1A80813AD0
:101AE0005A800623FB560293002B18DABD20000211
:101AF00005AB9B469880029A9A71DD71019A079214
:101B0000381D2100FFF7ACFEB880BE71254B720076
:101B1000921992009B185A4613CA13C3A2E7381DA4
:101B2000FFF786FE01007000801980001D4BC01871
:101B30000430FFF795FEDBE705AF1D4B3B801D49E9
:101B4000730002939B199B00164A90461A00424468
:101B50000392901CFFF784FE7880039A101D59466B
:101B6000FFF77EFEB8801B4B5A464146521A52413F
:101B700053431B0DBB71FD71019A0792029B9B1988
:101B80009B00434407CF07C3114B5A461380813B48
:101B9000538001231C43A04664E7C046240100D0C3
:101BA000A51900204404002000ED00E0CD01001044
:101BB00000A1FFFF7404002000BDFFFF049C001083
:101BC000B09D0010589B00102C9C0010549C0010DD
:101BD00001480000AAAA0000F0B5CE46474680B5ED
:101BE00083B006000D00EFF3108872B6504B1B68EF
:101BF000002BFBD0BFF35F8F4E4B9A68340010343C
:101C0000A300D7584C4B9F4207D0AF4200D18CE085
:101C100001974A4BFB1A2F2B09D942463900300055
:101C2000FFF7F2FD03B0C0BCB946B046F0BD3000CE
:101C3000FFF75AFE814600213000FFF771FEBFF327
:101C40005F8FFEF710FB002801D0844211D10123E1
:101C5000019C9C430021A368AB4212D00622A256ED
:101C6000002A0DDB53009B189B00344A2100D41836
:101C7000F1E7334B334A2C213348FF3101F08CF923
:101C80002100AB424AD106256557002D2CDB2B4B9A
:101C90006A00521992009B189A68A260DA79E27180
:101CA0009B795BB2A371002B10DABD200002A080EB
:101CB000224B6A00521992009B18244A117899719C
:101CC000157049463000FFF72BFEA6E76800401963
:101CD00080001A4BC0180430FFF7AAFD0100231D35
:101CE0001800FFF7BDFDE2E7002812D100290ED051
:101CF000FF238B71164B8B8014490B78A3710F4A0D
:101D0000144BA41A644163431B0D0B70D9E70A4FAF
:101D1000F2E71149201DFFF7C7FDD2E70F4B094A33
:101D200060210948FF3101F037F9034F75E7C046DC
:101D3000240100D000ED00E0CD010010440400209B
:101D4000C89C0010809D0010589B0010A519002011
:101D500000BDFFFFAAAA00007E040020EC9C00103A
:101D600070B50400012606432D4BF31A2F2B28D8FB
:101D7000FEF779FA00282BD0EFF3108C72B6294BBE
:101D80001B68002BFBD0BFF35F8F254A264D210037
:101D9000891A49414D432D0D6DB2244B9B6880003B
:101DA0001B58B3421BD00021032932D81C4B4A00D8
:101DB000521892009B189B795BB2AB421FD0013145
:101DC000F2E71B4B1B4AC2211B48490001F0E4F813
:101DD0001A4B184A88211848FF3101F0DDF8134BDF
:101DE0009B68174A1A50174B1A78A2711D70BFF3DF
:101DF0005F8F0C4B00221A608CF3108870BD084B6B
:101E00004A00501880001818FF2686710E4A8280FA
:101E1000E9E70E4B074ACC210748490001F0BCF81E
:101E200044040020240100D0AAAA000000ED00E034
:101E3000F49C00104C9D0010589B00101C9D00103D
:101E4000CD010010A519002000BDFFFF289D001046
:101E50000022044B02E0044902C30132072AFAD9E6
:101E60007047C04600E400E08080808000B583B009
:101E70000100D0231B061B6806481818064B009368
:101E800005230022FFF75DFC002801DB1F23181A41
:101E900003B000BD9C190020309D001070B50400F7
:101EA0000E001500FFF790FC0100200000F006F87E
:101EB000A680E580BFF35F8F70BD0000024B9C469B
:101EC000614489000160704740000034084B5B6A40
:101ED000994209D8064A926A824207D2994201D0B1
:101EE000012002E0002000E0002070470120FCE714
:101EF0000040054010B500290AD003681B7B8B42C7
:101F000006D38068054B9C4661440901401810BD0A
:101F1000034B044A04483B2101F03EF8FFFFFF0F4A
:101F2000E49D00100CA10010089E0010F8B50400FC
:101F30001700FFF7DFFF0668456839002000FFF74C
:101F4000D9FF026843680120AB4201D802D00020CB
:101F5000C0B2F8BDB242FBD8F9E7000010B5002BC3
:101F600002DB0260436010BD024B034A03483F217D
:101F700001F012F8089A0010D8A000105C9A001026
:101F800070B582B0060014001D00069A079B121956
:101F90006B419D4202D804D1944202D9012252429F
:101FA000D3176846FFF7DAFF009A019B326073602F
:101FB000300002B070BD000010B5002908D0037BCE
:101FC0008B4205D300684B005B18033BC01810BD63
:101FD000024B034A0348682100F0DEFF389E0010E0
:101FE000B4A00010549E001010B5437B8B4201D169
:101FF000012010BDFFF7E0FF8378002B01D1002006
:10200000F7E70120F5E770B50400857B002D01D1CD
:10201000280070BD2900FFF7CFFF4378A373002B82
:1020200000D1E3730023837043700370F0E7000076
:10203000F8B506000C001500FFF7BEFF0700002CE6
:102040000DD0002D11D0AC4215D029003000FFF783
:10205000B3FF84703B78002B13D13D70F8BD0A4B61
:102060000A4A0B486F2100F097FF0A4B074A0848BD
:10207000702100F091FF084B044A0548712100F0DF
:102080008BFF43703D70E9E7949E001090A0001014
:10209000549E0010A09E0010AC9E001070B506006B
:1020A0000D001400002914D0002A14D04368806861
:1020B0009847002806D0220029003000FFF7B8FF1B
:1020C000280007E02A0021003000FFF7B1FF2000C0
:1020D00000E0100070BD0800FCE7000070B50400CF
:1020E0000D1E0CD0FFF768FF002383704370037050
:1020F000617B2A002000FFF7D1FF607370BD034BA6
:10210000034A0448A52100F047FFC046F89E00108E
:10211000A4A00010549E001070B505000C1E08D03D
:10212000FFF762FF002804D1E97B002907D1EC7397
:1021300070BD054B054A0648F62100F02DFF28002A
:10214000FFF73AFF4470F2E7C49E001080A0001031
:10215000549E001010B5002907D003681B7B8B42EA
:1021600003D3C0680139401810BD034B034A04482B
:10217000402100F011FFC046E49D00106CA000104B
:10218000089E001010B50C00CB68834207D10B6984
:1021900008009847002809D02068616810BD064BE8
:1021A000064A96210648490000F0F6FE0023E36047
:1021B00000200021F2E7C046E89E001020A0001099
:1021C000089E001070B505000C00080000F0CCFB64
:1021D000200000F0B1FC0849200000F0F1FBFFF7FF
:1021E000F3FA064B9C466044800068602C75044BF3
:1021F000A400E55070BDC04611230010400000341B
:10220000481700200A4B1A68EFF3108172B6136862
:10221000002BFCD0BFF35F8F054B1B68BFF35F8FB4
:1022200000221A6081F3108840BF0020002170470F
:102230006C19002010B582B0040000F0A1FB020070
:102240000B006846FFF78AFE009A019B22606360DC
:10225000200002B010BD70B584B0040016001D004F
:1022600002A8FFF7E7FF029A039B00960195200062
:10227000FFF786FE200004B070BD0000F0B583B00B
:10228000070001921D000AAB1C780BAB1E78002CD6
:102290000BD000682100FFF7A7FE002809D0194BDA
:1022A000194A1A48652100F077FE0068FFF7ABFE77
:1022B0000400002C02D1200003B0F0BD2100380042
:1022C000FFF718FE019B03604560089B8360099B34
:1022D000C36038682100FFF701FFA042EBD1387DD1
:1022E000019A2B0000F0B4FB051E01D0002E04D093
:1022F0000C9B002BDFD01D70DDE73868210000F05B
:1023000053FDF5E7FC9E0010C0A00010089E0010D1
:10231000F0B5DE4657464E464546E0B58FB00B90C9
:102320000021784B8200D458894682E029002000A1
:10233000FFF7E0FD804602684368921BBB41002B1B
:1023400009DD43461A685B680B9800F081FB0023A7
:102350009846002689E0002B01D1002AF1D1002106
:10236000584600F017FD0700A84215D143461A68E9
:102370005B680892099343469E68DB689846002E86
:1023800010D029002000FFF7E5FE037899461B02D4
:102390001F432761002068E05B4B5C4A5C488C214E
:1023A00000F0FAFD5B4B594A5948902100F0F4FDCA
:1023B0002369002B77D0BB4219D1069807990023D7
:1023C00042428B4100920193089A099B0CA8FFF7A7
:1023D000D7FD0C9A0D9B00210491013103910295C8
:1023E0004146019100962000FFF748FF16E04A4B56
:1023F000464A47489F2100F0CFFD069A079B002BD5
:1024000001D1002A52D120682900FFF785FE29005A
:102410002000FFF79FFE0378013303700023236140
:102420006268BFF35F8F13608AF310880120002871
:1024300061D00CA8FFF7FEFE0C9E0D9F002200232A
:10244000089209936268EFF3108A72B61368002B42
:10245000FCD0BFF35F8F23689B465D7B002D00D0CF
:1024600064E700239846002600206368BFF35F8F6F
:1024700000221A608AF31088002ED8D04B461F0223
:102480002F4341463800B047069007916268EFF34A
:10249000108A72B61368002BFCD0BFF35F8F079BC6
:1024A000002B00DA84E7079B002BA6DD2369002BB5
:1024B000A9D0BB4219D10CA8FFF7BCFE0C9A0D9B0A
:1024C00006980799009001910CA8FFF759FD0C9A06
:1024D0000D9B002104910131039102954146019128
:1024E00000962000FFF7CAFE98E70B4B074A084802
:1024F000A22100F051FD0FB0F0BCBB46B246A94688
:10250000A046F0BD48170020249F0010F0A0001046
:10251000089E00103C9F0010489F001010B50A4B09
:102520005B68002B04D009480A21FFF7C7FC10BDE7
:10253000054C074A20682300102100F0A4FB03216A
:102540002000FFF73FFEEEE78C0400206C1900200E
:102550002D1F001010B5064B5B68002B01D00448FE
:1025600010BD044B044A05485C2100F015FDC0462F
:102570008C040020849F001054A00010089E0010BE
:10258000F0B5DE4657464E464546E0B58DB00600EE
:1025900090461F00169B9A46179B994618AB1B78CE
:1025A0000793272302AA9446634400221A7021E06D
:1025B00001003000FFF7CEFD00783CE00698002BCC
:1025C0005CD0079B002B59D04946D04704000D0032
:1025D00003000B4359D0002940DB08A8FFF72AFE6F
:1025E000089A099B0094019508A8FFF7C9FC089B6D
:1025F0009846099F7268EFF3108B72B613685942C0
:102600004B41D9B20691002BF8D1BFF35F8F27332E
:1026100002AA9446634404930023039302934B4617
:1026200001935346009342463B003000FFF726FEDD
:102630000400051EBCD17368BFF35F8F00211960D1
:102640008BF31088002D17D0272302AA94466344E9
:102650001B78002BB2D100022043B0E70023624276
:10266000AB410092019342463B0008A8FFF788FC6B
:10267000089B9846099FBDE7012040420DB0F0BC81
:10268000BB46B246A946A046F0BD0698F6E7F0B5AF
:10269000C64600B584B00500884616001F000AAB88
:1026A0001C78FFF757FF0294019700962A004346D3
:1026B000FFF766FF04B080BCB846F0BDF0B5C64673
:1026C00000B504000D004268EFF3108772B613687E
:1026D000002BFCD0BFF35F8FEEB223689846310029
:1026E0001800FFF781FC00282AD02369AB4213D0E1
:1026F0002D0AEDB231002000FFF72CFD0378AB422C
:1027000011D000206368BFF35F8F00221A6087F347
:10271000108880BCB846F0BD0C4B0D4A85210D4891
:10272000490000F039FC3100404600F03DFB002834
:10273000E8D1094B064A12210648FF3100F02CFC73
:102740002369AB42DED100232361DBE7A89F0010A1
:102750003CA00010089E0010CC9F001010B5040093
:10276000FFF7F8FE2100FFF7A9FF10BDF0B587B015
:102770000500100019000E9C13000B4301D101202D
:102780000021A5600C9B2361206061600D9B63614B
:10279000CE1737007040020071400B00921BBB4106
:1027A00004A8FFF758FD049A059B012102910194AA
:1027B000044900912800FFF7E3FEE060C043C00F2A
:1027C00007B0F0BD8521001030B587B004000D00C2
:1027D000FDF749FD002820D106225242D3171219D5
:1027E0006B41AB4202D803D1A24201D9002200239F
:1027F00004A8FFF7B3FB02A8FFF71CFD029803999A
:10280000049A059B121A8B41002B0BDC08D0200088
:10281000290000F0C1F807B030BD144800F054FCA6
:10282000002AF4D0124A0498059900230093FFF778
:102830002EFF002813DAEAE70E4B1A68EFF3108137
:1028400072B61368002BFCD0BFF35F8F094B1B6877
:10285000BFF35F8F00221A6081F3108820BF0498B5
:102860000599FFF733FB0028E6D0D0E7D09F001092
:10287000052200106C19002000B583B002000B0087
:102880006846FFF7E8FC00980199FFF79DFF03B049
:1028900000BD10B5FA2292000023002103F01EFBB8
:1028A000FFF7EAFF10BD000030B583B005000C0053
:1028B0000A4A00230093FFF7EAFE002808DD20BF44
:1028C000FFF74CFF28002100FFF700FB03B030BDED
:1028D00028002100FFF7FAFAF8E7C04605220010A9
:1028E00070B5EFF305833F2018401038EFF3108CDC
:1028F00072B6184B1B68002BFBD0BFF35F8F012310
:1029000019008140144A5163144A12781400C440DB
:10291000234213D0104B5C6A114B8500EB589C424C
:1029200005D3104BEB580D4C8A43227007E00A4A3E
:10293000031D9B0099589950002300E00023BFF32A
:102940005F8F044A002111608CF31088002B00D0A7
:10295000984770BD280100D000400540A91900200B
:10296000781900205811002010B50100024A034BCD
:102970001800FEF7CDFE10BD18A10010A41900200C
:10298000044B5B6A034A906A1900536A9942F9D171
:102990007047C04600400540084B5B6A01E0074BAA
:1029A0005B6A8B42FBD301E0044B5B6A8B4203D131
:1029B000024B9B6A8342F7D37047C04600400540F4
:1029C00070B504000E00EFF3108572B61B4B1B6848
:1029D000002BFBD0BFF35F8F002E1CD02000FEF732
:1029E000AFFF174B83420BD019002000FEF7C2FF48
:1029F00001212000FEF794FF0123A340114A136038
:102A0000114BA400E650BFF35F8F0C4B00221A60FD
:102A100085F3108870BD0C4BA2000021D15001221B
:102A2000A2400A490B7893430B7005492000FFF739
:102A3000D3F800212000FEF773FFE4E7280100D05F
:102A4000E12800103860054058110020A919002025
:102A5000F0B5DE4600B584B00400150001921E00FA
:102A60000293FFF78DFF03958E4202D84ED1854227
:102A70004CD9EFF3108B72B6274B1B68002BFBD0A1
:102A8000BFF35F8F254A17780125A540EBB23B4382
:102A90001370234B5D63221D92000199D150214A8E
:102AA000A100029888501B6A2B4212D11C4B1B6C50
:102AB0002B4208D00020BFF35F8F174B00221A6013
:102AC0008BF3108823E0184B184A1948C12100F0F5
:102AD00063FAFFF755FF8E4214D802D1039B83425D
:102AE00010D80E4B1B78BB420ED00D4B1D625D63A0
:102AF0001F222240012393400E4A1360074B1F7090
:102B00000120D8E70020D6E70120D4E7012004B057
:102B100080BCBB46F0BDC046280100D0A9190020EA
:102B200000400540781900203CA1001098A1001039
:102B300060A1001080E200E0EFF3108C72B60B4B46
:102B40001B68002BFBD0BFF35F8F01238340084A33
:102B5000136208490A789A430A70BFF35F8F034BE8
:102B600000221A608CF310887047C046280100D0FC
:102B700000400540A919002010B5002908D0037BAA
:102B80008B4205D300684B005B18033BC01810BD97
:102B9000024B034A0348682100F0FEF9389E0010FA
:102BA00098A20010549E0010F8B506000C00150005
:102BB000FFF7E2FF0700002C0DD0002D11D0AC4232
:102BC00015D029003000FFF7D7FF84703B78002B29
:102BD00013D13D70F8BD0A4B0A4A0B486F2100F033
:102BE000DBF90A4B074A0848702100F0D5F9084B79
:102BF000044A0548712100F0CFF943703D70E9E7C0
:102C0000949E001084A20010549E0010A09E0010FC
:102C1000AC9E001070B506000D001400002914D001
:102C2000002A14D0436880689847002806D0220004
:102C300029003000FFF7B8FF280007E02A00210034
:102C40003000FFF7B1FF200000E0100070BD080069
:102C5000FCE770B505000023437301338373037BE6
:102C6000C373012406E021002800FFF785FF01342B
:102C7000E4B24470297BA142F5D82800FFF77CFF1D
:102C80000023437070BD10B5017342608360FFF78D
:102C9000E0FF10BDF0B5C64600B505000C1E03D11F
:102CA000200080BCB846F0BDFFF766FF4678002ED6
:102CB000F6D031002800FFF75FFF477800239846E1
:102CC000437021002800FFF757FF4346437032004E
:102CD00021002800FFF79EFF040039002800FFF7BD
:102CE000D9FF020021002800FFF794FF0400D7E776
:102CF000F0B5C64600B504000D001700002920D02D
:102D0000FFF73AFF4378002B21D18378002B24D1A1
:102D100001782000FFF7BEFF06008046002F03D099
:102D2000E17B00291FD1E5734346002B20D1290008
:102D30002000FFF721FF00234370300080BCB8461D
:102D4000F0BD0F4B0F4A1048382100F025F90F4B0A
:102D50000C4A0D483A2100F01FF90D4B094A0A4868
:102D60003B2100F019F92000FFF706FF4570DAE774
:102D700031002000FFF700FF00238370D7E7C04633
:102D8000B4A1001070A20010BCA10010ECA10010B2
:102D900014A2001070B504000A00457B2900FFF75B
:102DA000A7FF6073280070BD70B506000C1E40D0F0
:102DB000437B8B4207D0FFF7DFFE050081780029B7
:102DC00006D1002036E00121FFF7E4FF012031E0C9
:102DD0003000FFF7D1FE0178A1420DD03000FFF79F
:102DE000CBFE4178A1420AD00029F7D1124B134AF9
:102DF0001348673100F0D0F86B78037001E06B780E
:102E000043700023AB706B70012221003000FFF78C
:102E10006FFF0200717B814205D03000FFF7FAFEA0
:102E20007073012006E0074B044A05486D2100F04D
:102E3000B3F8002070BDC046289D001058A20010B5
:102E4000BCA1001038A2001010B5002B02DB0260FC
:102E5000436010BD024B034A03483F2100F09CF839
:102E6000089A00104CA300105C9A0010F0B585B0D1
:102E7000050016001F000192FA22920000230A9812
:102E8000002103F02BF802000B0092197B419F42B6
:102E900002D804D1964202D901225242D31702A885
:102EA000FFF7D2FF029A039B2A606B60280005B0EF
:102EB000F0BD10B582B00400FFF762FD02000B0008
:102EC0006846FFF7C1FF009A019B22606360200003
:102ED00002B010BD30B585B004000D0002A8FFF7A8
:102EE000E8FF029A039B00952000FFF7BFFF200038
:102EF00005B030BD10B50400FEF766FC01002000EF
:102F0000FEF7DCFFFF232371BFF35F8F10BD10B509
:102F10000400FEF759FC01002000FEF7CFFFFF235D
:102F2000237100236371BFF35F8F10BD034B9C4679
:102F3000614489000160BFF35F8F70474000003437
:102F400010B504000120FEF74DFC01002000FFF742
:102F5000EDFF10BD00BEFDE703000A4A1268002A1B
:102F600008D0084A1068C318074A9A4206D3054A8F
:102F700013607047034A05491160F2E7012040429F
:102F8000F7E7C0462413002000000420AC190020FD
:102F900010B5FFF7DFFF000030B583B00D0019005A
:102FA000002A0BD0074B084C019200932B00020023
:102FB000200003F0D5F90120FFF7CCFF034B1A00E6
:102FC000F1E7C04664A3001074A3001070A30010C2
:102FD00070B52B4B2B4A1A602B4B2C4A1A602C4B8A
:102FE0009A682A4B9343FAD12A4C01E008CC9847BF
:102FF000294B9C42FAD300F001F9234B274A1A606F
:10300000234B9B68DB43DB01FAD1254B40229A67B7
:103010005A671A67DA66234C09E0234B234A24488F
:103020008321FFF7B9FF2000FFF764FF0834214B2D
:103030009C4209D22368002BF5D0012BEDD1200052
:10304000FFF765FF0834F2E71B4DA9681B4CC0224F
:10305000200003F039F8AC60FDF705F9002800D036
:1030600000BEFEF7A1FBFEF7F3FEFFF757FA144C84
:1030700001E008CC9847134B9C42FAD370BDC04680
:1030800000E00040BFCDFBFE00F00040FE7F3C00B2
:1030900000C00040680A0020780A0020FFFFFF01FE
:1030A00000F00140580A0020A4A3001010A4001052
:1030B000C4A30010680A002000ED00E0000000201A
:1030C000780A0020800A00200FB400B583B00848B9
:1030D00003F014F9049B002B07D005A901911800F7
:1030E00003F01CF9034803F009F90120FFF732FF50
:1030F000FCA300100CA40010F8B5DE4657464E465F
:103100004546E0B506000F0015000A9A93424ED3DB
:103110001A0E92461B0298460A9A002340465146D0
:1031200001F086FB81467400A419A4002E4B9C4636
:1031300064446368834200D26060331FDBB29B4605
:10314000012B3AD9C0239B012343802212011A602C
:10315000264BB200D158002905D0586901F026FB52
:1031600001300138FDD16D0123685D40E0222A4025
:1031700080235B0123431A605A46012A28D9802301
:103180009B012343802212011A604B4663604A462A
:1031900000234046514601F04BFB144BB6009851BA
:1031A0000120F0BCBB46B246A946A046F8BD104B74
:1031B000104A11482D21FFF7EFFE012FC2D1C02385
:1031C0009B01234303221A60A368DB07FCD5CAE7EF
:1031D0002168794003220A401A60A3680125BD4096
:1031E0001D42FAD0CBE7C046008000408812002084
:1031F00020A4001070A4001034A4001030B583B0D7
:103200000C2000F01BF9FEF7C5FA00280DD00023B2
:1032100004E02E4A99002E4888500133092BF8D932
:103220002A4B2C4A5A6203B030BD2B4B00229A67BE
:1032300000F076F9294B01221A60274B5B6C012BB9
:10324000FBD1274B03221A60234B9B6B012BFBD135
:10325000013300930433234A0121234800F04EF840
:1032600005230093214A0121214800F047F8214B12
:103270000093002202210420FFF73EFF1E4D00951F
:103280002B00002201210520FFF736FF104C00948F
:103290002300002200210720FFF72EFF00942300C7
:1032A000002200210820FFF727FF0A4B009323008C
:1032B000002200210920FFF71FFF00952B000022AC
:1032C00000210620FFF718FFADE7C0468812002056
:1032D000006CDC021BB70000008000403CB00040E6
:1032E00030B00040002F685900800240008C8647B3
:1032F00000C00240001BB70040597307F0B5C64636
:1033000000B504000F0090461D000C2001F04EFA9D
:1033100006003D4A42443D4B9A4243D843011B1AA2
:103320009901C91AC90009188901404601F03EFAFD
:103330000200103A98235B009A4239D86B1E062B84
:103340003CD8069B013B062B38D8069B9D423BD3BD
:1033500043461B09B3423DD32D04069B1E03354350
:103360002368002B3CDB2A4B9C424AD080235B0124
:10337000284A1360284A1360284A9268190091432A
:10338000FAD12760A060221DC0239B011343212294
:103390001A602268002AFCDAE56008221A6080BC04
:1033A000B846F0BD1E4B1F4A1F481121FFF7F4FD20
:1033B0001E4B1C4A1C481921FFF7EEFD1C4B194AF5
:1033C00019481C21FFF7E8FD1A4B164A164822211E
:1033D000FFF7E2FD184B134A13482521FFF7DCFDE8
:1033E00022683F231340BB42BDD1A3681B051B0DC0
:1033F0008342B8D1E368EE22D2021340AB42B2D18D
:10340000CDE780239B01B3E780E84BD380F8A93256
:1034100000C0024000E0004000F0004000C000405A
:1034200080A40010B0A50010E0A4001014A50010A6
:1034300030A500107CA5001094A5001080239B00EF
:103440000343014AD362704700800540024B1A686B
:10345000024B5A607047C046281700200080054084
:1034600010B5174B8022D2051A60164B164A1A6007
:1034700000290AD0154BE022D2041A60002809D195
:10348000124B802212061A6010BD0D4BE022D204AE
:103490001A60F3E743011B1A9B00181800010C4B3C
:1034A000186080235B04984202D3094B094A1A60D2
:1034B000FFF7CCFF054B8022D2051A60E4E7C04637
:1034C00000B0054008200140FCFF010000A00540BD
:1034D00028170020FFFFFF0010B5030010000C4A62
:1034E0008024E4051460002B0DD001221343094A07
:1034F000094CD461094C5C40146251629362002112
:10350000FFF7AEFF10BD034B0022DA61F7E7C046BC
:1035100000B0054000800540D3C007B02D3FF84FF4
:10352000064BAA2212011A602F22DA60044B054AC8
:103530001A60024B5B68002BFBDA704700400240C8
:103540000060024000B0FA00704710B5002802D0B9
:103550000B684968984710BD0100002007E0830010
:103560001B185B00501C08601078C01830380A68BF
:103570001378303BDBB2092BF1D97047F0B5DE464A
:1035800057464E464546E0B583B093461F000C9B18
:103590009A460D9C0E9B99460F9B9B0703D0B846FD
:1035A0000F00060022E00192A34688464E46B94627
:1035B0000700B44207D2551C4B4641462020B8476D
:1035C00001342A00F5E73D004F465C46019B9B46CF
:1035D000B1464646B84637002E0007E0013C551C70
:1035E0005346185D43463900B0472A00002CF5D1F8
:1035F00035003E0047460F9B9B0707D4100003B0E1
:10360000F0BCBB46B246A946A046F0BDB0464E4609
:10361000B9462F005D46531BB342EFD2541C4B46B4
:1036200041462020B8472200F5E7F0B5CE46474690
:1036300080B585B0944698460C9D0D9C0EAB1B78CA
:103640009946109A119B129EB7071CD4002B0CD0E0
:10365000F7070AD54F46002F02D10C37374204D066
:10366000013B02E030272F550134944201D21F2C38
:10367000F8D9F70707D59C4205D21F2C03D830276D
:103680002F550134F5E7F70612D5770505D4002C40
:1036900003D0944221D09C421FD00F9A102A32D0DE
:1036A0000F9A022A37D01F2C0AD830222A5501340B
:1036B0001F2C05D84A46002A33D02D222A55013422
:1036C000039602930194009543466246FFF756FF26
:1036D00005B0C0BCB946B046F0BD621E012C10D08A
:1036E0000F9F102F0BD014000F9A102AD8D1B206BA
:1036F000D6D51F2CD4D858222A550134D3E7023C02
:10370000CBE71400C9E7B206EED41F2CECD8782220
:103710002A550134C7E71F2CD2D860322A5501340C
:10372000C1E7720703D52B222A550134C8E73207B7
:10373000C6D520222A550134C2E7F0B5DE465746E9
:103740004E464546E0B593B081468A4608920993B5
:103750001CAB10CB1B789B461E9D219B9846002CD2
:1037600003D1102342469A4390468023DB0046460D
:103770001E4042461A4212D0002C22D000260EE0F3
:103780003033D9B2771C0AAB99552900200001F0DB
:103790000DF8AC4216D31F2F14D83E0004002900A8
:1037A000200001F003F8CBB2092BE9D9424692067A
:1037B00005D54121C918C9B20A39C9B2E2E7612168
:1037C000F8E7270043460693209B05931F9B04932D
:1037D00003955B46029301970AAB0093099B089AF5
:1037E00051464846FFF721FF13B0F0BCBB46B24636
:1037F000A946A046F0BDF0B5DE4657464E464546C2
:10380000E0B597B00A900B910C929A46209B99468E
:10381000219F22AA13789B46249B0993259C289BD1
:1038200098464A463A4302D1103293439846802242
:10383000D20045461540434613420AD04A463A4311
:1038400041D000252E0053460D934D46099B9A46C4
:103850001BE02E0053460D934D46099B9A4614E0FB
:103860003033DAB2731C99460EAB9A555246230098
:103870002800390000F0DCFFBC4226D819D04B46A6
:103880001F2B1CD84E4605000F005246230028006F
:10389000390000F0CDFFD3B2092BE1D942469206A0
:1038A00005D54122D218D2B20A3AD2B2DAE7612261
:1038B000F8E7AA45E3D94E460D9B9A4608E04E46E6
:1038C0000D9B9A4604E0002602E04E460D9B9A4668
:1038D00043460693279B0593269B0493099B0393DA
:1038E0005B46029301960EAB009353460C9A0B99DC
:1038F0000A98FFF79AFE17B0F0BCBB46B246A9463D
:10390000A046F0BDF0B5DE4657464E464546E0B50A
:1039100091B0804689460C929A461A9C1B9D2200C3
:103920002B002000290001F01AFA002800D0ECE05A
:1039300001225242D44B2000290001F00BFA00284A
:1039400000D0E2E001225242D04B2000290001F0D9
:10395000EBF9002800D0D8E0002200232000290045
:1039600001F0E2F9002800D0E4E0069407958023F6
:10397000DB001E9A1A400D921E9A1A4201D10623AC
:103980001C930698079902000B0008920993030004
:103990000A00024300D1D9E0080D4005400DBC4E9D
:1039A000B44660440A03120B1E00BA4B13431F00B7
:1039B00001F0E8F9B84AB94B01F06BF9B84AB94BD4
:1039C00001F040F9089009910022B74B300039000E
:1039D00001F02FF9B54AB64B01F05BF902000B007C
:1039E0000898099901F02EF901F0E4F9834601F0F5
:1039F000C9F906000F00AF4AAF4B01F04AF90022A7
:103A0000AE4B01F01FF901F0D5F90890AC4AAD4B6F
:103A10003000390001F03DF906000F00089801F070
:103A2000B1F9A94AA94B01F034F902000B003000AA
:103A3000390001F0FEF806000F0002000B0001F053
:103A400028F90A900B91089BA14A944663440021EF
:103A50000022089109921B05099300230893320064
:103A60003B003000390001F0EDF80E900F9132006C
:103A70003B0000208021C90501F0DBF806000F00A3
:103A80000022944B0A980B9901F0E5F80022924B22
:103A900001F0D8F802000B000A980B9901F0DBF84E
:103AA00000228E4B01F0CEF802000B000A980B9911
:103AB00001F0D1F802000B003000390001F0C2F82B
:103AC00002000B000E980F9901F0C5F80022714B0F
:103AD00001F0B8F8089A099B01F0DBF806000F0026
:103AE00008960997069A079B01F034F900282FD011
:103AF00001235B429C46E3440022774B30003900AF
:103B000001F0A9F80890099122E01E9B04931D9BE7
:103B100003931C9B02930094019553460C9A4946CB
:103B2000404600F0FFF811B0F0BCBB46B246A946D3
:103B3000A046F0BD00210022069107920694802342
:103B40001B069C46AC446346079310E700239B4644
:103B50005B466333C62B20D804261E9B1B0528D545
:103B6000089A099B190011430FD05D4A5D4B0698D6
:103B7000079901F0E7F800287AD000225A4B0698FE
:103B8000079901F0D1F8002872D01C9B5B4506DD37
:103B90005A469B1A013B1C9303E00526DDE70023F0
:103BA0001C938023DB001E9A1A431E9200260023DA
:103BB0009B461D9B9E4265D29F1B02231E9A1A4064
:103BC0000A921E9A134202D0002E00D000275B46B4
:103BD000002B07D0089A099B0698079901F03BF83B
:103BE00006900791002200232000290001F09CF894
:103BF000002800D07CE03D4B1E9A134004930397AD
:103C00001C9B0293069B079C0093019453460C9ABD
:103C10004946404600F086F8002E00D183E71E9BFF
:103C20009B0671D54525441C534602004946280091
:103C3000C0475A46D317D2185A4005230593013E70
:103C40000496002303930A3302935B46DB0F019330
:103C500000925346220049464046FFF76EFD0A9BFC
:103C6000002B00D15FE7020047460C9E1D9D53E0EC
:103C70001C9B002B9DD00D9B002B9AD01C9B013BC5
:103C80001C9396E7002798E7FFFFEF7FFFFFEFFF0A
:103C900001FCFFFF0000F03FFB799F501344D33F2E
:103CA000B3C8608B288AC63F0000F83F61436F634A
:103CB000A787D23F71A379094F930A400000E03FE4
:103CC0001655B5BBB16B0240EF39FAFE422EE63F06
:103CD000FF03000000002C400000244000001840BA
:103CE0002D431CEBE2361A3F80842E41FFF7FFFF85
:103CF000069C079D2200290080200006844661441E
:103D00000B000692079376E765258CE7541C534613
:103D100049462020B8472200931BAB42F6D310003F
:103D200001E7C046F0B5DE4657464E464546E0B58B
:103D300095B00690079193469946209F1E9A1F9B27
:103D40001000190001F00BF8002831D10122524275
:103D5000BF4B1E981F9900F0E7FF002837D10122C2
:103D60005242BC4B1E981F9900F0F4FF00283DD131
:103D70000022B94B1E981F9900F0ECFF002850D18B
:103D80000022B64B1E981F9900F0CEFF002848D1A4
:103D9000002200231E981F9900F0C6FF002850D172
:103DA00000239846229B5B0500D4B6E0002458E02F
:103DB000229B0393219B029303230193A84B00931F
:103DC0004B465A4607990698FFF7D8FB0EE1229B0F
:103DD0000393219B029304230193A24B00934B4630
:103DE0005A4607990698FFF7C9FBFFE00423229A79
:103DF0001A4022990B4210D09B4B002A0FD004226C
:103E00002299039121990291019200934B465A46BF
:103E100007990698FFF7B2FBE8E0944BEDE7032221
:103E2000EEE7229B0493219B039302971E9B1F9C0A
:103E3000009301944B465A4607990698FFF762FD96
:103E4000D4E01E9A1F9B0020002100F0F2FE1E907D
:103E50001F9101239846A5E70CAB30221A55013F6C
:103E600001341F2C01D8092FF6D81E981F9900F095
:103E7000A1FF050000F086FF02000B001E981F99AD
:103E800000F0D7FE7A4BFA009B181A685B680A921A
:103E90000B9300F0FEFE0890099100F0AFFF0600C2
:103EA00000F06CFF02000B000898099900F0C1FEB9
:103EB0000890099100226F4B00F04CFF00282ED093
:103EC0000136300000F05AFF02000B000A980B99EF
:103ED00000F030FF002801D001350026002F2CD142
:103EE000280000F04FFF02000B001E981F9900F001
:103EF000A0FE06000F0000225E4B00F015FF002818
:103F000046D100225B4B3000390000F023FF00282F
:103F10003ED1EB073CD501353AE0062746E70022C3
:103F2000544B0898099900F0FFFE0028D6D1002EC6
:103F300001D0F307D2D50136D0E7AA461F2C11D8FD
:103F4000013F0A21300000F031FC651C30310CAB20
:103F500019550A21300000F029FC092E0ED906005F
:103F60002C00EBE755461F2C0CD87B1E002F09D0E8
:103F70000CAA302111551F000134F4E72B005546DF
:103F80001C00F0E71F2C03D80CAB2E221A5501346D
:103F90001F2C10D80A21280000F0E0FB661C3031ED
:103FA0000CAB19550A21280000F0D8FB051E01D0E2
:103FB0003400EDE734000323229A1340012B1CD078
:103FC0001F2C06D84346002B32D00CAB2D221A559D
:103FD0000134229B0393219B029301940CAB009329
:103FE0004B465A4607990698FFF7C8FA15B0F0BC39
:103FF000BB46B246A946A046F0BD219B002B13D07C
:104000004346002B02D10C3313420FD0219B013BBE
:104010002193190003E00CAB30221A5501348C4275
:10402000CED21F2CF7D9CBE72199F8E72199F6E7F3
:10403000229B5B0704D50CAB2B221A550134C8E731
:10404000229B1B07C5D50CAB20221A550134C0E7B3
:10405000FFFFEFFFFFFFEF7F65CDCD4165CDCDC108
:10406000C8A50010CCA50010BCA50010C4A5001068
:1040700070A700100000E03FF0B5DE4657464E4600
:104080004546E0B593B08246884693461193002991
:1040900000D106E300255646119B1878002800D170
:1040A00002E3252809D06C1C5B462A004146B04734
:1040B000119B013311932500EEE701331193002783
:1040C00020E001231F4301321192012418E0022352
:1040D0001F4301321192012412E004231F430132D5
:1040E000119201240CE008231F4301321192012494
:1040F00006E010231F4301321192012400E0002446
:10410000002C09D0119A1378203BD9B21029F6D887
:104110008B00C449CB589F46119B1A781300303B43
:10412000DBB2092B10D92A2A13D00B94119B1A78D1
:104130002E2A1ED0119A1378683BD9B2122959D869
:104140008B00B949CB589F4611A8FFF705FA0B9091
:10415000ECE71C9B1A1D1C921B68002B04DB0B93C5
:10416000119B01331193E1E7022217435B420B934A
:10417000F6E78022D20017435A1C11925A78130096
:10418000303BDBB2092B0BD92A2AD3D11C9B1A1D39
:104190001C921C68002C08DB119B01331193C9E7AA
:1041A00011A8FFF7D9F90400C4E70024F4E780233D
:1041B0005B003B43511C119151786C2901D01F00C9
:1041C00018E0C0239B001F430232119212E08023AB
:1041D0003B43511C11915178682901D01F0009E01F
:1041E000C0231F430232119204E080235B001F436F
:1041F00001321192119B1878672816D8252826D3EA
:104200000300253BDAB2422A21D89300874AD358CB
:104210009F4680239B001F4301321192EAE78023CF
:104220005B001F4301321192E4E778280FD8692818
:104230000DD30200693AD2B2012393407C4A134263
:104240000FD11A0600D507E25B0500D594E16C1C7E
:104250005B462A004146B047119B0133119325006C
:104260001AE778280AD062283AD06F283BD058281D
:104270003CD010239F43063B9C4601E010239C4604
:10428000582836D0692803D0642801D00C229743DF
:104290007A0501D50122974369282DD064282BD0B7
:1042A000BA0500D5A2E0FA0500D5C3E07A0600D42D
:1042B000D5E01C9A111D1C911168FF220A40059738
:1042C0000B9B049303946346029300230193009293
:1042D0005B462A0041463000FFF72FFA05002AE02E
:1042E00002239C46CCE708239C46C9E710239C4642
:1042F000C6E720221743C5E7BA0520D4FA0550D4F3
:104300007A0666D51C9A111D1C911168FF220A407D
:10431000D0171118414005970B9B049303946346F3
:104320000293D20F019200915B462A004146300071
:10433000FFF703FA0500119B01331193ACE61C9AB9
:10434000073207218A43110008311C911168536814
:104350009946DB170C930D930C9A0D9B1000484067
:104360000E904A4653400F930E980F990C9A0D9B4E
:10437000801A99410E900F9108970B9B0793069412
:1043800063460493002305934B46DA0F0292009094
:1043900001915B462A0041463000FFF72CFA0500E8
:1043A000C9E71C9A111D1C911268D01711184140C1
:1043B00005970B9B0493039463460293D20F0192DB
:1043C00000915B462A0041463000FFF7B6F9050030
:1043D000B1E73A0605D51C9A111D1C910023D25E47
:1043E00096E71C9A111D1C91126891E71C9A0732DE
:1043F00007218A43110008311C9108970B9B0793F2
:10440000069463460493002305930293536812684D
:10441000009201935B462A0041463000FFF7EBF91A
:10442000050088E7D4A5001018A6001064A60010A7
:10443000419000001C9A111D1C9105970B9B049341
:1044400003946346029300230193136800935B4631
:104450002A0041463000FFF770F905006BE73A0685
:1044600006D51C9A111D1C9112681204120C26E725
:104470001C9A111D1C91126821E7462819D01C9B1B
:104480000733072293431A0008321C9204970B9AB1
:10449000039202941A685B68009201935B462A00BB
:1044A00041463000FFF73EFC0500119B013311939C
:1044B000F2E520231F43E2E7672801D0472802D115
:1044C00080231B011F43452801D0472801D1202309
:1044D0001F431C9B0733072293431A0008321C9288
:1044E00004970B9A039202941A685B6800920193F6
:1044F0005B462A0041463000FFF704FA0500119B95
:1045000001331193C8E502231A003A4091463B4219
:104510001DD001241C9B1A1D1C926F1C18785B4631
:104520002A004146B0474B46002B14D1119B013362
:1045300011933D00B0E5571C5B4641462020B04733
:1045400023003A005C1C9D42F5D81500E2E70123E8
:104550002A000B9DF6E73A00B1460B9E06E0571C79
:104560005B4641462020C8472C003A00651CA64205
:10457000F5D817004E46D9E71C9B1A1D1C921B68E4
:104580009A46002C25D101225242534601E00133C4
:104590000A001978002902D0511E002AF7D152468C
:1045A0009B1A8022D200390011408946174202D05E
:1045B000A34200D9230002221100394010913A424F
:1045C00009D02A00250057469A4633004E469946A0
:1045D00021E02200D9E72A004546A04606E0541C07
:1045E0005B4629002020B0473B0022005F1C0B994E
:1045F0009942F4D84446A8463B00250057469A46BF
:1046000033004E46994606E01D000137541C5B46B8
:104610004146C84722003878002804D0002EF4D044
:104620006B1E002DF0D1150053464E46109A002AFD
:1046300003D1119B013311932EE50B9F2A0006E055
:10464000551C5B4641462020B04723002A005C1CD5
:104650009F42F5D81500ECE721233B431C9A111D1E
:104660001C91126805930823049303940833029362
:104670000023019300925B462A0041463000FFF779
:104680005CF80500119B0133119305E56C1C5B463A
:104690002A0041462520B047119B01331193250084
:1046A000FAE40B4B9A46F5E4B2465D450DD35B4602
:1046B0005A1E5B4641460020D047280013B0F0BC8C
:1046C000BB46B246A946A046F0BD2A00F1E7C04667
:1046D0004935001000B585B00290039101210448CE
:1046E000009313004A4202A9FFF7C6FC05B000BDC3
:1046F0004B35001001480421014B1847C00400202D
:104700002547001010B5010018231B8814221088BB
:10471000984710BD10B5010018231B881622108879
:10472000984710BDF0B5C64600B507000E0000253D
:104730000123984600E00135B5420AD2AC003C198D
:104740002068FFF7DFFF20600028F4D1002398469F
:10475000F1E7404680BCB846F0BD0000124A936FB6
:104760009B0815D29066D166002905D0FFE7FFE7C8
:10477000FFE7516F106F704704B580210906C2171B
:104780005140002800D0C84305F016F9002104BDAF
:10479000F0B5146E556E576F166FFFF7E3FF146692
:1047A000556657671667F0BD000000D0114A936F39
:1047B0009B0813D210665166002905D0FFE7FFE77A
:1047C000FFE7516F106F704704B5002801D000203B
:1047D000C04305F0F1F8002104BDC046F0B5146EE9
:1047E000556E576F166FFFF7E5FF146655665767EE
:1047F0001667F0BD000000D094464E4A926F9208B2
:10480000624601D230E0C046F0B54A4EB56F6D0841
:10481000FCD3346E756E776F366F00F025F89446D2
:10482000444A14665566576716676246F0BDC0462F
:104830009446404A926F9208624601D258E0C046C0
:10484000F0B53C4EB56F6D08FCD3346E756E776F66
:10485000366F00F04DF89446364A14665566576731
:1048600016676246F0BDC046002B24DB11D000293C
:104870003EDA00B5C943404200D1013100F038F8BA
:10488000C943404200D10131DB43524200D10133E0
:1048900000BD002AEBD1002801D1002905D000205D
:1048A000C90FC90701D1C043410800B505F07CF824
:1048B0000022002300BD00B500290ADBDB43524281
:1048C00000D1013300F014F8C943404200D1013156
:1048D00000BDC943404200D10131DB43524200D107
:1048E000013300F005F8DB43524200D1013300BD33
:1048F000002923D1002B18D1002A0CD0BC460D4F23
:1049000038667A6600210023FFE7FFE7FFE77A6F4A
:10491000386F67467047002801D00748010000B58E
:1049200005F042F80022002300BD02000B00002029
:1049300000217047000000D0FFFFFFFF002B00D0D8
:10494000BFE0130C28D1002AE7D080B4114F39669C
:104950007A66FFE7FFE730B4040C7B6F396F1B0406
:1049600023433B667A66FFE7FFE7FFE7C04684B272
:104970007B6F3D6F1B0423433B667A66FFE7FFE7CF
:10498000C04600232C042D0C7A6F386F0019694142
:10499000B0BC7047000000D0F0B594460025140E5E
:1049A00001D112020835140F01D112010435940F00
:1049B00001D192000235D40F01D152000135D40B40
:1049C0000134254F7C66254C3C660E0C93B2FFE704
:1049D000FFE7FFE73C6F6643360C7703BE46734341
:1049E000DF0B5B04C01AB941130C7343DB18C91AFF
:1049F000CE086643360CB64493B273431F0F1B01B7
:104A0000C01AB941130C73431F0B1B05C01AB941DF
:104A1000860D8F023E436643360C092D24DB520A75
:104A20007243801A7703460A6643360C16235B1BD3
:104A3000DE40DF40BF1964466643821B7046043582
:104A400006330100D940A840C01900D30131A24269
:104A500006D20023F0BD0000000000D0FFFFFFFFE2
:104A6000121B0130F3D3F1E709277F1BFE40644698
:104A7000A2B27243801A00D20139220C7243130C85
:104A80001204821A99410B00704604351337010055
:104A9000F940A840801900D30131002B02D1A24275
:104AA0000AD2F0BD013000D30131121BFAD2013B12
:104AB000F8D1A24200D2F0BD013000D30131121B67
:104AC000F7E7F0B51C0C00D080E00CB400251C0A00
:104AD00004D11B02160E3343120208351C0B04D1FD
:104AE0001B01160F3343120104359C0B04D19B00AC
:104AF000960F334392000235DC0B02D192185B41D2
:104B000001351C00971864410134464F7C66464CC1
:104B10003C660E0CFFE7FFE7FFE7C0463C6F6643CD
:104B2000360C7703BE4697B27743C01B00D20139DB
:104B3000C01B00D201399FB27743C91BC91B170C98
:104B400077437E04FF0B801BB941CE086643360CC9
:104B50000C2D33DBB644120B1F053A431B0B97B2E7
:104B60007743C01B00D201399FB27743C91B170C92
:104B700077433E043F0C801BB941860D8F023E43B4
:104B8000664329277F1BFE400C3D7746AF40BF1987
:104B900030BCA2B2ABB272437343801A9941220C6B
:104BA0007243130C1204801A994102000B00013762
:104BB000001BA941F9D2781E0021F0BD0C277F1BF4
:104BC000FE4077467F0BAF40FF19E0E700245D1CF5
:104BD00007D0144F7D663966FFE7FFE7FFE7FFE781
:104BE0003C6F95B29EB265436643401BB141150CC4
:104BF0001E0C6543664336042F0C3E432D04401BB8
:104C0000B141994204D202000B0020000021F0BD06
:104C100001D19042F7D3801A994101349942F2D3DD
:104C2000F6E70000000000D0FFFFFFFF48404140D2
:104C3000484018B41B4B5B68FC46019308BD04DF79
:104C40003356001018B4174B1B68FC46019308BD7F
:104C500000DF3D5600109446134A926F920809D225
:104C6000624618B40F4BDB68FC46019308BD0CDFAD
:104C7000F55800100C4AF0B5146E556E576F166F4C
:104C80006246FFF7EEFF084A1466556657671667D7
:104C9000F0BD18B4034B9B68FC46019308BD08DFC8
:104CA0009957001068170020000000D0FFB5504051
:104CB0004240504059404B40594000E0FFB5154F2D
:104CC0004C00640D03D0BC4204D10C0314D8002066
:104CD000090D09055C00640D03D0BC4204D11C031E
:104CE0000AD800221B0D1B0501264B4009D44B405E
:104CF00003D58B4200D18242FFBD9942FCD1904244
:104D0000FFBD0B43DB1803431343F5D0C9434918D8
:104D1000FFBD0000FF07000000B5FFF7CFFF01D087
:104D2000002000BD012000BD00B5FFF7C7FF804196
:104D300000BDC04600B5FFF7C1FF01D9002000BD8E
:104D4000012000BD00B5FFF7B1FF01D9002000BD73
:104D5000012000BD00B5FFF7A9FF804100BD012083
:104D600040054A00121804D85A00121801D8002031
:104D70007047012070470020704700000021002884
:104D800005D17047C1174840401AFAD0C90713B57A
:104D9000064B1B6898470CBC441CA2401005120B24
:104DA0000349091B09051943114310BD6818002068
:104DB0001F04000010B54C00620D8023D218DB00E8
:104DC000D21A5B057E2A10DD9E3A13DACC1709034E
:104DD000490819435242D140640001341532202A57
:104DE00005DAD0400843604310BD002010BD0846DE
:104DF000604310BDC80FC018013810BD18B4044B73
:104E00005B6AFC46019308BD24DFA55A0010000030
:104E10006817002018B4044BDB6CFC46019308BDF6
:104E20004CDF755C001000006817002018B4044BBC
:104E30001B6DFC46019308BD50DF115D00100000A2
:104E40006817002070B513231C78012C12D0012C98
:104E500012DC214B214A93642148FFF753FC214B7C
:104E6000186070BD1C491D4A9800815001331F2BEA
:104E7000F8D9ECE70023FAE71B48FFF74BFC0500E5
:104E80001A48FFF747FC023803789B007F2B09DDA7
:104E900012488022290001F017F9022C08D0022CB8
:104EA000DADCD6E7124B134A13483221FEF774F8C6
:104EB000124B1A88B5231B029A4209D1104B1A884B
:104EC000104B9A4204D1104B1A88104B9A42E6D0EC
:104ED0000020FEF7F9F8C046F955001068170020C9
:104EE0004C33000068180020534400005346000073
:104EF000C0A7001060A8001020A8001054380000BF
:104F0000D8380000494600009C380000594600008F
:104F100030B50B0D5B055C0D002B14D00D4B9C4286
:104F200011D01419002C09DD0B4B9C420CDDC90F6C
:104F3000C907002409480843050002E00024C90FFE
:104F4000CD072000290030BD0024150524184D414F
:104F5000F7E7C046FF070000FE0700000000F07FF3
:104F600030B50B0D5B055A0D002B1FD0134BD2181B
:104F70001ED434239B1A002B1CDD1C00203C0CD4B7
:104F800001225242A240012464429C400300A343F8
:104F900091430B4310D1012009E02024E41A01229F
:104FA00052421500E5409A402A43ECE7012030BD0B
:104FB0000020FCE70120FAE70020F8E701FCFFFFF2
:104FC00030B50B0D5B055B0D1B4A9B182CD43422AE
:104FD000D31A2BD41C00203C16D4353AA24001240D
:104FE00064429C400500A5432C000D0095432A0017
:104FF00022431DD1342B1DD01A00203A0DD40800B5
:10500000D0400123184030BD2024E41A012252422E
:105010001500E5409A402A43E1E72022D21A0C000D
:105020009440D8402043ECE70020ECE70020EAE77A
:105030000020E8E70120E6E701FCFFFF02000B008B
:10504000090D4905480D002907D00549884205D0BA
:105050001803000B10434342584170470020FCE7FF
:10506000FF07000070B504000D001600012A0ED0E5
:10507000D20F92195210FFF7F5FF02000B00FFF755
:1050800008FEF60703D522002B00FFF702FE70BDD5
:1050900010B5141E03DB2200FFF7E4FF10BD020071
:1050A0000B0000200249FFF7D6FD6442F3E7C0463B
:1050B0000000F03FF0B5D6464F464646C0B588B032
:1050C00014001D000E0D7605760D674BF718674A24
:1050D000921BFFF71DFFFFF7A9FE654A654BFFF71F
:1050E000BAFD0022644B00900191FFF733FE0028C7
:1050F00009D00022614B00980199FFF79AFD0090BA
:1051000001915F4BF718002F11D000225D4B20005A
:105110002900FFF717FE002815D0002F10DB002014
:10512000594908B0E0BCBA46B146A846F0BD2200D5
:105130002B0000980199FFF7ACFD00F065F9F0E74E
:1051400000200021EDE70022504B20002900FFF74E
:10515000F1FD002807D0002F02DB00200021E0E74E
:1051600000204949DDE72000290000F001F9049002
:10517000059102000B0020002900FFF75AFD0300F3
:105180000C001A220293039400F0EEF800F0F0F8FD
:105190001A225242FFF7BCFE04000D0002000B0071
:1051A00002980399FFF745FD069007910498059929
:1051B000FFF700FE8146010079438A463800FFF779
:1051C000E1FD22002B0004900591FFF762FD06002F
:1051D0000F0000F0CDF804000D00FFF7EBFD804656
:1051E000D04422002B0030003900FFF722FD0400DC
:1051F0000D00069A079B04980599FFF74AFD0200E7
:105200000B0020002900FFF71DFD04900591484682
:10521000FFF7B8FD009A019BFFF73BFD04000D006E
:1052200000F0A6F806000F00FFF7C4FD804432002E
:105230003B0020002900FFF7FCFC049A059BFFF7C8
:1052400001FD04000D00029A039B00980199FFF7ED
:1052500020FD22002B00FFF7F5FC00F0D5F84246B8
:10526000FFF756FE5DE7C04601FCFFFFFF030000AD
:10527000EF39FAFE422EE63F0000E03F0000F03F2B
:1052800002FCFFFF0000B0400000F07F0000B0C053
:10529000F0B5C64600B582B004000D0016001F0030
:1052A000019000291DDA10001900FFF789FE00287F
:1052B0000ED0200080231B06E91832003B00FFF7C8
:1052C000E7FF80242406091902B080BCB846F0BD6F
:1052D000019880231B06E91832003B00FFF7D8FF36
:1052E000F2E710001900FFF765FD80462000290055
:1052F000FFF7A4FE00280CD14346002B28D0203312
:10530000402B1FD932003B0020002900FFF7D2FEBE
:10531000DAE72A0D5205520D0F4B9C46624480235A
:105320001B01984505DA0D4B984504DA0B4B98465E
:1053300001E00B4B984643465A4300200949FFF7CA
:10534000E7FDC1E7424620002900FFF7A1FEBBE7C9
:1053500000200449B8E7C04601FCFFFF00F8FFFF4A
:10536000FF0700000000F03F10B5FFF7D1FD10BDB2
:1053700070B50B0D5B055B0D214A944663445A1CC6
:1053800024DB5A1C28D03422D21A002A1DDD3324F3
:10539000E41A2500203D26D40126AE403300012525
:1053A000A5402A0012184B412500203D21D4022699
:1053B000AE4031000225A5402800002544428D4121
:1053C0001600264030002B40190070BD0022C90F86
:1053D000CB0710001900F8E7CB0FDB070020094AC4
:1053E0001A431100F1E720252D1B0126EE40330062
:1053F000D5E720252D1B0226EE403100DAE7C04616
:1054000001FCFFFF0000F03F70B504000D000A0D25
:10541000194B9A4229D00022184BFFF78BFC002829
:1054200026D10022164B20002900FFF78BFC002814
:1054300002D0002013491DE020002900FFF798FF4B
:10544000FFF7B8FC0600FFF79DFC02000B002000F0
:105450002900FFF7EEFB0C4A0C4BFFF71AFCFFF795
:10546000D9FC3200FFF754FD04E00020002101E0E8
:105470000020002170BDC046FF0F00000000B0C03A
:105480000000B0400000F07FEF39FAFE422EE63F08
:10549000F8B5CE46474680B506000F0014001D0043
:1054A00000224E4BFFF738FC002821D12B0D9846E7
:1054B0005B055A0D9146002B1AD00022484B300054
:1054C0003900FFF729FC002802D0464B99456DD0E2
:1054D0003A0D5305590D002B1DD1002D0EDB200078
:1054E0002900FFF76DFD002863D03000390001E08E
:1054F00000203A49C0BCB946B046F8BD200029009A
:10550000FFF75EFD002857D0FB0FDB070020364A6F
:105510001A431100EEE7334B9A4213D0334B9A42B1
:1055200015D0304B984527D0304B98452AD02000D5
:105530002900FFF715FD00282AD1002F2FDA0020BF
:105540002949D7E7002D3ADA00200021D2E7002DC3
:1055500008DB20002900FFF733FD002832D00020AF
:105560002349C7E720002900FFF72AFD00282CD097
:10557000002080210906BDE71E4B994228DC00204F
:105580000021B7E71B4B994225DC00201649B1E703
:1055900022002B0030003900FFF77AFEAAE7220034
:1055A0002B0030003900FFF785FDA3E700200B49F1
:1055B000A0E7002000219DE700200B499AE700208A
:1055C000094997E70020084994E70020002191E766
:1055D000002005498EE7002000218BE70000F03F06
:1055E0000000F0BFFF0700000000F07FFF0F000089
:1055F0000000F0FFFE03000007B56046002800D160
:1056000000BE01880A0A0230DF2AFAD1C9B2820834
:1056100004D3028840880004104300E00068024A76
:105620005050039007BD0000681700200FB403BC62
:105630000CBCF0B50124E407634000E0F0B50C0DAC
:10564000CF0F661E3605891B640503D3C94340424C
:1056500000D30131640D03D0661CF60A07D0E41BA9
:1056600000207F00791C89078912803C24031D0DCE
:10567000DF0F6E1E36059B1B6D0503D3DB435242C5
:1056800000D301336D0D03D06E1CF60A07D0ED1B5D
:1056900000227F007B1C9B079B12803D2D032F1B4C
:1056A000661B58D4A446202E46DA20371400BC408E
:1056B0001D00BD40F24033412A4380185941CB0FB1
:1056C00005D0C943C0430022644250415141624663
:1056D0004D0D28D10D0D07D100281FD024194041B0
:1056E0004941013A0D0DF9D0640006D3013000D3D1
:1056F0000131002C01D140084000013A0BD4941C28
:10570000E40A04D112051144DB071944F0BDD9079E
:10571000204B194300E0D9070020F0BD0029DDD15E
:10572000002CDBD1F0BD0132C6074008CD0728436D
:105730004908002EE1D0D9E73C2E29DA203E403737
:105740001400BC4000D00124F24014431A00BB40B6
:105750001C43D317ACE7AC46202F08DA20360400F0
:10576000B4400D00B540F84039412843A5E73C2F2F
:105770000CDA203F40360400B44000D00124F84049
:1057800004430800B1400C43C117EAE710001900B8
:10579000002494E70000F07FF0B50C0D661E36057E
:1057A000891BE60A6405640D02D0651CED0A04D06D
:1057B000002001210905803C2403A4461C0D671E1E
:1057C0003F05DB1BE70A6405640D02D0651CED0A8A
:1057D00004D0002201231B05803C2403774064444D
:1057E00097B484B296B27443070C7E43150C6F4392
:1057F00080B26843361802D3012000043F183004F9
:10580000350C00197D41844688B29AB250430C0C85
:1058100062431F0C7C438EB27E43921902D3012651
:105820003604A4191604170C3618674101BC81B25E
:105830009AB25143040C62431B0C5C4380B2584340
:10584000121802D30120000424181004130C40186D
:1058500063412D185E410020474106BC88B293B2D7
:1058600058430C0C6343120C544389B251435B18E8
:1058700002D301210904641819041A0C09186241A1
:105880006D1856410020474118BCF902720D1143B2
:10589000F0026A0D1043ED020A0D03D16D1940416B
:1058A0004941013B124E9B1B7600B3420ED26D0064
:1058B00007D30130002671416646354301D14008C7
:1058C00040001B05C918E4072144F0BD0BDA013381
:1058D00006D1013004D101314F0D01D04908F2E762
:1058E000E1070020F0BD013631050020EBE70000A4
:1058F000FF030000F0B51C0D671E3F05DB1BE70A28
:105900006405640D02D0661CF60A04D0002201234F
:105910001B05803C2403D0252D060026F6432E6669
:105920001E096E66CE0FF619B44649004F0D02D01F
:105930007E1CF60A03D000200021403F3F033E1B9F
:10594000B600B444013F7F05C91B49082E6F0136DC
:1059500076089C02950D25437543ED137543AD13F1
:1059600001356D10F603761B0CB4CC02450D2C43AB
:10597000A2B2B3B25A43270C7B43350C6F43A4B297
:105980006C431B1902D3012424043F191C041D0C71
:10599000A4187D4124196D41009A91B2ACB26143C3
:1059A000170C7C432B0C5F4392B25A43A41802D3CA
:1059B00001221204BF182204230C52187B41019CBF
:1059C0006C431B19520ED9010A434401A01A81B23B
:1059D000B2B2514303145A43360C734387B2774330
:1059E000D617D21900277E4136049B191704160CCE
:1059F0007F185E417316ED18F30100268033754160
:105A0000A90F06D16400690AE8055B0A184309D2A8
:105A10002FE00422944480337541A90AA8059B0A0B
:105A2000184326D3404149412404009A019B0D00AC
:105A30005543641B4343E41A95B286B27543170C71
:105A40007E43030C5F4392B25A43B61802D301223D
:105A50001204BF183204330C52197B4152429C414C
:105A6000002C02D40022013051414008CA071043E3
:105A7000490802B06246D7079210084BD218084B6B
:105A80009A4203D212058918C919F0BD0020002AD4
:105A900001DC3900F0BD01331905F5E7FD03000015
:105AA000FE070000002200B5203200F004F80800D4
:105AB00000BD000000220B150AD410B5944600F07A
:105AC00079F81414013400DA0021CB17144C204764
:105AD0000020002170476244343A0CD40C2A07DAC3
